{
  "contractName": "AuctionCreator",
  "abi": [
    {
      "inputs": [
        {
          "internalType": "address",
          "name": "_nftDealContract",
          "type": "address"
        }
      ],
      "stateMutability": "nonpayable",
      "type": "constructor"
    },
    {
      "inputs": [
        {
          "internalType": "uint256",
          "name": "",
          "type": "uint256"
        }
      ],
      "name": "auctionNfts",
      "outputs": [
        {
          "internalType": "address",
          "name": "account",
          "type": "address"
        },
        {
          "internalType": "uint8",
          "name": "tokenId",
          "type": "uint8"
        },
        {
          "internalType": "uint256",
          "name": "endBlockNum",
          "type": "uint256"
        },
        {
          "internalType": "uint256",
          "name": "endTime",
          "type": "uint256"
        },
        {
          "internalType": "contract Auction",
          "name": "auctionContract",
          "type": "address"
        }
      ],
      "stateMutability": "view",
      "type": "function",
      "constant": true
    },
    {
      "inputs": [
        {
          "internalType": "uint256",
          "name": "",
          "type": "uint256"
        }
      ],
      "name": "auctionToId",
      "outputs": [
        {
          "internalType": "contract Auction",
          "name": "",
          "type": "address"
        }
      ],
      "stateMutability": "view",
      "type": "function",
      "constant": true
    },
    {
      "inputs": [],
      "name": "nftDealContract",
      "outputs": [
        {
          "internalType": "contract NftDealContract",
          "name": "",
          "type": "address"
        }
      ],
      "stateMutability": "view",
      "type": "function",
      "constant": true
    },
    {
      "inputs": [
        {
          "internalType": "uint8",
          "name": "_tokenId",
          "type": "uint8"
        },
        {
          "internalType": "address",
          "name": "_nftContractAddres",
          "type": "address"
        },
        {
          "internalType": "uint256",
          "name": "_startBid",
          "type": "uint256"
        },
        {
          "internalType": "uint256",
          "name": "_startTime",
          "type": "uint256"
        },
        {
          "internalType": "uint256",
          "name": "_endTime",
          "type": "uint256"
        }
      ],
      "name": "createAuction",
      "outputs": [],
      "stateMutability": "nonpayable",
      "type": "function"
    },
    {
      "inputs": [
        {
          "internalType": "uint256",
          "name": "_tokenId",
          "type": "uint256"
        }
      ],
      "name": "getAuctionAddress",
      "outputs": [
        {
          "internalType": "contract Auction",
          "name": "",
          "type": "address"
        }
      ],
      "stateMutability": "view",
      "type": "function",
      "constant": true
    },
    {
      "inputs": [],
      "name": "getAuctioningNft",
      "outputs": [
        {
          "components": [
            {
              "internalType": "address",
              "name": "account",
              "type": "address"
            },
            {
              "internalType": "uint8",
              "name": "tokenId",
              "type": "uint8"
            },
            {
              "internalType": "uint256",
              "name": "endBlockNum",
              "type": "uint256"
            },
            {
              "internalType": "uint256",
              "name": "endTime",
              "type": "uint256"
            },
            {
              "internalType": "contract Auction",
              "name": "auctionContract",
              "type": "address"
            }
          ],
          "internalType": "struct AuctionCreator.AuctionNft[]",
          "name": "",
          "type": "tuple[]"
        }
      ],
      "stateMutability": "view",
      "type": "function",
      "constant": true
    },
    {
      "inputs": [],
      "name": "getCurrentBlock",
      "outputs": [
        {
          "internalType": "uint256",
          "name": "",
          "type": "uint256"
        }
      ],
      "stateMutability": "view",
      "type": "function",
      "constant": true
    }
  ],
  "bytecode": "0x608060405234801561001057600080fd5b5060405162002f0438038062002f048339818101604052810190610034919061008f565b806000806101000a81548173ffffffffffffffffffffffffffffffffffffffff021916908373ffffffffffffffffffffffffffffffffffffffff1602179055505061010a565b600081519050610089816100f3565b92915050565b6000602082840312156100a5576100a46100ee565b5b60006100b38482850161007a565b91505092915050565b60006100c7826100ce565b9050919050565b600073ffffffffffffffffffffffffffffffffffffffff82169050919050565b600080fd5b6100fc816100bc565b811461010757600080fd5b50565b612dea806200011a6000396000f3fe60806040523480156200001157600080fd5b5060043610620000885760003560e01c806379479d90116200006357806379479d901462000107578063a2700a441462000127578063df6378e91462000161578063e8dae15114620001975762000088565b806336534580146200008d57806357dfdccd14620000c3578063672d5d3b14620000e5575b600080fd5b620000ab6004803603810190620000a59190620007a1565b620001b9565b604051620000ba919062000b10565b60405180910390f35b620000cd620001ec565b604051620000dc919062000b2d565b60405180910390f35b620000ef62000210565b604051620000fe919062000b6c565b60405180910390f35b6200012560048036038101906200011f9190620007d3565b62000218565b005b6200014560048036038101906200013f9190620007a1565b620004f6565b6040516200015895949392919062000a8f565b60405180910390f35b6200017f6004803603810190620001799190620007a1565b6200058a565b6040516200018e919062000b10565b60405180910390f35b620001a1620005c7565b604051620001b0919062000aec565b60405180910390f35b60016020528060005260406000206000915054906101000a900473ffffffffffffffffffffffffffffffffffffffff1681565b60008054906101000a900473ffffffffffffffffffffffffffffffffffffffff1681565b600043905090565b60008054906101000a900473ffffffffffffffffffffffffffffffffffffffff1673ffffffffffffffffffffffffffffffffffffffff1663b43a76f1866040518263ffffffff1660e01b815260040162000273919062000b89565b60206040518083038186803b1580156200028c57600080fd5b505afa158015620002a1573d6000803e3d6000fd5b505050506040513d601f19601f82011682018060405250810190620002c791906200076f565b156200030a576040517f08c379a0000000000000000000000000000000000000000000000000000000008152600401620003019062000b4a565b60405180910390fd5b600033858585858a604051620003209062000705565b620003319695949392919062000a22565b604051809103906000f0801580156200034e573d6000803e3d6000fd5b50905080600160008860ff16815260200190815260200160002060006101000a81548173ffffffffffffffffffffffffffffffffffffffff021916908373ffffffffffffffffffffffffffffffffffffffff16021790555060036040518060a001604052803373ffffffffffffffffffffffffffffffffffffffff1681526020018860ff16815260200160025481526020018481526020018373ffffffffffffffffffffffffffffffffffffffff16815250908060018154018082558091505060019003906000526020600020906004020160009091909190915060008201518160000160006101000a81548173ffffffffffffffffffffffffffffffffffffffff021916908373ffffffffffffffffffffffffffffffffffffffff16021790555060208201518160000160146101000a81548160ff021916908360ff160217905550604082015181600101556060820151816002015560808201518160030160006101000a81548173ffffffffffffffffffffffffffffffffffffffff021916908373ffffffffffffffffffffffffffffffffffffffff1602179055505050505050505050565b600381815481106200050757600080fd5b90600052602060002090600402016000915090508060000160009054906101000a900473ffffffffffffffffffffffffffffffffffffffff16908060000160149054906101000a900460ff16908060010154908060020154908060030160009054906101000a900473ffffffffffffffffffffffffffffffffffffffff16905085565b60006001600083815260200190815260200160002060009054906101000a900473ffffffffffffffffffffffffffffffffffffffff169050919050565b60606003805480602002602001604051908101604052809291908181526020016000905b82821015620006fc57838290600052602060002090600402016040518060a00160405290816000820160009054906101000a900473ffffffffffffffffffffffffffffffffffffffff1673ffffffffffffffffffffffffffffffffffffffff1673ffffffffffffffffffffffffffffffffffffffff1681526020016000820160149054906101000a900460ff1660ff1660ff16815260200160018201548152602001600282015481526020016003820160009054906101000a900473ffffffffffffffffffffffffffffffffffffffff1673ffffffffffffffffffffffffffffffffffffffff1673ffffffffffffffffffffffffffffffffffffffff168152505081526020019060010190620005eb565b50505050905090565b6120738062000d4283390190565b600081359050620007248162000cd9565b92915050565b6000815190506200073b8162000cf3565b92915050565b600081359050620007528162000d0d565b92915050565b600081359050620007698162000d27565b92915050565b60006020828403121562000788576200078762000cab565b5b600062000798848285016200072a565b91505092915050565b600060208284031215620007ba57620007b962000cab565b5b6000620007ca8482850162000741565b91505092915050565b600080600080600060a08688031215620007f257620007f162000cab565b5b6000620008028882890162000758565b9550506020620008158882890162000713565b9450506040620008288882890162000741565b93505060606200083b8882890162000741565b92505060806200084e8882890162000741565b9150509295509295909350565b60006200086983836200095b565b60a08301905092915050565b620008808162000bf0565b82525050565b620008918162000bf0565b82525050565b6000620008a48262000bb6565b620008b0818562000bce565b9350620008bd8362000ba6565b8060005b83811015620008f4578151620008d888826200085b565b9750620008e58362000bc1565b925050600181019050620008c1565b5085935050505092915050565b6200090c8162000c47565b82525050565b6200091d8162000c47565b82525050565b6200092e8162000c5b565b82525050565b60006200094360148362000bdf565b9150620009508262000cb0565b602082019050919050565b60a08201600082015162000973600085018262000875565b50602082015162000988602085018262000a00565b5060408201516200099d6040850182620009cd565b506060820151620009b26060850182620009cd565b506080820151620009c7608085018262000901565b50505050565b620009d88162000c30565b82525050565b620009e98162000c30565b82525050565b620009fa8162000c97565b82525050565b62000a0b8162000c3a565b82525050565b62000a1c8162000c3a565b82525050565b600060c08201905062000a39600083018962000886565b62000a48602083018862000886565b62000a576040830187620009de565b62000a666060830186620009de565b62000a756080830185620009de565b62000a8460a0830184620009ef565b979650505050505050565b600060a08201905062000aa6600083018862000886565b62000ab5602083018762000a11565b62000ac46040830186620009de565b62000ad36060830185620009de565b62000ae2608083018462000912565b9695505050505050565b6000602082019050818103600083015262000b08818462000897565b905092915050565b600060208201905062000b27600083018462000912565b92915050565b600060208201905062000b44600083018462000923565b92915050565b6000602082019050818103600083015262000b658162000934565b9050919050565b600060208201905062000b836000830184620009de565b92915050565b600060208201905062000ba06000830184620009ef565b92915050565b6000819050602082019050919050565b600081519050919050565b6000602082019050919050565b600082825260208201905092915050565b600082825260208201905092915050565b600062000bfd8262000c10565b9050919050565b60008115159050919050565b600073ffffffffffffffffffffffffffffffffffffffff82169050919050565b6000819050919050565b600060ff82169050919050565b600062000c548262000c6f565b9050919050565b600062000c688262000c6f565b9050919050565b600062000c7c8262000c83565b9050919050565b600062000c908262000c10565b9050919050565b600062000ca48262000c3a565b9050919050565b600080fd5b7f7468697320746f6b656e2069732073616c696e67000000000000000000000000600082015250565b62000ce48162000bf0565b811462000cf057600080fd5b50565b62000cfe8162000c04565b811462000d0a57600080fd5b50565b62000d188162000c30565b811462000d2457600080fd5b50565b62000d328162000c3a565b811462000d3e57600080fd5b5056fe60806040526000600b60006101000a81548160ff0219169083151502179055503480156200002c57600080fd5b5060405162002073380380620020738339818101604052810190620000529190620002ea565b846000806101000a81548173ffffffffffffffffffffffffffffffffffffffff021916908373ffffffffffffffffffffffffffffffffffffffff16021790555060008060009054906101000a900473ffffffffffffffffffffffffffffffffffffffff1673ffffffffffffffffffffffffffffffffffffffff16636352211e836040518263ffffffff1660e01b8152600401620000f09190620003e0565b60206040518083038186803b1580156200010957600080fd5b505afa1580156200011e573d6000803e3d6000fd5b505050506040513d601f19601f82011682018060405250810190620001449190620002b8565b90508073ffffffffffffffffffffffffffffffffffffffff168773ffffffffffffffffffffffffffffffffffffffff1614620001b7576040517f08c379a0000000000000000000000000000000000000000000000000000000008152600401620001ae90620003be565b60405180910390fd5b86600160006101000a81548173ffffffffffffffffffffffffffffffffffffffff021916908373ffffffffffffffffffffffffffffffffffffffff1602179055506001600560006101000a81548160ff021916908360038111156200022157620002206200044c565b5b021790555081600a8190555084600481905550836002819055508260038190555067016345785d8a00006009819055506001600c600084815260200190815260200160002060006101000a81548160ff02191690831515021790555050505050505050620004dd565b6000815190506200029b81620004a9565b92915050565b600081519050620002b281620004c3565b92915050565b600060208284031215620002d157620002d06200047b565b5b6000620002e1848285016200028a565b91505092915050565b60008060008060008060c087890312156200030a57620003096200047b565b5b60006200031a89828a016200028a565b96505060206200032d89828a016200028a565b95505060406200034089828a01620002a1565b94505060606200035389828a01620002a1565b93505060806200036689828a01620002a1565b92505060a06200037989828a01620002a1565b9150509295509295509295565b600062000395601883620003fd565b9150620003a28262000480565b602082019050919050565b620003b88162000442565b82525050565b60006020820190508181036000830152620003d98162000386565b9050919050565b6000602082019050620003f76000830184620003ad565b92915050565b600082825260208201905092915050565b60006200041b8262000422565b9050919050565b600073ffffffffffffffffffffffffffffffffffffffff82169050919050565b6000819050919050565b7f4e487b7100000000000000000000000000000000000000000000000000000000600052602160045260246000fd5b600080fd5b7f796f7520617265206e6f7420746f6b656e206f776e6572210000000000000000600082015250565b620004b4816200040e565b8114620004c057600080fd5b50565b620004ce8162000442565b8114620004da57600080fd5b50565b611b8680620004ed6000396000f3fe60806040526004361061012a5760003560e01c80638b7b097f116100ab57806399ae86381161006f57806399ae8638146103ca578063eb01d83b146103f5578063ed671e3714610420578063ee28a6851461044b578063f5b56c5614610476578063f63a0888146104a15761012a565b80638b7b097f146103045780638da5cb5b1461032f57806391f901571461035a57806396b5a755146103855780639979ef45146103ae5761012a565b806371cfa409116100f257806371cfa4091461022857806377c5a4c61461025357806378e979251461027e5780637d443e57146102a95780637fb45099146102d95761012a565b8063042d0f4e1461012f578063115a93c81461016c578063188ec356146101955780633197cbb6146101c057806362ea82db146101eb575b600080fd5b34801561013b57600080fd5b506101566004803603810190610151919061136c565b6104de565b60405161016391906115d4565b60405180910390f35b34801561017857600080fd5b50610193600480360381019061018e9190611399565b6104fe565b005b3480156101a157600080fd5b506101aa610ade565b6040516101b79190611726565b60405180910390f35b3480156101cc57600080fd5b506101d5610ae6565b6040516101e29190611726565b60405180910390f35b3480156101f757600080fd5b50610212600480360381019061020d919061133f565b610aec565b60405161021f9190611726565b60405180910390f35b34801561023457600080fd5b5061023d610b04565b60405161024a91906115ef565b60405180910390f35b34801561025f57600080fd5b50610268610b28565b6040516102759190611726565b60405180910390f35b34801561028a57600080fd5b50610293610b2e565b6040516102a09190611726565b60405180910390f35b3480156102b557600080fd5b506102be610b34565b6040516102d096959493929190611625565b60405180910390f35b3480156102e557600080fd5b506102ee610b6e565b6040516102fb919061160a565b60405180910390f35b34801561031057600080fd5b50610319610b81565b60405161032691906115d4565b60405180910390f35b34801561033b57600080fd5b50610344610b94565b604051610351919061152f565b60405180910390f35b34801561036657600080fd5b5061036f610bba565b60405161037c919061152f565b60405180910390f35b34801561039157600080fd5b506103ac60048036038101906103a7919061136c565b610be0565b005b6103c860048036038101906103c3919061136c565b610d0f565b005b3480156103d657600080fd5b506103df6111f3565b6040516103ec9190611514565b60405180910390f35b34801561040157600080fd5b5061040a61121d565b6040516104179190611726565b60405180910390f35b34801561042c57600080fd5b50610435611264565b6040516104429190611726565b60405180910390f35b34801561045757600080fd5b5061046061126e565b60405161046d91906115d4565b60405180910390f35b34801561048257600080fd5b5061048b6112ca565b6040516104989190611726565b60405180910390f35b3480156104ad57600080fd5b506104c860048036038101906104c3919061136c565b6112d0565b6040516104d591906115d4565b60405180910390f35b600c6020528060005260406000206000915054906101000a900460ff1681565b600380811115610511576105106119e4565b5b600560009054906101000a900460ff166003811115610533576105326119e4565b5b1480610540575060035442115b61054957600080fd5b600160009054906101000a900473ffffffffffffffffffffffffffffffffffffffff1673ffffffffffffffffffffffffffffffffffffffff163373ffffffffffffffffffffffffffffffffffffffff1614806105e457506000600860003373ffffffffffffffffffffffffffffffffffffffff1673ffffffffffffffffffffffffffffffffffffffff16815260200190815260200160002054115b6105ed57600080fd5b600080600380811115610603576106026119e4565b5b600560009054906101000a900460ff166003811115610625576106246119e4565b5b141561067557339150600860003373ffffffffffffffffffffffffffffffffffffffff1673ffffffffffffffffffffffffffffffffffffffff168152602001908152602001600020549050610a20565b600160009054906101000a900473ffffffffffffffffffffffffffffffffffffffff1673ffffffffffffffffffffffffffffffffffffffff163373ffffffffffffffffffffffffffffffffffffffff161480156106e5575060001515600b60009054906101000a900460ff161515145b1561075f57600160009054906101000a900473ffffffffffffffffffffffffffffffffffffffff1691506000600560646006546107229190611800565b61072c9190611831565b90508060065461073c919061188b565b91506001600b60006101000a81548160ff02191690831515021790555050610a1f565b600760009054906101000a900473ffffffffffffffffffffffffffffffffffffffff1673ffffffffffffffffffffffffffffffffffffffff163373ffffffffffffffffffffffffffffffffffffffff1614156109d857600760009054906101000a900473ffffffffffffffffffffffffffffffffffffffff16915060065460086000600760009054906101000a900473ffffffffffffffffffffffffffffffffffffffff1673ffffffffffffffffffffffffffffffffffffffff1673ffffffffffffffffffffffffffffffffffffffff16815260200190815260200160002054610849919061188b565b905060008054906101000a900473ffffffffffffffffffffffffffffffffffffffff1673ffffffffffffffffffffffffffffffffffffffff166342842e0e600160009054906101000a900473ffffffffffffffffffffffffffffffffffffffff16600760009054906101000a900473ffffffffffffffffffffffffffffffffffffffff16600a546040518463ffffffff1660e01b81526004016108ee9392919061154a565b600060405180830381600087803b15801561090857600080fd5b505af115801561091c573d6000803e3d6000fd5b5050505060008054906101000a900473ffffffffffffffffffffffffffffffffffffffff1673ffffffffffffffffffffffffffffffffffffffff16635654360e85600160009054906101000a900473ffffffffffffffffffffffffffffffffffffffff1685876040518563ffffffff1660e01b81526004016109a19493929190611741565b600060405180830381600087803b1580156109bb57600080fd5b505af11580156109cf573d6000803e3d6000fd5b50505050610a1e565b339150600860003373ffffffffffffffffffffffffffffffffffffffff1673ffffffffffffffffffffffffffffffffffffffff1681526020019081526020016000205490505b5b5b6000600860008473ffffffffffffffffffffffffffffffffffffffff1673ffffffffffffffffffffffffffffffffffffffff168152602001908152602001600020819055508173ffffffffffffffffffffffffffffffffffffffff166108fc829081150290604051600060405180830381858888f19350505050158015610aab573d6000803e3d6000fd5b506000600c600086815260200190815260200160002060006101000a81548160ff02191690831515021790555050505050565b600042905090565b60035481565b60086020528060005260406000206000915090505481565b60008054906101000a900473ffffffffffffffffffffffffffffffffffffffff1681565b60045481565b60025481565b600080600080600080600560009054906101000a900460ff1660045460095460025443600354955095509550955095509550909192939495565b600560009054906101000a900460ff1681565b600b60009054906101000a900460ff1681565b600160009054906101000a900473ffffffffffffffffffffffffffffffffffffffff1681565b600760009054906101000a900473ffffffffffffffffffffffffffffffffffffffff1681565b600354421115610c25576040517f08c379a0000000000000000000000000000000000000000000000000000000008152600401610c1c90611686565b60405180910390fd5b600160009054906101000a900473ffffffffffffffffffffffffffffffffffffffff1673ffffffffffffffffffffffffffffffffffffffff163373ffffffffffffffffffffffffffffffffffffffff1614610cb5576040517f08c379a0000000000000000000000000000000000000000000000000000000008152600401610cac90611706565b60405180910390fd5b6003600560006101000a81548160ff02191690836003811115610cdb57610cda6119e4565b5b02179055506000600c600083815260200190815260200160002060006101000a81548160ff02191690831515021790555050565b600160009054906101000a900473ffffffffffffffffffffffffffffffffffffffff1673ffffffffffffffffffffffffffffffffffffffff163373ffffffffffffffffffffffffffffffffffffffff161415610da0576040517f08c379a0000000000000000000000000000000000000000000000000000000008152600401610d97906116a6565b60405180910390fd5b600254421015610de5576040517f08c379a0000000000000000000000000000000000000000000000000000000008152600401610ddc906116c6565b60405180910390fd5b600354421115610e2a576040517f08c379a0000000000000000000000000000000000000000000000000000000008152600401610e2190611686565b60405180910390fd5b60016003811115610e3e57610e3d6119e4565b5b600560009054906101000a900460ff166003811115610e6057610e5f6119e4565b5b14610e6a57600080fd5b600034600860003373ffffffffffffffffffffffffffffffffffffffff1673ffffffffffffffffffffffffffffffffffffffff16815260200190815260200160002054610eb791906117aa565b90506004548111610efd576040517f08c379a0000000000000000000000000000000000000000000000000000000008152600401610ef4906116e6565b60405180910390fd5b6006548111610f0b57600080fd5b80600860003373ffffffffffffffffffffffffffffffffffffffff1673ffffffffffffffffffffffffffffffffffffffff1681526020019081526020016000208190555060086000600760009054906101000a900473ffffffffffffffffffffffffffffffffffffffff1673ffffffffffffffffffffffffffffffffffffffff1673ffffffffffffffffffffffffffffffffffffffff16815260200190815260200160002054811161103a5761102f60095482610fc891906117aa565b60086000600760009054906101000a900473ffffffffffffffffffffffffffffffffffffffff1673ffffffffffffffffffffffffffffffffffffffff1673ffffffffffffffffffffffffffffffffffffffff168152602001908152602001600020546112fa565b600681905550611189565b600060086000600760009054906101000a900473ffffffffffffffffffffffffffffffffffffffff1673ffffffffffffffffffffffffffffffffffffffff1673ffffffffffffffffffffffffffffffffffffffff1681526020019081526020016000205414156110c8576110bd816009546004546110b891906117aa565b6112fa565b600681905550611147565b6111408160095460086000600760009054906101000a900473ffffffffffffffffffffffffffffffffffffffff1673ffffffffffffffffffffffffffffffffffffffff1673ffffffffffffffffffffffffffffffffffffffff1681526020019081526020016000205461113b91906117aa565b6112fa565b6006819055505b33600760006101000a81548173ffffffffffffffffffffffffffffffffffffffff021916908373ffffffffffffffffffffffffffffffffffffffff1602179055505b600a547f912a1ef33d44a446b360fd04c5c618a6a9ad94c5fd9e9c098470883bdcd6d4a73383600654600760009054906101000a900473ffffffffffffffffffffffffffffffffffffffff16876040516111e7959493929190611581565b60405180910390a25050565b6000600160009054906101000a900473ffffffffffffffffffffffffffffffffffffffff16905090565b6000600860003373ffffffffffffffffffffffffffffffffffffffff1673ffffffffffffffffffffffffffffffffffffffff16815260200190815260200160002054905090565b6000600454905090565b6000600454600860003373ffffffffffffffffffffffffffffffffffffffff1673ffffffffffffffffffffffffffffffffffffffff1681526020019081526020016000205410156112c257600090506112c7565b600190505b90565b60065481565b6000600c600083815260200190815260200160002060009054906101000a900460ff169050919050565b600081831161130b5782905061130f565b8190505b92915050565b60008135905061132481611b22565b92915050565b60008135905061133981611b39565b92915050565b60006020828403121561135557611354611a13565b5b600061136384828501611315565b91505092915050565b60006020828403121561138257611381611a13565b5b60006113908482850161132a565b91505092915050565b600080604083850312156113b0576113af611a13565b5b60006113be8582860161132a565b92505060206113cf8582860161132a565b9150509250929050565b6113e28161192c565b82525050565b6113f1816118d1565b82525050565b611400816118bf565b82525050565b61140f816118e3565b82525050565b61141e8161193e565b82525050565b61142d81611950565b82525050565b6000611440600f83611799565b915061144b82611a18565b602082019050919050565b6000611463600783611799565b915061146e82611a41565b602082019050919050565b6000611486600e83611799565b915061149182611a6a565b602082019050919050565b60006114a9601083611799565b91506114b482611a93565b602082019050919050565b60006114cc601c83611799565b91506114d782611abc565b602082019050919050565b60006114ef600f83611799565b91506114fa82611ae5565b602082019050919050565b61150e81611922565b82525050565b600060208201905061152960008301846113f7565b92915050565b600060208201905061154460008301846113e8565b92915050565b600060608201905061155f60008301866113d9565b61156c60208301856113d9565b6115796040830184611505565b949350505050565b600060a08201905061159660008301886113f7565b6115a36020830187611505565b6115b06040830186611505565b6115bd60608301856113d9565b6115ca6080830184611505565b9695505050505050565b60006020820190506115e96000830184611406565b92915050565b60006020820190506116046000830184611415565b92915050565b600060208201905061161f6000830184611424565b92915050565b600060c08201905061163a6000830189611424565b6116476020830188611505565b6116546040830187611505565b6116616060830186611505565b61166e6080830185611505565b61167b60a0830184611505565b979650505050505050565b6000602082019050818103600083015261169f81611433565b9050919050565b600060208201905081810360008301526116bf81611479565b9050919050565b600060208201905081810360008301526116df8161149c565b9050919050565b600060208201905081810360008301526116ff816114bf565b9050919050565b6000602082019050818103600083015261171f816114e2565b9050919050565b600060208201905061173b6000830184611505565b92915050565b600060a0820190506117566000830187611505565b61176360208301866113d9565b61177060408301856113d9565b61177d6060830184611505565b818103608083015261178e81611456565b905095945050505050565b600082825260208201905092915050565b60006117b582611922565b91506117c083611922565b9250827fffffffffffffffffffffffffffffffffffffffffffffffffffffffffffffffff038211156117f5576117f4611986565b5b828201905092915050565b600061180b82611922565b915061181683611922565b925082611826576118256119b5565b5b828204905092915050565b600061183c82611922565b915061184783611922565b9250817fffffffffffffffffffffffffffffffffffffffffffffffffffffffffffffffff04831182151516156118805761187f611986565b5b828202905092915050565b600061189682611922565b91506118a183611922565b9250828210156118b4576118b3611986565b5b828203905092915050565b60006118ca82611902565b9050919050565b60006118dc82611902565b9050919050565b60008115159050919050565b60008190506118fd82611b0e565b919050565b600073ffffffffffffffffffffffffffffffffffffffff82169050919050565b6000819050919050565b600061193782611962565b9050919050565b600061194982611962565b9050919050565b600061195b826118ef565b9050919050565b600061196d82611974565b9050919050565b600061197f82611902565b9050919050565b7f4e487b7100000000000000000000000000000000000000000000000000000000600052601160045260246000fd5b7f4e487b7100000000000000000000000000000000000000000000000000000000600052601260045260246000fd5b7f4e487b7100000000000000000000000000000000000000000000000000000000600052602160045260246000fd5b600080fd5b7f6265666f7265456e64204572726f720000000000000000000000000000000000600082015250565b7f41637574696f6e00000000000000000000000000000000000000000000000000600082015250565b7f6e6f744f776e6572204572726f72000000000000000000000000000000000000600082015250565b7f61667465725374617274204572726f7200000000000000000000000000000000600082015250565b7f6e6f7420686967686572207468616e2074686520737461727442696400000000600082015250565b7f6f6e6c794f776e6572204572726f720000000000000000000000000000000000600082015250565b60048110611b1f57611b1e6119e4565b5b50565b611b2b816118bf565b8114611b3657600080fd5b50565b611b4281611922565b8114611b4d57600080fd5b5056fea26469706673582212200d7f6d0096d6fe6051024cb4e2fc2bf0cb1c64ed04396fdba1b7ed8c31f38f5c64736f6c63430008070033a2646970667358221220f2e7da53c83f456f5c194e3b1523404a0a54a216f5112fc2fee8afb3941e5d0864736f6c63430008070033",
  "immutableReferences": {},
  "source": "//SPDX-License-Identifier: MIT\r\npragma solidity ^0.8.0;\r\n\r\nimport \"./Auction.sol\";\r\nimport \"./NftDealContract.sol\";\r\n\r\n//    \r\ncontract AuctionCreator {\r\n  NftDealContract public nftDealContract;\r\n\r\n  mapping(uint => Auction) public auctionToId;\r\n  uint private endBlock;\r\n\r\n  struct AuctionNft {\r\n    address account;\r\n    uint8 tokenId;\r\n    uint endBlockNum;\r\n    uint endTime;\r\n    Auction auctionContract;\r\n  }\r\n  AuctionNft[] public auctionNfts;\r\n\r\n  constructor(address _nftDealContract) {\r\n    nftDealContract = NftDealContract(_nftDealContract);\r\n  }\r\n\r\n  //   \r\n  function createAuction(\r\n    uint8 _tokenId,\r\n    address _nftContractAddres,\r\n    uint _startBid,\r\n    uint _startTime,\r\n    uint _endTime\r\n  ) public {\r\n    require(!nftDealContract.onSale(_tokenId), \"this token is saling\");\r\n    Auction newAuction = new Auction(msg.sender, _nftContractAddres, _startBid, _startTime, _endTime, _tokenId);\r\n    auctionToId[_tokenId] = newAuction;\r\n\r\n    auctionNfts.push(AuctionNft(msg.sender, _tokenId, endBlock, _endTime, newAuction));\r\n  }\r\n\r\n  //     // \r\n  //   function cancelAuctionContract(uint _tokenId) external {\r\n  //     for (uint256 i = 0; i < auctionNfts.length; i++) {\r\n  //         if(auctionNfts[i].tokenId == _tokenId){\r\n  //             require(msg.sender == auctionNfts[i].account, \"you are not this contract owner\");\r\n  //             auctionNfts[i] = auctionNfts[auctionNfts.length - 1];\r\n  //             auctionNfts.pop();\r\n  //             break;\r\n  //         }\r\n  //     }\r\n  //     delete auctionToId[_tokenId];\r\n  //   }\r\n\r\n  function getAuctionAddress(uint _tokenId) public view returns (Auction) {\r\n    return auctionToId[_tokenId];\r\n  }\r\n\r\n  function getAuctioningNft() external view returns (AuctionNft[] memory) {\r\n    return auctionNfts;\r\n  }\r\n\r\n  function getCurrentBlock() external view returns (uint) {\r\n    return block.number;\r\n  }\r\n}\r\n/*\r\n ipfs://QmaGTbhBGBfdH6gXLoC4V5GScY1mtxac4Ye6ynA1Djw6mZ\r\n    0x4B20993Bc481177ec7E8f571ceCaE8A9e22C02db\r\n    91\r\n    0x7EF2e0048f5bAeDe046f6BF797943daF4ED8CB47\r\n    10000\r\n    30\r\n */\r\n",
  "sourcePath": "C:\\Users\\coco\\Desktop\\\\coco\\TEAM_PROJECT\\NFT_GAME\\contracts\\AuctionCreator.sol",
  "compiler": {
    "name": "solc",
    "version": "0.8.7+commit.e28d00a7.Emscripten.clang"
  },
  "schemaVersion": "3.4.4",
  "updatedAt": "2022-04-21T06:13:05.177Z",
  "networkType": "ethereum",
  "devdoc": {
    "kind": "dev",
    "methods": {},
    "version": 1
  },
  "userdoc": {
    "kind": "user",
    "methods": {},
    "version": 1
  }
}