{
  "contractName": "Auction",
  "abi": [
    {
      "inputs": [
        {
          "internalType": "address",
          "name": "_eoa",
          "type": "address"
        },
        {
          "internalType": "address",
          "name": "_nftContractAddres",
          "type": "address"
        },
        {
          "internalType": "uint256",
          "name": "_startBid",
          "type": "uint256"
        },
        {
          "internalType": "uint256",
          "name": "_startTime",
          "type": "uint256"
        },
        {
          "internalType": "uint256",
          "name": "_endTime",
          "type": "uint256"
        },
        {
          "internalType": "uint256",
          "name": "_tokenId",
          "type": "uint256"
        }
      ],
      "stateMutability": "nonpayable",
      "type": "constructor"
    },
    {
      "anonymous": false,
      "inputs": [
        {
          "indexed": true,
          "internalType": "uint256",
          "name": "tokenId",
          "type": "uint256"
        },
        {
          "indexed": false,
          "internalType": "address",
          "name": "from",
          "type": "address"
        },
        {
          "indexed": false,
          "internalType": "address",
          "name": "to",
          "type": "address"
        },
        {
          "indexed": false,
          "internalType": "uint256",
          "name": "time",
          "type": "uint256"
        },
        {
          "indexed": false,
          "internalType": "string",
          "name": "historyType",
          "type": "string"
        }
      ],
      "name": "NftHistory",
      "type": "event"
    },
    {
      "anonymous": false,
      "inputs": [
        {
          "indexed": true,
          "internalType": "uint256",
          "name": "id",
          "type": "uint256"
        },
        {
          "indexed": false,
          "internalType": "address",
          "name": "account",
          "type": "address"
        },
        {
          "indexed": false,
          "internalType": "uint256",
          "name": "currentBid",
          "type": "uint256"
        },
        {
          "indexed": false,
          "internalType": "uint256",
          "name": "highestBindingBid",
          "type": "uint256"
        },
        {
          "indexed": false,
          "internalType": "address",
          "name": "highestBidder",
          "type": "address"
        },
        {
          "indexed": false,
          "internalType": "uint256",
          "name": "timestamp",
          "type": "uint256"
        }
      ],
      "name": "PlaceBidEvent",
      "type": "event"
    },
    {
      "anonymous": false,
      "inputs": [
        {
          "indexed": false,
          "internalType": "enum Auction.State",
          "name": "step",
          "type": "uint8"
        }
      ],
      "name": "Step",
      "type": "event"
    },
    {
      "inputs": [],
      "name": "auctionState",
      "outputs": [
        {
          "internalType": "enum Auction.State",
          "name": "",
          "type": "uint8"
        }
      ],
      "stateMutability": "view",
      "type": "function"
    },
    {
      "inputs": [
        {
          "internalType": "address",
          "name": "",
          "type": "address"
        }
      ],
      "name": "bids",
      "outputs": [
        {
          "internalType": "uint256",
          "name": "",
          "type": "uint256"
        }
      ],
      "stateMutability": "view",
      "type": "function"
    },
    {
      "inputs": [],
      "name": "endTime",
      "outputs": [
        {
          "internalType": "uint256",
          "name": "",
          "type": "uint256"
        }
      ],
      "stateMutability": "view",
      "type": "function"
    },
    {
      "inputs": [],
      "name": "highestBidder",
      "outputs": [
        {
          "internalType": "address payable",
          "name": "",
          "type": "address"
        }
      ],
      "stateMutability": "view",
      "type": "function"
    },
    {
      "inputs": [],
      "name": "highestBindingBid",
      "outputs": [
        {
          "internalType": "uint256",
          "name": "",
          "type": "uint256"
        }
      ],
      "stateMutability": "view",
      "type": "function"
    },
    {
      "inputs": [],
      "name": "nftContractAddres",
      "outputs": [
        {
          "internalType": "contract NftContract",
          "name": "",
          "type": "address"
        }
      ],
      "stateMutability": "view",
      "type": "function"
    },
    {
      "inputs": [
        {
          "internalType": "uint256",
          "name": "",
          "type": "uint256"
        }
      ],
      "name": "onAuctioning",
      "outputs": [
        {
          "internalType": "bool",
          "name": "",
          "type": "bool"
        }
      ],
      "stateMutability": "view",
      "type": "function"
    },
    {
      "inputs": [],
      "name": "owner",
      "outputs": [
        {
          "internalType": "address payable",
          "name": "",
          "type": "address"
        }
      ],
      "stateMutability": "view",
      "type": "function"
    },
    {
      "inputs": [],
      "name": "ownerFinalized",
      "outputs": [
        {
          "internalType": "bool",
          "name": "",
          "type": "bool"
        }
      ],
      "stateMutability": "view",
      "type": "function"
    },
    {
      "inputs": [],
      "name": "startBid",
      "outputs": [
        {
          "internalType": "uint256",
          "name": "",
          "type": "uint256"
        }
      ],
      "stateMutability": "view",
      "type": "function"
    },
    {
      "inputs": [],
      "name": "startTime",
      "outputs": [
        {
          "internalType": "uint256",
          "name": "",
          "type": "uint256"
        }
      ],
      "stateMutability": "view",
      "type": "function"
    },
    {
      "inputs": [
        {
          "internalType": "uint256",
          "name": "_tokenId",
          "type": "uint256"
        }
      ],
      "name": "cancelAuction",
      "outputs": [],
      "stateMutability": "nonpayable",
      "type": "function"
    },
    {
      "inputs": [
        {
          "internalType": "uint256",
          "name": "_timeStamp",
          "type": "uint256"
        }
      ],
      "name": "placeBid",
      "outputs": [],
      "stateMutability": "payable",
      "type": "function"
    },
    {
      "inputs": [
        {
          "internalType": "uint256",
          "name": "_tokenId",
          "type": "uint256"
        },
        {
          "internalType": "uint256",
          "name": "_timestamp",
          "type": "uint256"
        }
      ],
      "name": "finalizeAuction",
      "outputs": [],
      "stateMutability": "nonpayable",
      "type": "function"
    },
    {
      "inputs": [
        {
          "internalType": "uint256",
          "name": "_tokenId",
          "type": "uint256"
        }
      ],
      "name": "isAuctionCheck",
      "outputs": [
        {
          "internalType": "bool",
          "name": "",
          "type": "bool"
        }
      ],
      "stateMutability": "view",
      "type": "function"
    },
    {
      "inputs": [],
      "name": "getInitInfo",
      "outputs": [
        {
          "internalType": "enum Auction.State",
          "name": "",
          "type": "uint8"
        },
        {
          "internalType": "uint256",
          "name": "",
          "type": "uint256"
        },
        {
          "internalType": "uint256",
          "name": "",
          "type": "uint256"
        },
        {
          "internalType": "uint256",
          "name": "",
          "type": "uint256"
        },
        {
          "internalType": "uint256",
          "name": "",
          "type": "uint256"
        },
        {
          "internalType": "uint256",
          "name": "",
          "type": "uint256"
        }
      ],
      "stateMutability": "view",
      "type": "function"
    },
    {
      "inputs": [],
      "name": "getEoa",
      "outputs": [
        {
          "internalType": "address",
          "name": "",
          "type": "address"
        }
      ],
      "stateMutability": "view",
      "type": "function"
    },
    {
      "inputs": [],
      "name": "getTimestamp",
      "outputs": [
        {
          "internalType": "uint256",
          "name": "",
          "type": "uint256"
        }
      ],
      "stateMutability": "view",
      "type": "function"
    },
    {
      "inputs": [],
      "name": "getStartBid",
      "outputs": [
        {
          "internalType": "uint256",
          "name": "",
          "type": "uint256"
        }
      ],
      "stateMutability": "view",
      "type": "function"
    },
    {
      "inputs": [],
      "name": "getBidAmount",
      "outputs": [
        {
          "internalType": "uint256",
          "name": "",
          "type": "uint256"
        }
      ],
      "stateMutability": "view",
      "type": "function"
    },
    {
      "inputs": [],
      "name": "isHighestBidder",
      "outputs": [
        {
          "internalType": "bool",
          "name": "",
          "type": "bool"
        }
      ],
      "stateMutability": "view",
      "type": "function"
    }
  ],
  "bytecode": "0x60806040526000600b60006101000a81548160ff0219169083151502179055503480156200002c57600080fd5b5060405162002073380380620020738339818101604052810190620000529190620002ea565b846000806101000a81548173ffffffffffffffffffffffffffffffffffffffff021916908373ffffffffffffffffffffffffffffffffffffffff16021790555060008060009054906101000a900473ffffffffffffffffffffffffffffffffffffffff1673ffffffffffffffffffffffffffffffffffffffff16636352211e836040518263ffffffff1660e01b8152600401620000f09190620003e0565b60206040518083038186803b1580156200010957600080fd5b505afa1580156200011e573d6000803e3d6000fd5b505050506040513d601f19601f82011682018060405250810190620001449190620002b8565b90508073ffffffffffffffffffffffffffffffffffffffff168773ffffffffffffffffffffffffffffffffffffffff1614620001b7576040517f08c379a0000000000000000000000000000000000000000000000000000000008152600401620001ae90620003be565b60405180910390fd5b86600160006101000a81548173ffffffffffffffffffffffffffffffffffffffff021916908373ffffffffffffffffffffffffffffffffffffffff1602179055506001600560006101000a81548160ff021916908360038111156200022157620002206200044c565b5b021790555081600a8190555084600481905550836002819055508260038190555067016345785d8a00006009819055506001600c600084815260200190815260200160002060006101000a81548160ff02191690831515021790555050505050505050620004dd565b6000815190506200029b81620004a9565b92915050565b600081519050620002b281620004c3565b92915050565b600060208284031215620002d157620002d06200047b565b5b6000620002e1848285016200028a565b91505092915050565b60008060008060008060c087890312156200030a57620003096200047b565b5b60006200031a89828a016200028a565b96505060206200032d89828a016200028a565b95505060406200034089828a01620002a1565b94505060606200035389828a01620002a1565b93505060806200036689828a01620002a1565b92505060a06200037989828a01620002a1565b9150509295509295509295565b600062000395601883620003fd565b9150620003a28262000480565b602082019050919050565b620003b88162000442565b82525050565b60006020820190508181036000830152620003d98162000386565b9050919050565b6000602082019050620003f76000830184620003ad565b92915050565b600082825260208201905092915050565b60006200041b8262000422565b9050919050565b600073ffffffffffffffffffffffffffffffffffffffff82169050919050565b6000819050919050565b7f4e487b7100000000000000000000000000000000000000000000000000000000600052602160045260246000fd5b600080fd5b7f796f7520617265206e6f7420746f6b656e206f776e6572210000000000000000600082015250565b620004b4816200040e565b8114620004c057600080fd5b50565b620004ce8162000442565b8114620004da57600080fd5b50565b611b8680620004ed6000396000f3fe60806040526004361061012a5760003560e01c80638b7b097f116100ab57806399ae86381161006f57806399ae8638146103ca578063eb01d83b146103f5578063ed671e3714610420578063ee28a6851461044b578063f5b56c5614610476578063f63a0888146104a15761012a565b80638b7b097f146103045780638da5cb5b1461032f57806391f901571461035a57806396b5a755146103855780639979ef45146103ae5761012a565b806371cfa409116100f257806371cfa4091461022857806377c5a4c61461025357806378e979251461027e5780637d443e57146102a95780637fb45099146102d95761012a565b8063042d0f4e1461012f578063115a93c81461016c578063188ec356146101955780633197cbb6146101c057806362ea82db146101eb575b600080fd5b34801561013b57600080fd5b506101566004803603810190610151919061136c565b6104de565b60405161016391906115d4565b60405180910390f35b34801561017857600080fd5b50610193600480360381019061018e9190611399565b6104fe565b005b3480156101a157600080fd5b506101aa610ade565b6040516101b79190611726565b60405180910390f35b3480156101cc57600080fd5b506101d5610ae6565b6040516101e29190611726565b60405180910390f35b3480156101f757600080fd5b50610212600480360381019061020d919061133f565b610aec565b60405161021f9190611726565b60405180910390f35b34801561023457600080fd5b5061023d610b04565b60405161024a91906115ef565b60405180910390f35b34801561025f57600080fd5b50610268610b28565b6040516102759190611726565b60405180910390f35b34801561028a57600080fd5b50610293610b2e565b6040516102a09190611726565b60405180910390f35b3480156102b557600080fd5b506102be610b34565b6040516102d096959493929190611625565b60405180910390f35b3480156102e557600080fd5b506102ee610b6e565b6040516102fb919061160a565b60405180910390f35b34801561031057600080fd5b50610319610b81565b60405161032691906115d4565b60405180910390f35b34801561033b57600080fd5b50610344610b94565b604051610351919061152f565b60405180910390f35b34801561036657600080fd5b5061036f610bba565b60405161037c919061152f565b60405180910390f35b34801561039157600080fd5b506103ac60048036038101906103a7919061136c565b610be0565b005b6103c860048036038101906103c3919061136c565b610d0f565b005b3480156103d657600080fd5b506103df6111f3565b6040516103ec9190611514565b60405180910390f35b34801561040157600080fd5b5061040a61121d565b6040516104179190611726565b60405180910390f35b34801561042c57600080fd5b50610435611264565b6040516104429190611726565b60405180910390f35b34801561045757600080fd5b5061046061126e565b60405161046d91906115d4565b60405180910390f35b34801561048257600080fd5b5061048b6112ca565b6040516104989190611726565b60405180910390f35b3480156104ad57600080fd5b506104c860048036038101906104c3919061136c565b6112d0565b6040516104d591906115d4565b60405180910390f35b600c6020528060005260406000206000915054906101000a900460ff1681565b600380811115610511576105106119e4565b5b600560009054906101000a900460ff166003811115610533576105326119e4565b5b1480610540575060035442115b61054957600080fd5b600160009054906101000a900473ffffffffffffffffffffffffffffffffffffffff1673ffffffffffffffffffffffffffffffffffffffff163373ffffffffffffffffffffffffffffffffffffffff1614806105e457506000600860003373ffffffffffffffffffffffffffffffffffffffff1673ffffffffffffffffffffffffffffffffffffffff16815260200190815260200160002054115b6105ed57600080fd5b600080600380811115610603576106026119e4565b5b600560009054906101000a900460ff166003811115610625576106246119e4565b5b141561067557339150600860003373ffffffffffffffffffffffffffffffffffffffff1673ffffffffffffffffffffffffffffffffffffffff168152602001908152602001600020549050610a20565b600160009054906101000a900473ffffffffffffffffffffffffffffffffffffffff1673ffffffffffffffffffffffffffffffffffffffff163373ffffffffffffffffffffffffffffffffffffffff161480156106e5575060001515600b60009054906101000a900460ff161515145b1561075f57600160009054906101000a900473ffffffffffffffffffffffffffffffffffffffff1691506000600560646006546107229190611800565b61072c9190611831565b90508060065461073c919061188b565b91506001600b60006101000a81548160ff02191690831515021790555050610a1f565b600760009054906101000a900473ffffffffffffffffffffffffffffffffffffffff1673ffffffffffffffffffffffffffffffffffffffff163373ffffffffffffffffffffffffffffffffffffffff1614156109d857600760009054906101000a900473ffffffffffffffffffffffffffffffffffffffff16915060065460086000600760009054906101000a900473ffffffffffffffffffffffffffffffffffffffff1673ffffffffffffffffffffffffffffffffffffffff1673ffffffffffffffffffffffffffffffffffffffff16815260200190815260200160002054610849919061188b565b905060008054906101000a900473ffffffffffffffffffffffffffffffffffffffff1673ffffffffffffffffffffffffffffffffffffffff166342842e0e600160009054906101000a900473ffffffffffffffffffffffffffffffffffffffff16600760009054906101000a900473ffffffffffffffffffffffffffffffffffffffff16600a546040518463ffffffff1660e01b81526004016108ee9392919061154a565b600060405180830381600087803b15801561090857600080fd5b505af115801561091c573d6000803e3d6000fd5b5050505060008054906101000a900473ffffffffffffffffffffffffffffffffffffffff1673ffffffffffffffffffffffffffffffffffffffff16635654360e85600160009054906101000a900473ffffffffffffffffffffffffffffffffffffffff1685876040518563ffffffff1660e01b81526004016109a19493929190611741565b600060405180830381600087803b1580156109bb57600080fd5b505af11580156109cf573d6000803e3d6000fd5b50505050610a1e565b339150600860003373ffffffffffffffffffffffffffffffffffffffff1673ffffffffffffffffffffffffffffffffffffffff1681526020019081526020016000205490505b5b5b6000600860008473ffffffffffffffffffffffffffffffffffffffff1673ffffffffffffffffffffffffffffffffffffffff168152602001908152602001600020819055508173ffffffffffffffffffffffffffffffffffffffff166108fc829081150290604051600060405180830381858888f19350505050158015610aab573d6000803e3d6000fd5b506000600c600086815260200190815260200160002060006101000a81548160ff02191690831515021790555050505050565b600042905090565b60035481565b60086020528060005260406000206000915090505481565b60008054906101000a900473ffffffffffffffffffffffffffffffffffffffff1681565b60045481565b60025481565b600080600080600080600560009054906101000a900460ff1660045460095460025443600354955095509550955095509550909192939495565b600560009054906101000a900460ff1681565b600b60009054906101000a900460ff1681565b600160009054906101000a900473ffffffffffffffffffffffffffffffffffffffff1681565b600760009054906101000a900473ffffffffffffffffffffffffffffffffffffffff1681565b600354421115610c25576040517f08c379a0000000000000000000000000000000000000000000000000000000008152600401610c1c90611686565b60405180910390fd5b600160009054906101000a900473ffffffffffffffffffffffffffffffffffffffff1673ffffffffffffffffffffffffffffffffffffffff163373ffffffffffffffffffffffffffffffffffffffff1614610cb5576040517f08c379a0000000000000000000000000000000000000000000000000000000008152600401610cac90611706565b60405180910390fd5b6003600560006101000a81548160ff02191690836003811115610cdb57610cda6119e4565b5b02179055506000600c600083815260200190815260200160002060006101000a81548160ff02191690831515021790555050565b600160009054906101000a900473ffffffffffffffffffffffffffffffffffffffff1673ffffffffffffffffffffffffffffffffffffffff163373ffffffffffffffffffffffffffffffffffffffff161415610da0576040517f08c379a0000000000000000000000000000000000000000000000000000000008152600401610d97906116a6565b60405180910390fd5b600254421015610de5576040517f08c379a0000000000000000000000000000000000000000000000000000000008152600401610ddc906116c6565b60405180910390fd5b600354421115610e2a576040517f08c379a0000000000000000000000000000000000000000000000000000000008152600401610e2190611686565b60405180910390fd5b60016003811115610e3e57610e3d6119e4565b5b600560009054906101000a900460ff166003811115610e6057610e5f6119e4565b5b14610e6a57600080fd5b600034600860003373ffffffffffffffffffffffffffffffffffffffff1673ffffffffffffffffffffffffffffffffffffffff16815260200190815260200160002054610eb791906117aa565b90506004548111610efd576040517f08c379a0000000000000000000000000000000000000000000000000000000008152600401610ef4906116e6565b60405180910390fd5b6006548111610f0b57600080fd5b80600860003373ffffffffffffffffffffffffffffffffffffffff1673ffffffffffffffffffffffffffffffffffffffff1681526020019081526020016000208190555060086000600760009054906101000a900473ffffffffffffffffffffffffffffffffffffffff1673ffffffffffffffffffffffffffffffffffffffff1673ffffffffffffffffffffffffffffffffffffffff16815260200190815260200160002054811161103a5761102f60095482610fc891906117aa565b60086000600760009054906101000a900473ffffffffffffffffffffffffffffffffffffffff1673ffffffffffffffffffffffffffffffffffffffff1673ffffffffffffffffffffffffffffffffffffffff168152602001908152602001600020546112fa565b600681905550611189565b600060086000600760009054906101000a900473ffffffffffffffffffffffffffffffffffffffff1673ffffffffffffffffffffffffffffffffffffffff1673ffffffffffffffffffffffffffffffffffffffff1681526020019081526020016000205414156110c8576110bd816009546004546110b891906117aa565b6112fa565b600681905550611147565b6111408160095460086000600760009054906101000a900473ffffffffffffffffffffffffffffffffffffffff1673ffffffffffffffffffffffffffffffffffffffff1673ffffffffffffffffffffffffffffffffffffffff1681526020019081526020016000205461113b91906117aa565b6112fa565b6006819055505b33600760006101000a81548173ffffffffffffffffffffffffffffffffffffffff021916908373ffffffffffffffffffffffffffffffffffffffff1602179055505b600a547f912a1ef33d44a446b360fd04c5c618a6a9ad94c5fd9e9c098470883bdcd6d4a73383600654600760009054906101000a900473ffffffffffffffffffffffffffffffffffffffff16876040516111e7959493929190611581565b60405180910390a25050565b6000600160009054906101000a900473ffffffffffffffffffffffffffffffffffffffff16905090565b6000600860003373ffffffffffffffffffffffffffffffffffffffff1673ffffffffffffffffffffffffffffffffffffffff16815260200190815260200160002054905090565b6000600454905090565b6000600454600860003373ffffffffffffffffffffffffffffffffffffffff1673ffffffffffffffffffffffffffffffffffffffff1681526020019081526020016000205410156112c257600090506112c7565b600190505b90565b60065481565b6000600c600083815260200190815260200160002060009054906101000a900460ff169050919050565b600081831161130b5782905061130f565b8190505b92915050565b60008135905061132481611b22565b92915050565b60008135905061133981611b39565b92915050565b60006020828403121561135557611354611a13565b5b600061136384828501611315565b91505092915050565b60006020828403121561138257611381611a13565b5b60006113908482850161132a565b91505092915050565b600080604083850312156113b0576113af611a13565b5b60006113be8582860161132a565b92505060206113cf8582860161132a565b9150509250929050565b6113e28161192c565b82525050565b6113f1816118d1565b82525050565b611400816118bf565b82525050565b61140f816118e3565b82525050565b61141e8161193e565b82525050565b61142d81611950565b82525050565b6000611440600f83611799565b915061144b82611a18565b602082019050919050565b6000611463600783611799565b915061146e82611a41565b602082019050919050565b6000611486600e83611799565b915061149182611a6a565b602082019050919050565b60006114a9601083611799565b91506114b482611a93565b602082019050919050565b60006114cc601c83611799565b91506114d782611abc565b602082019050919050565b60006114ef600f83611799565b91506114fa82611ae5565b602082019050919050565b61150e81611922565b82525050565b600060208201905061152960008301846113f7565b92915050565b600060208201905061154460008301846113e8565b92915050565b600060608201905061155f60008301866113d9565b61156c60208301856113d9565b6115796040830184611505565b949350505050565b600060a08201905061159660008301886113f7565b6115a36020830187611505565b6115b06040830186611505565b6115bd60608301856113d9565b6115ca6080830184611505565b9695505050505050565b60006020820190506115e96000830184611406565b92915050565b60006020820190506116046000830184611415565b92915050565b600060208201905061161f6000830184611424565b92915050565b600060c08201905061163a6000830189611424565b6116476020830188611505565b6116546040830187611505565b6116616060830186611505565b61166e6080830185611505565b61167b60a0830184611505565b979650505050505050565b6000602082019050818103600083015261169f81611433565b9050919050565b600060208201905081810360008301526116bf81611479565b9050919050565b600060208201905081810360008301526116df8161149c565b9050919050565b600060208201905081810360008301526116ff816114bf565b9050919050565b6000602082019050818103600083015261171f816114e2565b9050919050565b600060208201905061173b6000830184611505565b92915050565b600060a0820190506117566000830187611505565b61176360208301866113d9565b61177060408301856113d9565b61177d6060830184611505565b818103608083015261178e81611456565b905095945050505050565b600082825260208201905092915050565b60006117b582611922565b91506117c083611922565b9250827fffffffffffffffffffffffffffffffffffffffffffffffffffffffffffffffff038211156117f5576117f4611986565b5b828201905092915050565b600061180b82611922565b915061181683611922565b925082611826576118256119b5565b5b828204905092915050565b600061183c82611922565b915061184783611922565b9250817fffffffffffffffffffffffffffffffffffffffffffffffffffffffffffffffff04831182151516156118805761187f611986565b5b828202905092915050565b600061189682611922565b91506118a183611922565b9250828210156118b4576118b3611986565b5b828203905092915050565b60006118ca82611902565b9050919050565b60006118dc82611902565b9050919050565b60008115159050919050565b60008190506118fd82611b0e565b919050565b600073ffffffffffffffffffffffffffffffffffffffff82169050919050565b6000819050919050565b600061193782611962565b9050919050565b600061194982611962565b9050919050565b600061195b826118ef565b9050919050565b600061196d82611974565b9050919050565b600061197f82611902565b9050919050565b7f4e487b7100000000000000000000000000000000000000000000000000000000600052601160045260246000fd5b7f4e487b7100000000000000000000000000000000000000000000000000000000600052601260045260246000fd5b7f4e487b7100000000000000000000000000000000000000000000000000000000600052602160045260246000fd5b600080fd5b7f6265666f7265456e64204572726f720000000000000000000000000000000000600082015250565b7f41637574696f6e00000000000000000000000000000000000000000000000000600082015250565b7f6e6f744f776e6572204572726f72000000000000000000000000000000000000600082015250565b7f61667465725374617274204572726f7200000000000000000000000000000000600082015250565b7f6e6f7420686967686572207468616e2074686520737461727442696400000000600082015250565b7f6f6e6c794f776e6572204572726f720000000000000000000000000000000000600082015250565b60048110611b1f57611b1e6119e4565b5b50565b611b2b816118bf565b8114611b3657600080fd5b50565b611b4281611922565b8114611b4d57600080fd5b5056fea26469706673582212200d7f6d0096d6fe6051024cb4e2fc2bf0cb1c64ed04396fdba1b7ed8c31f38f5c64736f6c63430008070033",
  "immutableReferences": {},
  "source": "//SPDX-License-Identifier: MIT\r\npragma solidity ^0.8.0;\r\n\r\nimport \"./NftContract.sol\";\r\n\r\ncontract Auction {\r\n  using Strings for uint256;\r\n\r\n  event NftHistory(uint indexed tokenId, address from, address to, uint time, string historyType);\r\n\r\n  NftContract public nftContractAddres;\r\n  address payable public owner;\r\n  uint public startTime; //    (block.number)\r\n  uint public endTime; //      15(15sec)   .\r\n  uint public startBid; //  \r\n\r\n  enum State {\r\n    Started,\r\n    Running,\r\n    Ended,\r\n    Canceled\r\n  }\r\n  State public auctionState;\r\n\r\n  uint public highestBindingBid; //  \r\n  address payable public highestBidder; //  \r\n  mapping(address => uint) public bids;\r\n  uint bidIncrement; //  \r\n  uint id;\r\n\r\n  //       BindingBid   \r\n  bool public ownerFinalized = false;\r\n  mapping(uint256 => bool) public onAuctioning;\r\n\r\n  event PlaceBidEvent(\r\n    uint indexed id,\r\n    address account,\r\n    uint currentBid,\r\n    uint highestBindingBid,\r\n    address highestBidder,\r\n    uint timestamp\r\n  );\r\n  event Step(State step);\r\n\r\n  constructor(\r\n    address _eoa,\r\n    address _nftContractAddres,\r\n    uint _startBid,\r\n    uint _startTime,\r\n    uint _endTime,\r\n    uint _tokenId\r\n  ) {\r\n    nftContractAddres = NftContract(_nftContractAddres);\r\n    address nftTokenOwner = nftContractAddres.ownerOf(_tokenId);\r\n    require(_eoa == nftTokenOwner, \"you are not token owner!\");\r\n\r\n    owner = payable(_eoa);\r\n    auctionState = State.Running;\r\n    id = _tokenId;\r\n    startBid = _startBid;\r\n    startTime = _startTime;\r\n    endTime = _endTime;\r\n\r\n    bidIncrement = 1 * 10**17; // 1*10**17 = 0.1 eth\r\n\r\n    onAuctioning[_tokenId] = true;\r\n  }\r\n\r\n  modifier notOwner() {\r\n    require(msg.sender != owner, \"notOwner Error\");\r\n    _;\r\n  }\r\n\r\n  modifier onlyOwner() {\r\n    require(msg.sender == owner, \"onlyOwner Error\");\r\n    _;\r\n  }\r\n\r\n  modifier afterStart() {\r\n    require(block.timestamp >= startTime, \"afterStart Error\");\r\n    _;\r\n  }\r\n\r\n  modifier beforeEnd() {\r\n    require(block.timestamp <= endTime, \"beforeEnd Error\");\r\n    _;\r\n  }\r\n\r\n  function min(uint a, uint b) internal pure returns (uint) {\r\n    if (a <= b) {\r\n      return a;\r\n    } else {\r\n      return b;\r\n    }\r\n  }\r\n\r\n  //       \r\n  function cancelAuction(uint _tokenId) public beforeEnd onlyOwner {\r\n    auctionState = State.Canceled;\r\n    onAuctioning[_tokenId] = false;\r\n  }\r\n\r\n  //   \r\n  //      >>         \r\n  // \r\n  function placeBid(uint _timeStamp) public payable notOwner afterStart beforeEnd {\r\n    require(auctionState == State.Running);\r\n    //    \r\n    // require(msg.value > 0.0001 ether);\r\n\r\n    uint currentBid = bids[msg.sender] + msg.value;\r\n    require(currentBid > startBid, \"not higher than the startBid\");\r\n\r\n    // currentBid highBindingBid  \r\n    require(currentBid > highestBindingBid);\r\n\r\n    //   \r\n    bids[msg.sender] = currentBid;\r\n\r\n    if (currentBid <= bids[highestBidder]) {\r\n      //       .\r\n      highestBindingBid = min(currentBid + bidIncrement, bids[highestBidder]);\r\n    } else {\r\n      //   \r\n      if (bids[highestBidder] == 0) {\r\n        highestBindingBid = min(currentBid, startBid + bidIncrement);\r\n      } else {\r\n        highestBindingBid = min(currentBid, bids[highestBidder] + bidIncrement);\r\n      }\r\n      highestBidder = payable(msg.sender);\r\n    }\r\n\r\n    emit PlaceBidEvent(id, msg.sender, currentBid, highestBindingBid, highestBidder, _timeStamp);\r\n  }\r\n\r\n  //     \r\n  function finalizeAuction(uint _tokenId, uint _timestamp) public {\r\n    require(auctionState == State.Canceled || block.timestamp > endTime);\r\n    require(msg.sender == owner || bids[msg.sender] > 0);\r\n\r\n    address payable recipient;\r\n    uint value;\r\n\r\n    if (auctionState == State.Canceled) {\r\n      // ,  \r\n      recipient = payable(msg.sender);\r\n      value = bids[msg.sender];\r\n    } else {\r\n      //  ,  \r\n      if (msg.sender == owner && ownerFinalized == false) {\r\n        //  .\r\n        recipient = owner;\r\n        uint fee = (highestBindingBid / 100) * 5; // 5%\r\n        value = highestBindingBid - fee;\r\n        ownerFinalized = true;\r\n      } else {\r\n        //    .\r\n        if (msg.sender == highestBidder) {\r\n          recipient = highestBidder;\r\n          value = bids[highestBidder] - highestBindingBid;\r\n          nftContractAddres.safeTransferFrom(owner, highestBidder, id);\r\n          nftContractAddres.nftEventTrigger(_tokenId, owner, recipient, _timestamp, \"Acution\");\r\n        } else {\r\n          //    .\r\n          recipient = payable(msg.sender);\r\n          value = bids[msg.sender];\r\n        }\r\n      }\r\n    }\r\n    bids[recipient] = 0;\r\n    recipient.transfer(value);\r\n    onAuctioning[_tokenId] = false;\r\n\r\n    // nft history  \r\n  }\r\n\r\n  function isAuctionCheck(uint _tokenId) public view returns (bool) {\r\n    return onAuctioning[_tokenId];\r\n  }\r\n\r\n  function getInitInfo()\r\n    external\r\n    view\r\n    returns (\r\n      State,\r\n      uint,\r\n      uint,\r\n      uint,\r\n      uint,\r\n      uint\r\n    )\r\n  {\r\n    return (auctionState, startBid, bidIncrement, startTime, block.number, endTime);\r\n  }\r\n\r\n  function getEoa() external view returns (address) {\r\n    return owner;\r\n  }\r\n\r\n  function getTimestamp() external view returns (uint) {\r\n    return block.timestamp;\r\n  }\r\n\r\n  function getStartBid() external view returns (uint) {\r\n    return startBid;\r\n  }\r\n\r\n  function getBidAmount() external view returns (uint) {\r\n    return bids[msg.sender];\r\n  }\r\n\r\n  function isHighestBidder() external view returns (bool) {\r\n    if (bids[msg.sender] < startBid) {\r\n      return false;\r\n    } else {\r\n      return true;\r\n    }\r\n  }\r\n}\r\n\r\n/*\r\n      \r\n     setOnAuction(false)  \r\n    auctionCreatorContract  array \r\n */\r\n",
  "sourcePath": "C:\\Users\\coco\\Desktop\\\\coco\\TEAM_PROJECT\\NFT_GAME\\contracts\\Auction.sol",
  "compiler": {
    "name": "solc",
    "version": "0.8.7+commit.e28d00a7.Emscripten.clang"
  },
  "schemaVersion": "3.4.4",
  "updatedAt": "2022-04-21T06:12:53.779Z",
  "devdoc": {
    "kind": "dev",
    "methods": {},
    "version": 1
  },
  "userdoc": {
    "kind": "user",
    "methods": {},
    "version": 1
  }
}