{
  "contractName": "Claim_20",
  "abi": [
    {
      "inputs": [
        {
          "internalType": "contract GameToken",
          "name": "_token",
          "type": "address"
        }
      ],
      "stateMutability": "nonpayable",
      "type": "constructor"
    },
    {
      "anonymous": false,
      "inputs": [
        {
          "indexed": false,
          "internalType": "string",
          "name": "rewardType",
          "type": "string"
        },
        {
          "indexed": true,
          "internalType": "address",
          "name": "account",
          "type": "address"
        },
        {
          "indexed": false,
          "internalType": "uint256",
          "name": "amount",
          "type": "uint256"
        },
        {
          "indexed": false,
          "internalType": "uint256",
          "name": "time",
          "type": "uint256"
        }
      ],
      "name": "ClaimEvent",
      "type": "event"
    },
    {
      "anonymous": false,
      "inputs": [
        {
          "indexed": true,
          "internalType": "address",
          "name": "previousOwner",
          "type": "address"
        },
        {
          "indexed": true,
          "internalType": "address",
          "name": "newOwner",
          "type": "address"
        }
      ],
      "name": "OwnershipTransferred",
      "type": "event"
    },
    {
      "inputs": [],
      "name": "admin",
      "outputs": [
        {
          "internalType": "address",
          "name": "",
          "type": "address"
        }
      ],
      "stateMutability": "view",
      "type": "function",
      "constant": true
    },
    {
      "inputs": [],
      "name": "gametoken",
      "outputs": [
        {
          "internalType": "contract GameToken",
          "name": "",
          "type": "address"
        }
      ],
      "stateMutability": "view",
      "type": "function",
      "constant": true
    },
    {
      "inputs": [],
      "name": "owner",
      "outputs": [
        {
          "internalType": "address",
          "name": "",
          "type": "address"
        }
      ],
      "stateMutability": "view",
      "type": "function",
      "constant": true
    },
    {
      "inputs": [],
      "name": "renounceOwnership",
      "outputs": [],
      "stateMutability": "nonpayable",
      "type": "function"
    },
    {
      "inputs": [
        {
          "internalType": "address",
          "name": "newOwner",
          "type": "address"
        }
      ],
      "name": "transferOwnership",
      "outputs": [],
      "stateMutability": "nonpayable",
      "type": "function"
    },
    {
      "inputs": [
        {
          "components": [
            {
              "internalType": "address",
              "name": "account",
              "type": "address"
            },
            {
              "internalType": "uint8",
              "name": "count",
              "type": "uint8"
            },
            {
              "internalType": "bool",
              "name": "isApproved",
              "type": "bool"
            },
            {
              "internalType": "bool",
              "name": "isRewarded",
              "type": "bool"
            }
          ],
          "internalType": "struct Claim_20.DailyAchiever[]",
          "name": "result",
          "type": "tuple[]"
        }
      ],
      "name": "approveClaim_mission",
      "outputs": [],
      "stateMutability": "nonpayable",
      "type": "function"
    },
    {
      "inputs": [
        {
          "internalType": "address",
          "name": "_account",
          "type": "address"
        },
        {
          "internalType": "uint256",
          "name": "_amount",
          "type": "uint256"
        },
        {
          "internalType": "uint256",
          "name": "_currentTime",
          "type": "uint256"
        }
      ],
      "name": "claim_mission",
      "outputs": [],
      "stateMutability": "nonpayable",
      "type": "function"
    },
    {
      "inputs": [
        {
          "components": [
            {
              "internalType": "address",
              "name": "account",
              "type": "address"
            },
            {
              "internalType": "uint8",
              "name": "ranking",
              "type": "uint8"
            },
            {
              "internalType": "string",
              "name": "gameTitle",
              "type": "string"
            },
            {
              "internalType": "bool",
              "name": "isApproved",
              "type": "bool"
            },
            {
              "internalType": "bool",
              "name": "isRewarded",
              "type": "bool"
            }
          ],
          "internalType": "struct Claim_20.WeeklyRank[]",
          "name": "result",
          "type": "tuple[]"
        }
      ],
      "name": "approveClaim_rank",
      "outputs": [],
      "stateMutability": "nonpayable",
      "type": "function"
    },
    {
      "inputs": [
        {
          "components": [
            {
              "internalType": "address",
              "name": "account",
              "type": "address"
            },
            {
              "internalType": "uint8",
              "name": "ranking",
              "type": "uint8"
            },
            {
              "internalType": "string",
              "name": "gameTitle",
              "type": "string"
            },
            {
              "internalType": "bool",
              "name": "isApproved",
              "type": "bool"
            },
            {
              "internalType": "bool",
              "name": "isRewarded",
              "type": "bool"
            }
          ],
          "internalType": "struct Claim_20.WeeklyRank[]",
          "name": "result",
          "type": "tuple[]"
        },
        {
          "internalType": "uint256",
          "name": "currentTime",
          "type": "uint256"
        }
      ],
      "name": "claim_rank",
      "outputs": [],
      "stateMutability": "nonpayable",
      "type": "function"
    }
  ],
  "bytecode": "0x60806040523480156200001157600080fd5b5060405162002290380380620022908339818101604052810190620000379190620001c3565b620000576200004b620000e060201b60201c565b620000e860201b60201c565b33600260006101000a81548173ffffffffffffffffffffffffffffffffffffffff021916908373ffffffffffffffffffffffffffffffffffffffff16021790555080600160006101000a81548173ffffffffffffffffffffffffffffffffffffffff021916908373ffffffffffffffffffffffffffffffffffffffff160217905550506200025c565b600033905090565b60008060009054906101000a900473ffffffffffffffffffffffffffffffffffffffff169050816000806101000a81548173ffffffffffffffffffffffffffffffffffffffff021916908373ffffffffffffffffffffffffffffffffffffffff1602179055508173ffffffffffffffffffffffffffffffffffffffff168173ffffffffffffffffffffffffffffffffffffffff167f8be0079c531659141344cd1fd0a4f28419497f9722a3daafe3b4186f6b6457e060405160405180910390a35050565b600081519050620001bd8162000242565b92915050565b600060208284031215620001dc57620001db6200023d565b5b6000620001ec84828501620001ac565b91505092915050565b600062000202826200021d565b9050919050565b60006200021682620001f5565b9050919050565b600073ffffffffffffffffffffffffffffffffffffffff82169050919050565b600080fd5b6200024d8162000209565b81146200025957600080fd5b50565b612024806200026c6000396000f3fe608060405234801561001057600080fd5b50600436106100935760003560e01c80638da5cb5b116100665780638da5cb5b146100f6578063a1aee50e14610114578063ddac7b1c14610132578063f2fde38b1461014e578063f851a4401461016a57610093565b80630a358bc9146100985780630fe7cf5b146100b4578063715018a6146100d05780637b0cf1ee146100da575b600080fd5b6100b260048036038101906100ad9190611633565b610188565b005b6100ce60048036038101906100c99190611597565b6105af565b005b6100d86106b6565b005b6100f460048036038101906100ef919061167c565b61073e565b005b6100fe610d4a565b60405161010b91906118cc565b60405180910390f35b61011c610d73565b6040516101299190611999565b60405180910390f35b61014c600480360381019061014791906115ea565b610d99565b005b6101686004803603810190610163919061156a565b611018565b005b610172611110565b60405161017f91906118cc565b60405180910390f35b610190611136565b73ffffffffffffffffffffffffffffffffffffffff166101ae610d4a565b73ffffffffffffffffffffffffffffffffffffffff1614610204576040517f08c379a00000000000000000000000000000000000000000000000000000000081526004016101fb90611a54565b60405180910390fd5b60005b81518110156105ab576000151582828151811061022757610226611d40565b5b602002602001015160600151151514610275576040517f08c379a000000000000000000000000000000000000000000000000000000000815260040161026c906119b4565b60405180910390fd5b600182828151811061028a57610289611d40565b5b60200260200101516020015160ff16141561037357600160009054906101000a900473ffffffffffffffffffffffffffffffffffffffff1673ffffffffffffffffffffffffffffffffffffffff1663395093518383815181106102f0576102ef611d40565b5b60200260200101516000015160326040518363ffffffff1660e01b815260040161031b929190611947565b602060405180830381600087803b15801561033557600080fd5b505af1158015610349573d6000803e3d6000fd5b505050506040513d601f19601f8201168201806040525081019061036d91906116d8565b5061056d565b600282828151811061038857610387611d40565b5b60200260200101516020015160ff16141561047157600160009054906101000a900473ffffffffffffffffffffffffffffffffffffffff1673ffffffffffffffffffffffffffffffffffffffff1663395093518383815181106103ee576103ed611d40565b5b602002602001015160000151601e6040518363ffffffff1660e01b8152600401610419929190611947565b602060405180830381600087803b15801561043357600080fd5b505af1158015610447573d6000803e3d6000fd5b505050506040513d601f19601f8201168201806040525081019061046b91906116d8565b5061056c565b600382828151811061048657610485611d40565b5b60200260200101516020015160ff16141561056b57600160009054906101000a900473ffffffffffffffffffffffffffffffffffffffff1673ffffffffffffffffffffffffffffffffffffffff1663395093518383815181106104ec576104eb611d40565b5b602002602001015160000151600a6040518363ffffffff1660e01b8152600401610517929190611947565b602060405180830381600087803b15801561053157600080fd5b505af1158015610545573d6000803e3d6000fd5b505050506040513d601f19601f8201168201806040525081019061056991906116d8565b505b5b5b600182828151811061058257610581611d40565b5b6020026020010151606001901515908115158152505080806105a390611cc8565b915050610207565b5050565b600160009054906101000a900473ffffffffffffffffffffffffffffffffffffffff1673ffffffffffffffffffffffffffffffffffffffff166323b872dd3085856040518463ffffffff1660e01b815260040161060e93929190611910565b602060405180830381600087803b15801561062857600080fd5b505af115801561063c573d6000803e3d6000fd5b505050506040513d601f19601f8201168201806040525081019061066091906116d8565b508273ffffffffffffffffffffffffffffffffffffffff167f63563cfa37fa234d46a7518c8ba4b9e97acddace2a0350afae779accf87aa50b83836040516106a9929190611a74565b60405180910390a2505050565b6106be611136565b73ffffffffffffffffffffffffffffffffffffffff166106dc610d4a565b73ffffffffffffffffffffffffffffffffffffffff1614610732576040517f08c379a000000000000000000000000000000000000000000000000000000000815260040161072990611a54565b60405180910390fd5b61073c600061113e565b565b6000600160009054906101000a900473ffffffffffffffffffffffffffffffffffffffff1673ffffffffffffffffffffffffffffffffffffffff1663dd62ed3e30336040518363ffffffff1660e01b815260040161079d9291906118e7565b60206040518083038186803b1580156107b557600080fd5b505afa1580156107c9573d6000803e3d6000fd5b505050506040513d601f19601f820116820180604052508101906107ed9190611705565b1161082d576040517f08c379a000000000000000000000000000000000000000000000000000000000815260040161082490611a34565b60405180910390fd5b60005b8251811015610d4557600115158382815181106108505761084f611d40565b5b60200260200101516060015115151461089e576040517f08c379a000000000000000000000000000000000000000000000000000000000815260040161089590611ab0565b60405180910390fd5b600015158382815181106108b5576108b4611d40565b5b602002602001015160800151151514610903576040517f08c379a00000000000000000000000000000000000000000000000000000000081526004016108fa90611a14565b60405180910390fd5b3373ffffffffffffffffffffffffffffffffffffffff1683828151811061092d5761092c611d40565b5b60200260200101516000015173ffffffffffffffffffffffffffffffffffffffff161461098f576040517f08c379a000000000000000000000000000000000000000000000000000000000815260040161098690611ad0565b60405180910390fd5b600060018483815181106109a6576109a5611d40565b5b60200260200101516020015160ff161415610a945760329050600160009054906101000a900473ffffffffffffffffffffffffffffffffffffffff1673ffffffffffffffffffffffffffffffffffffffff166323b872dd30868581518110610a1157610a10611d40565b5b602002602001015160000151846040518463ffffffff1660e01b8152600401610a3c93929190611910565b602060405180830381600087803b158015610a5657600080fd5b505af1158015610a6a573d6000803e3d6000fd5b505050506040513d601f19601f82011682018060405250810190610a8e91906116d8565b50610c98565b6002848381518110610aa957610aa8611d40565b5b60200260200101516020015160ff161415610b9757601e9050600160009054906101000a900473ffffffffffffffffffffffffffffffffffffffff1673ffffffffffffffffffffffffffffffffffffffff166323b872dd30868581518110610b1457610b13611d40565b5b602002602001015160000151846040518463ffffffff1660e01b8152600401610b3f93929190611910565b602060405180830381600087803b158015610b5957600080fd5b505af1158015610b6d573d6000803e3d6000fd5b505050506040513d601f19601f82011682018060405250810190610b9191906116d8565b50610c97565b6003848381518110610bac57610bab611d40565b5b60200260200101516020015160ff161415610c9657600a9050600160009054906101000a900473ffffffffffffffffffffffffffffffffffffffff1673ffffffffffffffffffffffffffffffffffffffff166323b872dd30868581518110610c1757610c16611d40565b5b602002602001015160000151846040518463ffffffff1660e01b8152600401610c4293929190611910565b602060405180830381600087803b158015610c5c57600080fd5b505af1158015610c70573d6000803e3d6000fd5b505050506040513d601f19601f82011682018060405250810190610c9491906116d8565b505b5b5b6001848381518110610cad57610cac611d40565b5b60200260200101516080019015159081151581525050838281518110610cd657610cd5611d40565b5b60200260200101516000015173ffffffffffffffffffffffffffffffffffffffff167f63563cfa37fa234d46a7518c8ba4b9e97acddace2a0350afae779accf87aa50b8285604051610d29929190611af0565b60405180910390a2508080610d3d90611cc8565b915050610830565b505050565b60008060009054906101000a900473ffffffffffffffffffffffffffffffffffffffff16905090565b600160009054906101000a900473ffffffffffffffffffffffffffffffffffffffff1681565b610da1611136565b73ffffffffffffffffffffffffffffffffffffffff16610dbf610d4a565b73ffffffffffffffffffffffffffffffffffffffff1614610e15576040517f08c379a0000000000000000000000000000000000000000000000000000000008152600401610e0c90611a54565b60405180910390fd5b60005b81518110156110145760001515828281518110610e3857610e37611d40565b5b602002602001015160400151151514610e86576040517f08c379a0000000000000000000000000000000000000000000000000000000008152600401610e7d906119b4565b60405180910390fd5b6000828281518110610e9b57610e9a611d40565b5b60200260200101516020015160ff1611610eea576040517f08c379a0000000000000000000000000000000000000000000000000000000008152600401610ee1906119f4565b60405180910390fd5b600160009054906101000a900473ffffffffffffffffffffffffffffffffffffffff1673ffffffffffffffffffffffffffffffffffffffff166339509351838381518110610f3b57610f3a611d40565b5b602002602001015160000151848481518110610f5a57610f59611d40565b5b6020026020010151602001516040518363ffffffff1660e01b8152600401610f83929190611970565b602060405180830381600087803b158015610f9d57600080fd5b505af1158015610fb1573d6000803e3d6000fd5b505050506040513d601f19601f82011682018060405250810190610fd591906116d8565b506001828281518110610feb57610fea611d40565b5b60200260200101516040019015159081151581525050808061100c90611cc8565b915050610e18565b5050565b611020611136565b73ffffffffffffffffffffffffffffffffffffffff1661103e610d4a565b73ffffffffffffffffffffffffffffffffffffffff1614611094576040517f08c379a000000000000000000000000000000000000000000000000000000000815260040161108b90611a54565b60405180910390fd5b600073ffffffffffffffffffffffffffffffffffffffff168173ffffffffffffffffffffffffffffffffffffffff161415611104576040517f08c379a00000000000000000000000000000000000000000000000000000000081526004016110fb906119d4565b60405180910390fd5b61110d8161113e565b50565b600260009054906101000a900473ffffffffffffffffffffffffffffffffffffffff1681565b600033905090565b60008060009054906101000a900473ffffffffffffffffffffffffffffffffffffffff169050816000806101000a81548173ffffffffffffffffffffffffffffffffffffffff021916908373ffffffffffffffffffffffffffffffffffffffff1602179055508173ffffffffffffffffffffffffffffffffffffffff168173ffffffffffffffffffffffffffffffffffffffff167f8be0079c531659141344cd1fd0a4f28419497f9722a3daafe3b4186f6b6457e060405160405180910390a35050565b600061121561121084611b51565b611b2c565b9050808382526020820190508285608086028201111561123857611237611dad565b5b60005b85811015611268578161124e888261140b565b84526020840193506080830192505060018101905061123b565b5050509392505050565b600061128561128084611b7d565b611b2c565b905080838252602082019050828560208602820111156112a8576112a7611dad565b5b60005b858110156112f657813567ffffffffffffffff8111156112ce576112cd611d9e565b5b8086016112db8982611483565b855260208501945060208401935050506001810190506112ab565b5050509392505050565b600061131361130e84611ba9565b611b2c565b90508281526020810184848401111561132f5761132e611db2565b5b61133a848285611c88565b509392505050565b60008135905061135181611f92565b92915050565b600082601f83011261136c5761136b611d9e565b5b813561137c848260208601611202565b91505092915050565b600082601f83011261139a57611399611d9e565b5b81356113aa848260208601611272565b91505092915050565b6000813590506113c281611fa9565b92915050565b6000815190506113d781611fa9565b92915050565b600082601f8301126113f2576113f1611d9e565b5b8135611402848260208601611300565b91505092915050565b60006080828403121561142157611420611da3565b5b61142b6080611b2c565b9050600061143b84828501611342565b600083015250602061144f84828501611555565b6020830152506040611463848285016113b3565b6040830152506060611477848285016113b3565b60608301525092915050565b600060a0828403121561149957611498611da3565b5b6114a360a0611b2c565b905060006114b384828501611342565b60008301525060206114c784828501611555565b602083015250604082013567ffffffffffffffff8111156114eb576114ea611da8565b5b6114f7848285016113dd565b604083015250606061150b848285016113b3565b606083015250608061151f848285016113b3565b60808301525092915050565b60008135905061153a81611fc0565b92915050565b60008151905061154f81611fc0565b92915050565b60008135905061156481611fd7565b92915050565b6000602082840312156115805761157f611dbc565b5b600061158e84828501611342565b91505092915050565b6000806000606084860312156115b0576115af611dbc565b5b60006115be86828701611342565b93505060206115cf8682870161152b565b92505060406115e08682870161152b565b9150509250925092565b600060208284031215611600576115ff611dbc565b5b600082013567ffffffffffffffff81111561161e5761161d611db7565b5b61162a84828501611357565b91505092915050565b60006020828403121561164957611648611dbc565b5b600082013567ffffffffffffffff81111561166757611666611db7565b5b61167384828501611385565b91505092915050565b6000806040838503121561169357611692611dbc565b5b600083013567ffffffffffffffff8111156116b1576116b0611db7565b5b6116bd85828601611385565b92505060206116ce8582860161152b565b9150509250929050565b6000602082840312156116ee576116ed611dbc565b5b60006116fc848285016113c8565b91505092915050565b60006020828403121561171b5761171a611dbc565b5b600061172984828501611540565b91505092915050565b61173b81611beb565b82525050565b61174a81611c40565b82525050565b600061175d601983611bda565b915061176882611dd2565b602082019050919050565b6000611780602683611bda565b915061178b82611dfb565b604082019050919050565b60006117a3601083611bda565b91506117ae82611e4a565b602082019050919050565b60006117c6601983611bda565b91506117d182611e73565b602082019050919050565b60006117e9600983611bda565b91506117f482611e9c565b602082019050919050565b600061180c602083611bda565b915061181782611ec5565b602082019050919050565b600061182f600783611bda565b915061183a82611eee565b602082019050919050565b6000611852600c83611bda565b915061185d82611f17565b602082019050919050565b6000611875601583611bda565b915061188082611f40565b602082019050919050565b6000611898600783611bda565b91506118a382611f69565b602082019050919050565b6118b781611c29565b82525050565b6118c681611c76565b82525050565b60006020820190506118e16000830184611732565b92915050565b60006040820190506118fc6000830185611732565b6119096020830184611732565b9392505050565b60006060820190506119256000830186611732565b6119326020830185611732565b61193f60408301846118ae565b949350505050565b600060408201905061195c6000830185611732565b61196960208301846118ae565b9392505050565b60006040820190506119856000830185611732565b61199260208301846118bd565b9392505050565b60006020820190506119ae6000830184611741565b92915050565b600060208201905081810360008301526119cd81611750565b9050919050565b600060208201905081810360008301526119ed81611773565b9050919050565b60006020820190508181036000830152611a0d81611796565b9050919050565b60006020820190508181036000830152611a2d816117b9565b9050919050565b60006020820190508181036000830152611a4d816117dc565b9050919050565b60006020820190508181036000830152611a6d816117ff565b9050919050565b60006060820190508181036000830152611a8d81611822565b9050611a9c60208301856118ae565b611aa960408301846118ae565b9392505050565b60006020820190508181036000830152611ac981611845565b9050919050565b60006020820190508181036000830152611ae981611868565b9050919050565b60006060820190508181036000830152611b098161188b565b9050611b1860208301856118ae565b611b2560408301846118ae565b9392505050565b6000611b36611b47565b9050611b428282611c97565b919050565b6000604051905090565b600067ffffffffffffffff821115611b6c57611b6b611d6f565b5b602082029050602081019050919050565b600067ffffffffffffffff821115611b9857611b97611d6f565b5b602082029050602081019050919050565b600067ffffffffffffffff821115611bc457611bc3611d6f565b5b611bcd82611dc1565b9050602081019050919050565b600082825260208201905092915050565b6000611bf682611c09565b9050919050565b60008115159050919050565b600073ffffffffffffffffffffffffffffffffffffffff82169050919050565b6000819050919050565b600060ff82169050919050565b6000611c4b82611c52565b9050919050565b6000611c5d82611c64565b9050919050565b6000611c6f82611c09565b9050919050565b6000611c8182611c33565b9050919050565b82818337600083830152505050565b611ca082611dc1565b810181811067ffffffffffffffff82111715611cbf57611cbe611d6f565b5b80604052505050565b6000611cd382611c29565b91507fffffffffffffffffffffffffffffffffffffffffffffffffffffffffffffffff821415611d0657611d05611d11565b5b600182019050919050565b7f4e487b7100000000000000000000000000000000000000000000000000000000600052601160045260246000fd5b7f4e487b7100000000000000000000000000000000000000000000000000000000600052603260045260246000fd5b7f4e487b7100000000000000000000000000000000000000000000000000000000600052604160045260246000fd5b600080fd5b600080fd5b600080fd5b600080fd5b600080fd5b600080fd5b600080fd5b6000601f19601f8301169050919050565b7f68617320616c7265616479206265656e20617070726f76656400000000000000600082015250565b7f4f776e61626c653a206e6577206f776e657220697320746865207a65726f206160008201527f6464726573730000000000000000000000000000000000000000000000000000602082015250565b7f6e6f742065786973742072657761726400000000000000000000000000000000600082015250565b7f68617320616c7265616479206265656e20726577617264656400000000000000600082015250565b7f6e6f207265776172640000000000000000000000000000000000000000000000600082015250565b7f4f776e61626c653a2063616c6c6572206973206e6f7420746865206f776e6572600082015250565b7f4d697373696f6e00000000000000000000000000000000000000000000000000600082015250565b7f6e6f7420617070726f7665640000000000000000000000000000000000000000600082015250565b7f796f7520617265206e6f7420726563697069656e740000000000000000000000600082015250565b7f52616e6b696e6700000000000000000000000000000000000000000000000000600082015250565b611f9b81611beb565b8114611fa657600080fd5b50565b611fb281611bfd565b8114611fbd57600080fd5b50565b611fc981611c29565b8114611fd457600080fd5b50565b611fe081611c33565b8114611feb57600080fd5b5056fea264697066735822122005d84d2cda812e4f15875d74d612396bfcd2279b99722cff4c33fdef42e90ccd64736f6c63430008070033",
  "immutableReferences": {},
  "source": "// SPDX-License-Identifier: MIT\r\n\r\npragma solidity ^0.8.7;\r\n\r\nimport \"../node_modules/@openzeppelin/contracts/access/Ownable.sol\";\r\nimport \"./GameToken.sol\";\r\n\r\ncontract Claim_20 is Ownable {\r\n  event ClaimEvent(string rewardType, address indexed account, uint amount, uint time);\r\n\r\n  GameToken public gametoken;\r\n  address public admin;\r\n\r\n  constructor(GameToken _token) {\r\n    admin = msg.sender;\r\n    gametoken = _token;\r\n  }\r\n\r\n  struct WeeklyRank {\r\n    address account;\r\n    uint8 ranking;\r\n    string gameTitle;\r\n    bool isApproved;\r\n    bool isRewarded;\r\n  }\r\n  struct DailyAchiever {\r\n    address account;\r\n    uint8 count;\r\n    bool isApproved;\r\n    bool isRewarded;\r\n  }\r\n\r\n  uint private constant top1 = 50;\r\n  uint private constant top2 = 30;\r\n  uint private constant top3 = 10;\r\n\r\n  mapping(address => DailyAchiever[]) missionRewardList;\r\n\r\n  /* \r\n    Mission Reward Function \r\n  */\r\n\r\n  function approveClaim_mission(DailyAchiever[] memory result) external onlyOwner {\r\n    for (uint256 i = 0; i < result.length; i++) {\r\n      require(result[i].isApproved == false, \"has already been approved\");\r\n      require(result[i].count > 0, \"not exist reward\");\r\n      gametoken.increaseAllowance(result[i].account, result[i].count);\r\n\r\n      result[i].isApproved = true;\r\n    }\r\n  }\r\n\r\n  function claim_mission(\r\n    address _account,\r\n    uint _amount,\r\n    uint _currentTime\r\n  ) external {\r\n    gametoken.transferFrom(address(this), _account, _amount);\r\n\r\n    emit ClaimEvent(\"Mission\", _account, _amount, _currentTime);\r\n  }\r\n\r\n  /* \r\n    Ranking Reward Function \r\n  */\r\n\r\n  function approveClaim_rank(WeeklyRank[] memory result) external onlyOwner {\r\n    for (uint i = 0; i < result.length; i++) {\r\n      require(result[i].isApproved == false, \"has already been approved\");\r\n\r\n      if (result[i].ranking == 1) {\r\n        gametoken.increaseAllowance(result[i].account, top1);\r\n      } else if (result[i].ranking == 2) {\r\n        gametoken.increaseAllowance(result[i].account, top2);\r\n      } else if (result[i].ranking == 3) {\r\n        gametoken.increaseAllowance(result[i].account, top3);\r\n      }\r\n      result[i].isApproved = true;\r\n    }\r\n  }\r\n\r\n  // @   \r\n  function claim_rank(WeeklyRank[] memory result, uint currentTime) external {\r\n    require(gametoken.allowance(address(this), msg.sender) > 0, \"no reward\");\r\n\r\n    for (uint i = 0; i < result.length; i++) {\r\n      require(result[i].isApproved == true, \"not approved\");\r\n      require(result[i].isRewarded == false, \"has already been rewarded\");\r\n      require(result[i].account == msg.sender, \"you are not recipient\");\r\n\r\n      uint _reward;\r\n      if (result[i].ranking == 1) {\r\n        _reward = top1;\r\n        gametoken.transferFrom(address(this), result[i].account, _reward);\r\n      } else if (result[i].ranking == 2) {\r\n        _reward = top2;\r\n        gametoken.transferFrom(address(this), result[i].account, _reward);\r\n      } else if (result[i].ranking == 3) {\r\n        _reward = top3;\r\n        gametoken.transferFrom(address(this), result[i].account, _reward);\r\n      }\r\n\r\n      result[i].isRewarded = true;\r\n      emit ClaimEvent(\"Ranking\", result[i].account, _reward, currentTime);\r\n    }\r\n  }\r\n}\r\n\r\n//[\"0x4B20993Bc481177ec7E8f571ceCaE8A9e22C02db\",3]\r\n//[\"0x4B20993Bc481177ec7E8f571ceCaE8A9e22C02db\",1,\"\",21]\r\n//[[\"0x4B20993Bc481177ec7E8f571ceCaE8A9e22C02db\",3,false,false,\"\"],[\"0x4B20993Bc481177ec7E8f571ceCaE8A9e22C02db\",1,false,false,\"\"]]\r\n",
  "sourcePath": "C:\\Users\\coco\\Desktop\\\\coco\\TEAM_PROJECT\\NFT_GAME\\contracts\\Claim_20.sol",
  "compiler": {
    "name": "solc",
    "version": "0.8.7+commit.e28d00a7.Emscripten.clang"
  },
  "schemaVersion": "3.4.4",
  "updatedAt": "2022-04-21T06:13:05.210Z",
  "networkType": "ethereum",
  "devdoc": {
    "kind": "dev",
    "methods": {
      "owner()": {
        "details": "Returns the address of the current owner."
      },
      "renounceOwnership()": {
        "details": "Leaves the contract without owner. It will not be possible to call `onlyOwner` functions anymore. Can only be called by the current owner. NOTE: Renouncing ownership will leave the contract without an owner, thereby removing any functionality that is only available to the owner."
      },
      "transferOwnership(address)": {
        "details": "Transfers ownership of the contract to a new account (`newOwner`). Can only be called by the current owner."
      }
    },
    "version": 1
  },
  "userdoc": {
    "kind": "user",
    "methods": {},
    "version": 1
  }
}