{
  "contractName": "ERC721Staking",
  "abi": [
    {
      "inputs": [
        {
          "internalType": "address",
          "name": "_stakingToken",
          "type": "address"
        },
        {
          "internalType": "address",
          "name": "_rewardsToken",
          "type": "address"
        },
        {
          "internalType": "uint256",
          "name": "_rewardsDuration",
          "type": "uint256"
        }
      ],
      "stateMutability": "nonpayable",
      "type": "constructor"
    },
    {
      "anonymous": false,
      "inputs": [
        {
          "indexed": true,
          "internalType": "address",
          "name": "previousOwner",
          "type": "address"
        },
        {
          "indexed": true,
          "internalType": "address",
          "name": "newOwner",
          "type": "address"
        }
      ],
      "name": "OwnershipTransferred",
      "type": "event"
    },
    {
      "anonymous": false,
      "inputs": [
        {
          "indexed": false,
          "internalType": "address",
          "name": "account",
          "type": "address"
        }
      ],
      "name": "Paused",
      "type": "event"
    },
    {
      "anonymous": false,
      "inputs": [
        {
          "indexed": false,
          "internalType": "uint256",
          "name": "reward",
          "type": "uint256"
        }
      ],
      "name": "RewardAdded",
      "type": "event"
    },
    {
      "anonymous": false,
      "inputs": [
        {
          "indexed": true,
          "internalType": "address",
          "name": "user",
          "type": "address"
        },
        {
          "indexed": false,
          "internalType": "uint256",
          "name": "reward",
          "type": "uint256"
        }
      ],
      "name": "RewardPaid",
      "type": "event"
    },
    {
      "anonymous": false,
      "inputs": [
        {
          "indexed": false,
          "internalType": "uint256",
          "name": "newDuration",
          "type": "uint256"
        }
      ],
      "name": "RewardsDurationUpdated",
      "type": "event"
    },
    {
      "anonymous": false,
      "inputs": [
        {
          "indexed": true,
          "internalType": "address",
          "name": "user",
          "type": "address"
        },
        {
          "indexed": false,
          "internalType": "uint256",
          "name": "amount",
          "type": "uint256"
        },
        {
          "indexed": false,
          "internalType": "uint256[]",
          "name": "tokenIds",
          "type": "uint256[]"
        }
      ],
      "name": "Staked",
      "type": "event"
    },
    {
      "anonymous": false,
      "inputs": [
        {
          "indexed": false,
          "internalType": "address",
          "name": "account",
          "type": "address"
        }
      ],
      "name": "Unpaused",
      "type": "event"
    },
    {
      "anonymous": false,
      "inputs": [
        {
          "indexed": true,
          "internalType": "address",
          "name": "user",
          "type": "address"
        },
        {
          "indexed": false,
          "internalType": "uint256",
          "name": "amount",
          "type": "uint256"
        },
        {
          "indexed": false,
          "internalType": "uint256[]",
          "name": "tokenIds",
          "type": "uint256[]"
        }
      ],
      "name": "Withdrawn",
      "type": "event"
    },
    {
      "inputs": [
        {
          "internalType": "address",
          "name": "",
          "type": "address"
        }
      ],
      "name": "balances",
      "outputs": [
        {
          "internalType": "uint256",
          "name": "",
          "type": "uint256"
        }
      ],
      "stateMutability": "view",
      "type": "function"
    },
    {
      "inputs": [],
      "name": "lastUpdateTime",
      "outputs": [
        {
          "internalType": "uint256",
          "name": "",
          "type": "uint256"
        }
      ],
      "stateMutability": "view",
      "type": "function"
    },
    {
      "inputs": [
        {
          "internalType": "address",
          "name": "",
          "type": "address"
        },
        {
          "internalType": "address",
          "name": "",
          "type": "address"
        },
        {
          "internalType": "uint256",
          "name": "",
          "type": "uint256"
        },
        {
          "internalType": "bytes",
          "name": "",
          "type": "bytes"
        }
      ],
      "name": "onERC721Received",
      "outputs": [
        {
          "internalType": "bytes4",
          "name": "",
          "type": "bytes4"
        }
      ],
      "stateMutability": "nonpayable",
      "type": "function"
    },
    {
      "inputs": [],
      "name": "owner",
      "outputs": [
        {
          "internalType": "address",
          "name": "",
          "type": "address"
        }
      ],
      "stateMutability": "view",
      "type": "function"
    },
    {
      "inputs": [],
      "name": "paused",
      "outputs": [
        {
          "internalType": "bool",
          "name": "",
          "type": "bool"
        }
      ],
      "stateMutability": "view",
      "type": "function"
    },
    {
      "inputs": [],
      "name": "periodFinish",
      "outputs": [
        {
          "internalType": "uint256",
          "name": "",
          "type": "uint256"
        }
      ],
      "stateMutability": "view",
      "type": "function"
    },
    {
      "inputs": [],
      "name": "renounceOwnership",
      "outputs": [],
      "stateMutability": "nonpayable",
      "type": "function"
    },
    {
      "inputs": [],
      "name": "rewardPerTokenStored",
      "outputs": [
        {
          "internalType": "uint256",
          "name": "",
          "type": "uint256"
        }
      ],
      "stateMutability": "view",
      "type": "function"
    },
    {
      "inputs": [],
      "name": "rewardRate",
      "outputs": [
        {
          "internalType": "uint256",
          "name": "",
          "type": "uint256"
        }
      ],
      "stateMutability": "view",
      "type": "function"
    },
    {
      "inputs": [
        {
          "internalType": "address",
          "name": "",
          "type": "address"
        }
      ],
      "name": "rewards",
      "outputs": [
        {
          "internalType": "uint256",
          "name": "",
          "type": "uint256"
        }
      ],
      "stateMutability": "view",
      "type": "function"
    },
    {
      "inputs": [],
      "name": "rewardsDuration",
      "outputs": [
        {
          "internalType": "uint256",
          "name": "",
          "type": "uint256"
        }
      ],
      "stateMutability": "view",
      "type": "function"
    },
    {
      "inputs": [],
      "name": "rewardsToken",
      "outputs": [
        {
          "internalType": "contract IERC20",
          "name": "",
          "type": "address"
        }
      ],
      "stateMutability": "view",
      "type": "function"
    },
    {
      "inputs": [
        {
          "internalType": "uint256",
          "name": "",
          "type": "uint256"
        }
      ],
      "name": "stakedAssets",
      "outputs": [
        {
          "internalType": "address",
          "name": "",
          "type": "address"
        }
      ],
      "stateMutability": "view",
      "type": "function"
    },
    {
      "inputs": [],
      "name": "stakingToken",
      "outputs": [
        {
          "internalType": "contract IERC721",
          "name": "",
          "type": "address"
        }
      ],
      "stateMutability": "view",
      "type": "function"
    },
    {
      "inputs": [],
      "name": "totalSupply",
      "outputs": [
        {
          "internalType": "uint256",
          "name": "",
          "type": "uint256"
        }
      ],
      "stateMutability": "view",
      "type": "function"
    },
    {
      "inputs": [
        {
          "internalType": "address",
          "name": "newOwner",
          "type": "address"
        }
      ],
      "name": "transferOwnership",
      "outputs": [],
      "stateMutability": "nonpayable",
      "type": "function"
    },
    {
      "inputs": [
        {
          "internalType": "address",
          "name": "",
          "type": "address"
        }
      ],
      "name": "userRewardPerTokenPaid",
      "outputs": [
        {
          "internalType": "uint256",
          "name": "",
          "type": "uint256"
        }
      ],
      "stateMutability": "view",
      "type": "function"
    },
    {
      "inputs": [],
      "name": "lastTimeRewardApplicable",
      "outputs": [
        {
          "internalType": "uint256",
          "name": "",
          "type": "uint256"
        }
      ],
      "stateMutability": "view",
      "type": "function"
    },
    {
      "inputs": [],
      "name": "rewardPerToken",
      "outputs": [
        {
          "internalType": "uint256",
          "name": "",
          "type": "uint256"
        }
      ],
      "stateMutability": "view",
      "type": "function"
    },
    {
      "inputs": [
        {
          "internalType": "address",
          "name": "account",
          "type": "address"
        }
      ],
      "name": "earned",
      "outputs": [
        {
          "internalType": "uint256",
          "name": "",
          "type": "uint256"
        }
      ],
      "stateMutability": "view",
      "type": "function"
    },
    {
      "inputs": [],
      "name": "getRewardForDuration",
      "outputs": [
        {
          "internalType": "uint256",
          "name": "",
          "type": "uint256"
        }
      ],
      "stateMutability": "view",
      "type": "function"
    },
    {
      "inputs": [
        {
          "internalType": "uint256[]",
          "name": "tokenIds",
          "type": "uint256[]"
        }
      ],
      "name": "stake",
      "outputs": [],
      "stateMutability": "nonpayable",
      "type": "function"
    },
    {
      "inputs": [
        {
          "internalType": "uint256[]",
          "name": "tokenIds",
          "type": "uint256[]"
        }
      ],
      "name": "withdraw",
      "outputs": [],
      "stateMutability": "nonpayable",
      "type": "function"
    },
    {
      "inputs": [],
      "name": "getReward",
      "outputs": [],
      "stateMutability": "nonpayable",
      "type": "function"
    },
    {
      "inputs": [
        {
          "internalType": "uint256[]",
          "name": "tokenIds",
          "type": "uint256[]"
        }
      ],
      "name": "exit",
      "outputs": [],
      "stateMutability": "nonpayable",
      "type": "function"
    },
    {
      "inputs": [
        {
          "internalType": "uint256",
          "name": "reward",
          "type": "uint256"
        }
      ],
      "name": "notifyRewardAmount",
      "outputs": [],
      "stateMutability": "nonpayable",
      "type": "function"
    },
    {
      "inputs": [
        {
          "internalType": "uint256",
          "name": "_rewardsDuration",
          "type": "uint256"
        }
      ],
      "name": "setRewardsDuration",
      "outputs": [],
      "stateMutability": "nonpayable",
      "type": "function"
    },
    {
      "inputs": [],
      "name": "pause",
      "outputs": [],
      "stateMutability": "nonpayable",
      "type": "function"
    },
    {
      "inputs": [],
      "name": "unpause",
      "outputs": [],
      "stateMutability": "nonpayable",
      "type": "function"
    }
  ],
  "bytecode": "0x6080604052600060045560006005553480156200001b57600080fd5b506040516200320338038062003203833981810160405281019062000041919062000212565b6001600081905550620000696200005d6200011660201b60201c565b6200011e60201b60201c565b6000600160146101000a81548160ff02191690831515021790555082600360006101000a81548173ffffffffffffffffffffffffffffffffffffffff021916908373ffffffffffffffffffffffffffffffffffffffff16021790555081600260006101000a81548173ffffffffffffffffffffffffffffffffffffffff021916908373ffffffffffffffffffffffffffffffffffffffff16021790555080600681905550505050620002e5565b600033905090565b6000600160009054906101000a900473ffffffffffffffffffffffffffffffffffffffff16905081600160006101000a81548173ffffffffffffffffffffffffffffffffffffffff021916908373ffffffffffffffffffffffffffffffffffffffff1602179055508173ffffffffffffffffffffffffffffffffffffffff168173ffffffffffffffffffffffffffffffffffffffff167f8be0079c531659141344cd1fd0a4f28419497f9722a3daafe3b4186f6b6457e060405160405180910390a35050565b600081519050620001f581620002b1565b92915050565b6000815190506200020c81620002cb565b92915050565b6000806000606084860312156200022e576200022d620002ac565b5b60006200023e86828701620001e4565b93505060206200025186828701620001e4565b92505060406200026486828701620001fb565b9150509250925092565b60006200027b8262000282565b9050919050565b600073ffffffffffffffffffffffffffffffffffffffff82169050919050565b6000819050919050565b600080fd5b620002bc816200026e565b8114620002c857600080fd5b50565b620002d681620002a2565b8114620002e257600080fd5b50565b612f0e80620002f56000396000f3fe608060405234801561001057600080fd5b50600436106101ce5760003560e01c806372f702f311610104578063983d95ce116100a2578063d1af0c7d11610071578063d1af0c7d146104d3578063df136d65146104f1578063ebe2b12b1461050f578063f2fde38b1461052d576101ce565b8063983d95ce1461045f578063c8f33c911461047b578063cc1a378f14610499578063cd3daf9d146104b5576101ce565b806380faa57d116100de57806380faa57d146103e95780638456cb59146104075780638b876347146104115780638da5cb5b14610441576101ce565b806372f702f31461037d5780637b0a47ee1461039b5780637d8fc88e146103b9576101ce565b806327e235e3116101715780633d18b9121161014b5780633d18b912146103415780633f4ba83a1461034b5780635c975abb14610355578063715018a614610373576101ce565b806327e235e3146102d7578063386a9525146103075780633c6b16ab14610325576101ce565b8063150b7a02116101ad578063150b7a021461024f57806318160ddd1461027f57806318c08f261461029d5780631c1f78eb146102b9576101ce565b80628cc262146101d35780630700037d146102035780630fbf0a9314610233575b600080fd5b6101ed60048036038101906101e89190612008565b610549565b6040516101fa9190612715565b60405180910390f35b61021d60048036038101906102189190612008565b61064b565b60405161022a9190612715565b60405180910390f35b61024d600480360381019061024891906120b8565b610663565b005b61026960048036038101906102649190612035565b6109d4565b6040516102769190612522565b60405180910390f35b6102876109e8565b6040516102949190612715565b60405180910390f35b6102b760048036038101906102b291906120b8565b6109ee565b005b6102c1610a02565b6040516102ce9190612715565b60405180910390f35b6102f160048036038101906102ec9190612008565b610a19565b6040516102fe9190612715565b60405180910390f35b61030f610a31565b60405161031c9190612715565b60405180910390f35b61033f600480360381019061033a919061212e565b610a37565b005b610349610d58565b005b610353610fc4565b005b61035d61104a565b60405161036a9190612507565b60405180910390f35b61037b611061565b005b6103856110e9565b6040516103929190612558565b60405180910390f35b6103a361110f565b6040516103b09190612715565b60405180910390f35b6103d360048036038101906103ce919061212e565b611115565b6040516103e0919061248c565b60405180910390f35b6103f1611148565b6040516103fe9190612715565b60405180910390f35b61040f611162565b005b61042b60048036038101906104269190612008565b6111e8565b6040516104389190612715565b60405180910390f35b610449611200565b604051610456919061248c565b60405180910390f35b610479600480360381019061047491906120b8565b61122a565b005b61048361160f565b6040516104909190612715565b60405180910390f35b6104b360048036038101906104ae919061212e565b611615565b005b6104bd611718565b6040516104ca9190612715565b60405180910390f35b6104db611783565b6040516104e8919061253d565b60405180910390f35b6104f96117a9565b6040516105069190612715565b60405180910390f35b6105176117af565b6040516105249190612715565b60405180910390f35b61054760048036038101906105429190612008565b6117b5565b005b6000600a60008373ffffffffffffffffffffffffffffffffffffffff1673ffffffffffffffffffffffffffffffffffffffff16815260200190815260200160002054670de0b6b3a7640000600960008573ffffffffffffffffffffffffffffffffffffffff1673ffffffffffffffffffffffffffffffffffffffff168152602001908152602001600020546105dc611718565b6105e6919061292e565b600c60008673ffffffffffffffffffffffffffffffffffffffff1673ffffffffffffffffffffffffffffffffffffffff1681526020019081526020016000205461063091906128d4565b61063a91906128a3565b610644919061284d565b9050919050565b600a6020528060005260406000206000915090505481565b600260005414156106a9576040517f08c379a00000000000000000000000000000000000000000000000000000000081526004016106a0906126f5565b60405180910390fd5b60026000819055506106b961104a565b156106f9576040517f08c379a00000000000000000000000000000000000000000000000000000000081526004016106f090612615565b60405180910390fd5b33610702611718565b600881905550610710611148565b600781905550600073ffffffffffffffffffffffffffffffffffffffff168173ffffffffffffffffffffffffffffffffffffffff16146107dd5761075381610549565b600a60008373ffffffffffffffffffffffffffffffffffffffff1673ffffffffffffffffffffffffffffffffffffffff16815260200190815260200160002081905550600854600960008373ffffffffffffffffffffffffffffffffffffffff1673ffffffffffffffffffffffffffffffffffffffff168152602001908152602001600020819055505b600082511415610822576040517f08c379a0000000000000000000000000000000000000000000000000000000008152600401610819906126b5565b60405180910390fd5b600080600090505b835181101561096d57600360009054906101000a900473ffffffffffffffffffffffffffffffffffffffff1673ffffffffffffffffffffffffffffffffffffffff166342842e0e333087858151811061088657610885612aef565b5b60200260200101516040518463ffffffff1660e01b81526004016108ac939291906124a7565b600060405180830381600087803b1580156108c657600080fd5b505af11580156108da573d6000803e3d6000fd5b505050506001826108eb919061284d565b915033600d600086848151811061090557610904612aef565b5b6020026020010151815260200190815260200160002060006101000a81548173ffffffffffffffffffffffffffffffffffffffff021916908373ffffffffffffffffffffffffffffffffffffffff160217905550600181610966919061284d565b905061082a565b50610977816118ad565b3373ffffffffffffffffffffffffffffffffffffffff167fb18ab713c223cf8d1394fb3018faad3e87f34414cc9d74b6eff3510d05359d8582856040516109bf929190612730565b60405180910390a25050600160008190555050565b600063150b7a0260e01b9050949350505050565b600b5481565b6109f78161122a565b6109ff610d58565b50565b6000600654600554610a1491906128d4565b905090565b600c6020528060005260406000206000915090505481565b60065481565b610a3f61191f565b73ffffffffffffffffffffffffffffffffffffffff16610a5d611200565b73ffffffffffffffffffffffffffffffffffffffff1614610ab3576040517f08c379a0000000000000000000000000000000000000000000000000000000008152600401610aaa90612655565b60405180910390fd5b6000610abd611718565b600881905550610acb611148565b600781905550600073ffffffffffffffffffffffffffffffffffffffff168173ffffffffffffffffffffffffffffffffffffffff1614610b9857610b0e81610549565b600a60008373ffffffffffffffffffffffffffffffffffffffff1673ffffffffffffffffffffffffffffffffffffffff16815260200190815260200160002081905550600854600960008373ffffffffffffffffffffffffffffffffffffffff1673ffffffffffffffffffffffffffffffffffffffff168152602001908152602001600020819055505b6004544210610bba5760065482610baf91906128a3565b600581905550610c00565b600042600454610bca919061292e565b9050600060055482610bdc91906128d4565b90506006548185610bed919061284d565b610bf791906128a3565b60058190555050505b6000600260009054906101000a900473ffffffffffffffffffffffffffffffffffffffff1673ffffffffffffffffffffffffffffffffffffffff166370a08231306040518263ffffffff1660e01b8152600401610c5d919061248c565b60206040518083038186803b158015610c7557600080fd5b505afa158015610c89573d6000803e3d6000fd5b505050506040513d601f19601f82011682018060405250810190610cad919061215b565b905060065481610cbd91906128a3565b6005541115610d01576040517f08c379a0000000000000000000000000000000000000000000000000000000008152600401610cf890612675565b60405180910390fd5b4260078190555060065442610d16919061284d565b6004819055507fde88a922e0d3b88b24e9623efeb464919c6bf9f66857a65e2bfcf2ce87a9433d83604051610d4b9190612715565b60405180910390a1505050565b60026000541415610d9e576040517f08c379a0000000000000000000000000000000000000000000000000000000008152600401610d95906126f5565b60405180910390fd5b600260008190555033610daf611718565b600881905550610dbd611148565b600781905550600073ffffffffffffffffffffffffffffffffffffffff168173ffffffffffffffffffffffffffffffffffffffff1614610e8a57610e0081610549565b600a60008373ffffffffffffffffffffffffffffffffffffffff1673ffffffffffffffffffffffffffffffffffffffff16815260200190815260200160002081905550600854600960008373ffffffffffffffffffffffffffffffffffffffff1673ffffffffffffffffffffffffffffffffffffffff168152602001908152602001600020819055505b6000600a60003373ffffffffffffffffffffffffffffffffffffffff1673ffffffffffffffffffffffffffffffffffffffff1681526020019081526020016000205490506000811115610fb8576000600a60003373ffffffffffffffffffffffffffffffffffffffff1673ffffffffffffffffffffffffffffffffffffffff16815260200190815260200160002081905550610f693382600260009054906101000a900473ffffffffffffffffffffffffffffffffffffffff1673ffffffffffffffffffffffffffffffffffffffff166119279092919063ffffffff16565b3373ffffffffffffffffffffffffffffffffffffffff167fe2403640ba68fed3a2f88b7557551d1993f84b99bb10ff833f0cf8db0c5e048682604051610faf9190612715565b60405180910390a25b50506001600081905550565b610fcc61191f565b73ffffffffffffffffffffffffffffffffffffffff16610fea611200565b73ffffffffffffffffffffffffffffffffffffffff1614611040576040517f08c379a000000000000000000000000000000000000000000000000000000000815260040161103790612655565b60405180910390fd5b6110486119ad565b565b6000600160149054906101000a900460ff16905090565b61106961191f565b73ffffffffffffffffffffffffffffffffffffffff16611087611200565b73ffffffffffffffffffffffffffffffffffffffff16146110dd576040517f08c379a00000000000000000000000000000000000000000000000000000000081526004016110d490612655565b60405180910390fd5b6110e76000611a4f565b565b600360009054906101000a900473ffffffffffffffffffffffffffffffffffffffff1681565b60055481565b600d6020528060005260406000206000915054906101000a900473ffffffffffffffffffffffffffffffffffffffff1681565b6000600454421061115b5760045461115d565b425b905090565b61116a61191f565b73ffffffffffffffffffffffffffffffffffffffff16611188611200565b73ffffffffffffffffffffffffffffffffffffffff16146111de576040517f08c379a00000000000000000000000000000000000000000000000000000000081526004016111d590612655565b60405180910390fd5b6111e6611b15565b565b60096020528060005260406000206000915090505481565b6000600160009054906101000a900473ffffffffffffffffffffffffffffffffffffffff16905090565b60026000541415611270576040517f08c379a0000000000000000000000000000000000000000000000000000000008152600401611267906126f5565b60405180910390fd5b600260008190555033611281611718565b60088190555061128f611148565b600781905550600073ffffffffffffffffffffffffffffffffffffffff168173ffffffffffffffffffffffffffffffffffffffff161461135c576112d281610549565b600a60008373ffffffffffffffffffffffffffffffffffffffff1673ffffffffffffffffffffffffffffffffffffffff16815260200190815260200160002081905550600854600960008373ffffffffffffffffffffffffffffffffffffffff1673ffffffffffffffffffffffffffffffffffffffff168152602001908152602001600020819055505b6000825114156113a1576040517f08c379a0000000000000000000000000000000000000000000000000000000008152600401611398906126b5565b60405180910390fd5b600080600090505b83518110156115a8573373ffffffffffffffffffffffffffffffffffffffff16600d60008684815181106113e0576113df612aef565b5b6020026020010151815260200190815260200160002060009054906101000a900473ffffffffffffffffffffffffffffffffffffffff1673ffffffffffffffffffffffffffffffffffffffff161461146d576040517f08c379a0000000000000000000000000000000000000000000000000000000008152600401611464906125b5565b60405180910390fd5b600360009054906101000a900473ffffffffffffffffffffffffffffffffffffffff1673ffffffffffffffffffffffffffffffffffffffff166342842e0e30338785815181106114c0576114bf612aef565b5b60200260200101516040518463ffffffff1660e01b81526004016114e6939291906124a7565b600060405180830381600087803b15801561150057600080fd5b505af1158015611514573d6000803e3d6000fd5b50505050600182611525919061284d565b91506000600d60008684815181106115405761153f612aef565b5b6020026020010151815260200190815260200160002060006101000a81548173ffffffffffffffffffffffffffffffffffffffff021916908373ffffffffffffffffffffffffffffffffffffffff1602179055506001816115a1919061284d565b90506113a9565b506115b281611bb7565b3373ffffffffffffffffffffffffffffffffffffffff167fd40a9786b597b88b3426158112e3930e09cb031c138a150e367cfe17ff20e30282856040516115fa929190612730565b60405180910390a25050600160008190555050565b60075481565b61161d61191f565b73ffffffffffffffffffffffffffffffffffffffff1661163b611200565b73ffffffffffffffffffffffffffffffffffffffff1614611691576040517f08c379a000000000000000000000000000000000000000000000000000000000815260040161168890612655565b60405180910390fd5b60045442116116d5576040517f08c379a00000000000000000000000000000000000000000000000000000000081526004016116cc90612635565b60405180910390fd5b806006819055507ffb46ca5a5e06d4540d6387b930a7c978bce0db5f449ec6b3f5d07c6e1d44f2d360065460405161170d9190612715565b60405180910390a150565b600080600b54141561172e576008549050611780565b600b54670de0b6b3a7640000600554600754611748611148565b611752919061292e565b61175c91906128d4565b61176691906128d4565b61177091906128a3565b60085461177d919061284d565b90505b90565b600260009054906101000a900473ffffffffffffffffffffffffffffffffffffffff1681565b60085481565b60045481565b6117bd61191f565b73ffffffffffffffffffffffffffffffffffffffff166117db611200565b73ffffffffffffffffffffffffffffffffffffffff1614611831576040517f08c379a000000000000000000000000000000000000000000000000000000000815260040161182890612655565b60405180910390fd5b600073ffffffffffffffffffffffffffffffffffffffff168173ffffffffffffffffffffffffffffffffffffffff1614156118a1576040517f08c379a0000000000000000000000000000000000000000000000000000000008152600401611898906125d5565b60405180910390fd5b6118aa81611a4f565b50565b80600b60008282546118bf919061284d565b9250508190555080600c60003373ffffffffffffffffffffffffffffffffffffffff1673ffffffffffffffffffffffffffffffffffffffff1681526020019081526020016000206000828254611915919061284d565b9250508190555050565b600033905090565b6119a88363a9059cbb60e01b84846040516024016119469291906124de565b604051602081830303815290604052907bffffffffffffffffffffffffffffffffffffffffffffffffffffffff19166020820180517bffffffffffffffffffffffffffffffffffffffffffffffffffffffff8381831617835250505050611c29565b505050565b6119b561104a565b6119f4576040517f08c379a00000000000000000000000000000000000000000000000000000000081526004016119eb90612595565b60405180910390fd5b6000600160146101000a81548160ff0219169083151502179055507f5db9ee0a495bf2e6ff9c91a7834c1ba4fdd244a5e8aa4e537bd38aeae4b073aa611a3861191f565b604051611a45919061248c565b60405180910390a1565b6000600160009054906101000a900473ffffffffffffffffffffffffffffffffffffffff16905081600160006101000a81548173ffffffffffffffffffffffffffffffffffffffff021916908373ffffffffffffffffffffffffffffffffffffffff1602179055508173ffffffffffffffffffffffffffffffffffffffff168173ffffffffffffffffffffffffffffffffffffffff167f8be0079c531659141344cd1fd0a4f28419497f9722a3daafe3b4186f6b6457e060405160405180910390a35050565b611b1d61104a565b15611b5d576040517f08c379a0000000000000000000000000000000000000000000000000000000008152600401611b5490612615565b60405180910390fd5b60018060146101000a81548160ff0219169083151502179055507f62e78cea01bee320cd4e420270b5ea74000d11b0c9f74754ebdbfc544b05a258611ba061191f565b604051611bad919061248c565b60405180910390a1565b80600b6000828254611bc9919061292e565b9250508190555080600c60003373ffffffffffffffffffffffffffffffffffffffff1673ffffffffffffffffffffffffffffffffffffffff1681526020019081526020016000206000828254611c1f919061292e565b9250508190555050565b6000611c8b826040518060400160405280602081526020017f5361666545524332303a206c6f772d6c6576656c2063616c6c206661696c65648152508573ffffffffffffffffffffffffffffffffffffffff16611cf09092919063ffffffff16565b9050600081511115611ceb5780806020019051810190611cab9190612101565b611cea576040517f08c379a0000000000000000000000000000000000000000000000000000000008152600401611ce1906126d5565b60405180910390fd5b5b505050565b6060611cff8484600085611d08565b90509392505050565b606082471015611d4d576040517f08c379a0000000000000000000000000000000000000000000000000000000008152600401611d44906125f5565b60405180910390fd5b611d5685611e1c565b611d95576040517f08c379a0000000000000000000000000000000000000000000000000000000008152600401611d8c90612695565b60405180910390fd5b6000808673ffffffffffffffffffffffffffffffffffffffff168587604051611dbe9190612475565b60006040518083038185875af1925050503d8060008114611dfb576040519150601f19603f3d011682016040523d82523d6000602084013e611e00565b606091505b5091509150611e10828286611e3f565b92505050949350505050565b6000808273ffffffffffffffffffffffffffffffffffffffff163b119050919050565b60608315611e4f57829050611e9f565b600083511115611e625782518084602001fd5b816040517f08c379a0000000000000000000000000000000000000000000000000000000008152600401611e969190612573565b60405180910390fd5b9392505050565b6000611eb9611eb484612785565b612760565b90508083825260208201905082856020860282011115611edc57611edb612b52565b5b60005b85811015611f0c5781611ef28882611fde565b845260208401935060208301925050600181019050611edf565b5050509392505050565b6000611f29611f24846127b1565b612760565b905082815260208101848484011115611f4557611f44612b57565b5b611f50848285612a1e565b509392505050565b600081359050611f6781612e93565b92915050565b600082601f830112611f8257611f81612b4d565b5b8135611f92848260208601611ea6565b91505092915050565b600081519050611faa81612eaa565b92915050565b600082601f830112611fc557611fc4612b4d565b5b8135611fd5848260208601611f16565b91505092915050565b600081359050611fed81612ec1565b92915050565b60008151905061200281612ec1565b92915050565b60006020828403121561201e5761201d612b61565b5b600061202c84828501611f58565b91505092915050565b6000806000806080858703121561204f5761204e612b61565b5b600061205d87828801611f58565b945050602061206e87828801611f58565b935050604061207f87828801611fde565b925050606085013567ffffffffffffffff8111156120a05761209f612b5c565b5b6120ac87828801611fb0565b91505092959194509250565b6000602082840312156120ce576120cd612b61565b5b600082013567ffffffffffffffff8111156120ec576120eb612b5c565b5b6120f884828501611f6d565b91505092915050565b60006020828403121561211757612116612b61565b5b600061212584828501611f9b565b91505092915050565b60006020828403121561214457612143612b61565b5b600061215284828501611fde565b91505092915050565b60006020828403121561217157612170612b61565b5b600061217f84828501611ff3565b91505092915050565b60006121948383612457565b60208301905092915050565b6121a981612962565b82525050565b60006121ba826127f2565b6121c48185612820565b93506121cf836127e2565b8060005b838110156122005781516121e78882612188565b97506121f283612813565b9250506001810190506121d3565b5085935050505092915050565b61221681612974565b82525050565b61222581612980565b82525050565b6000612236826127fd565b6122408185612831565b9350612250818560208601612a2d565b80840191505092915050565b612265816129d6565b82525050565b612274816129e8565b82525050565b600061228582612808565b61228f818561283c565b935061229f818560208601612a2d565b6122a881612b66565b840191505092915050565b60006122c060148361283c565b91506122cb82612b77565b602082019050919050565b60006122e360248361283c565b91506122ee82612ba0565b604082019050919050565b600061230660268361283c565b915061231182612bef565b604082019050919050565b600061232960268361283c565b915061233482612c3e565b604082019050919050565b600061234c60108361283c565b915061235782612c8d565b602082019050919050565b600061236f60618361283c565b915061237a82612cb6565b608082019050919050565b600061239260208361283c565b915061239d82612d51565b602082019050919050565b60006123b560218361283c565b91506123c082612d7a565b604082019050919050565b60006123d8601d8361283c565b91506123e382612dc9565b602082019050919050565b60006123fb601d8361283c565b915061240682612df2565b602082019050919050565b600061241e602a8361283c565b915061242982612e1b565b604082019050919050565b6000612441601f8361283c565b915061244c82612e6a565b602082019050919050565b612460816129cc565b82525050565b61246f816129cc565b82525050565b6000612481828461222b565b915081905092915050565b60006020820190506124a160008301846121a0565b92915050565b60006060820190506124bc60008301866121a0565b6124c960208301856121a0565b6124d66040830184612466565b949350505050565b60006040820190506124f360008301856121a0565b6125006020830184612466565b9392505050565b600060208201905061251c600083018461220d565b92915050565b6000602082019050612537600083018461221c565b92915050565b6000602082019050612552600083018461225c565b92915050565b600060208201905061256d600083018461226b565b92915050565b6000602082019050818103600083015261258d818461227a565b905092915050565b600060208201905081810360008301526125ae816122b3565b9050919050565b600060208201905081810360008301526125ce816122d6565b9050919050565b600060208201905081810360008301526125ee816122f9565b9050919050565b6000602082019050818103600083015261260e8161231c565b9050919050565b6000602082019050818103600083015261262e8161233f565b9050919050565b6000602082019050818103600083015261264e81612362565b9050919050565b6000602082019050818103600083015261266e81612385565b9050919050565b6000602082019050818103600083015261268e816123a8565b9050919050565b600060208201905081810360008301526126ae816123cb565b9050919050565b600060208201905081810360008301526126ce816123ee565b9050919050565b600060208201905081810360008301526126ee81612411565b9050919050565b6000602082019050818103600083015261270e81612434565b9050919050565b600060208201905061272a6000830184612466565b92915050565b60006040820190506127456000830185612466565b818103602083015261275781846121af565b90509392505050565b600061276a61277b565b90506127768282612a60565b919050565b6000604051905090565b600067ffffffffffffffff8211156127a05761279f612b1e565b5b602082029050602081019050919050565b600067ffffffffffffffff8211156127cc576127cb612b1e565b5b6127d582612b66565b9050602081019050919050565b6000819050602082019050919050565b600081519050919050565b600081519050919050565b600081519050919050565b6000602082019050919050565b600082825260208201905092915050565b600081905092915050565b600082825260208201905092915050565b6000612858826129cc565b9150612863836129cc565b9250827fffffffffffffffffffffffffffffffffffffffffffffffffffffffffffffffff0382111561289857612897612a91565b5b828201905092915050565b60006128ae826129cc565b91506128b9836129cc565b9250826128c9576128c8612ac0565b5b828204905092915050565b60006128df826129cc565b91506128ea836129cc565b9250817fffffffffffffffffffffffffffffffffffffffffffffffffffffffffffffffff048311821515161561292357612922612a91565b5b828202905092915050565b6000612939826129cc565b9150612944836129cc565b92508282101561295757612956612a91565b5b828203905092915050565b600061296d826129ac565b9050919050565b60008115159050919050565b60007fffffffff0000000000000000000000000000000000000000000000000000000082169050919050565b600073ffffffffffffffffffffffffffffffffffffffff82169050919050565b6000819050919050565b60006129e1826129fa565b9050919050565b60006129f3826129fa565b9050919050565b6000612a0582612a0c565b9050919050565b6000612a17826129ac565b9050919050565b82818337600083830152505050565b60005b83811015612a4b578082015181840152602081019050612a30565b83811115612a5a576000848401525b50505050565b612a6982612b66565b810181811067ffffffffffffffff82111715612a8857612a87612b1e565b5b80604052505050565b7f4e487b7100000000000000000000000000000000000000000000000000000000600052601160045260246000fd5b7f4e487b7100000000000000000000000000000000000000000000000000000000600052601260045260246000fd5b7f4e487b7100000000000000000000000000000000000000000000000000000000600052603260045260246000fd5b7f4e487b7100000000000000000000000000000000000000000000000000000000600052604160045260246000fd5b600080fd5b600080fd5b600080fd5b600080fd5b600080fd5b6000601f19601f8301169050919050565b7f5061757361626c653a206e6f7420706175736564000000000000000000000000600082015250565b7f5374616b696e673a204e6f7420746865207374616b6572206f6620746865207460008201527f6f6b656e00000000000000000000000000000000000000000000000000000000602082015250565b7f4f776e61626c653a206e6577206f776e657220697320746865207a65726f206160008201527f6464726573730000000000000000000000000000000000000000000000000000602082015250565b7f416464726573733a20696e73756666696369656e742062616c616e636520666f60008201527f722063616c6c0000000000000000000000000000000000000000000000000000602082015250565b7f5061757361626c653a2070617573656400000000000000000000000000000000600082015250565b7f5374616b696e673a2050726576696f7573207265776172647320706572696f6460008201527f206d75737420626520636f6d706c657465206265666f7265206368616e67696e60208201527f6720746865206475726174696f6e20666f7220746865206e657720706572696f60408201527f6400000000000000000000000000000000000000000000000000000000000000606082015250565b7f4f776e61626c653a2063616c6c6572206973206e6f7420746865206f776e6572600082015250565b7f5374616b696e673a2050726f76696465642072657761726420746f6f2068696760008201527f6800000000000000000000000000000000000000000000000000000000000000602082015250565b7f416464726573733a2063616c6c20746f206e6f6e2d636f6e7472616374000000600082015250565b7f5374616b696e673a204e6f20746f6b656e4964732070726f7669646564000000600082015250565b7f5361666545524332303a204552433230206f7065726174696f6e20646964206e60008201527f6f74207375636365656400000000000000000000000000000000000000000000602082015250565b7f5265656e7472616e637947756172643a207265656e7472616e742063616c6c00600082015250565b612e9c81612962565b8114612ea757600080fd5b50565b612eb381612974565b8114612ebe57600080fd5b50565b612eca816129cc565b8114612ed557600080fd5b5056fea26469706673582212204a7d17ce8be55a1f330804dbb7a2c77cf48b1f6de974951d2ff954bdde94406164736f6c63430008070033",
  "immutableReferences": {},
  "source": "// SPDX-License-Identifier: MIT\r\npragma solidity ^0.8.7;\r\n\r\n/******************************************************************************\\\r\n* Custom implementation of the StakingRewards contract by Synthetix.\r\n*\r\n* https://docs.synthetix.io/contracts/source/contracts/stakingrewards\r\n* https://github.com/Synthetixio/synthetix/blob/develop/contracts/StakingRewards.sol\r\n/******************************************************************************/\r\n\r\nimport \"@openzeppelin/contracts/token/ERC721/IERC721.sol\";\r\nimport \"@openzeppelin/contracts/token/ERC20/IERC20.sol\";\r\nimport \"@openzeppelin/contracts/token/ERC20/utils/SafeERC20.sol\";\r\nimport \"@openzeppelin/contracts/token/ERC721/utils/ERC721Holder.sol\";\r\nimport \"@openzeppelin/contracts/security/ReentrancyGuard.sol\";\r\nimport \"@openzeppelin/contracts/security/Pausable.sol\";\r\nimport \"@openzeppelin/contracts/access/Ownable.sol\";\r\n\r\ncontract ERC721Staking is ERC721Holder, ReentrancyGuard, Ownable, Pausable {\r\n  using SafeERC20 for IERC20;\r\n\r\n  /* ========== STATE VARIABLES ========== */\r\n\r\n  IERC20 public rewardsToken;\r\n  IERC721 public stakingToken;\r\n  uint256 public periodFinish = 0;\r\n  uint256 public rewardRate = 0;\r\n  uint256 public rewardsDuration;\r\n  uint256 public lastUpdateTime;\r\n  uint256 public rewardPerTokenStored; // \r\n\r\n  mapping(address => uint256) public userRewardPerTokenPaid;\r\n  mapping(address => uint256) public rewards;\r\n\r\n  uint256 public totalSupply;\r\n  mapping(address => uint256) public balances;\r\n  mapping(uint256 => address) public stakedAssets;\r\n\r\n  /* ========== CONSTRUCTOR ========== */\r\n\r\n  constructor(\r\n    address _stakingToken,\r\n    address _rewardsToken,\r\n    uint256 _rewardsDuration\r\n  ) {\r\n    stakingToken = IERC721(_stakingToken);\r\n    rewardsToken = IERC20(_rewardsToken);\r\n    rewardsDuration = _rewardsDuration;\r\n  }\r\n\r\n  /* ========== VIEWS ========== */\r\n\r\n  function lastTimeRewardApplicable() public view returns (uint256) {\r\n    return block.timestamp < periodFinish ? block.timestamp : periodFinish;\r\n  }\r\n\r\n  function rewardPerToken() public view returns (uint256) {\r\n    if (totalSupply == 0) {\r\n      return rewardPerTokenStored;\r\n    }\r\n    return\r\n      rewardPerTokenStored +\r\n      //                                           *\r\n      (((lastTimeRewardApplicable() - lastUpdateTime) * rewardRate * 1e18) / totalSupply);\r\n  }\r\n\r\n  function earned(address account) public view returns (uint256) {\r\n    return ((balances[account] * (rewardPerToken() - userRewardPerTokenPaid[account])) / 1e18) + rewards[account];\r\n  }\r\n\r\n  function getRewardForDuration() external view returns (uint256) {\r\n    return rewardRate * rewardsDuration;\r\n  }\r\n\r\n  /* ========== MUTATIVE FUNCTIONS ========== */\r\n\r\n  /// @notice Stakes user's NFTs\r\n  /// @param tokenIds The tokenIds of the NFTs which will be staked\r\n  function stake(uint256[] memory tokenIds) external nonReentrant whenNotPaused updateReward(msg.sender) {\r\n    require(tokenIds.length != 0, \"Staking: No tokenIds provided\");\r\n\r\n    uint256 amount;\r\n    for (uint256 i = 0; i < tokenIds.length; i += 1) {\r\n      // Transfer user's NFTs to the staking contract\r\n      stakingToken.safeTransferFrom(msg.sender, address(this), tokenIds[i]);\r\n      // Increment the amount which will be staked\r\n      amount += 1;\r\n      // Save who is the staker/depositor of the token\r\n      stakedAssets[tokenIds[i]] = msg.sender;\r\n    }\r\n    _stake(amount);\r\n    emit Staked(msg.sender, amount, tokenIds);\r\n  }\r\n\r\n  /// @notice Withdraws staked user's NFTs\r\n  /// @param tokenIds The tokenIds of the NFTs which will be withdrawn\r\n  function withdraw(uint256[] memory tokenIds) public nonReentrant updateReward(msg.sender) {\r\n    require(tokenIds.length != 0, \"Staking: No tokenIds provided\");\r\n\r\n    uint256 amount;\r\n    for (uint256 i = 0; i < tokenIds.length; i += 1) {\r\n      // Check if the user who withdraws is the owner\r\n      require(stakedAssets[tokenIds[i]] == msg.sender, \"Staking: Not the staker of the token\");\r\n      // Transfer NFTs back to the owner\r\n      stakingToken.safeTransferFrom(address(this), msg.sender, tokenIds[i]);\r\n      // Increment the amount which will be withdrawn\r\n      amount += 1;\r\n      // Cleanup stakedAssets for the current tokenId\r\n      stakedAssets[tokenIds[i]] = address(0);\r\n    }\r\n    _withdraw(amount);\r\n\r\n    emit Withdrawn(msg.sender, amount, tokenIds);\r\n  }\r\n\r\n  //  \r\n  function getReward() public nonReentrant updateReward(msg.sender) {\r\n    // \r\n    uint256 reward = rewards[msg.sender];\r\n    if (reward > 0) {\r\n      rewards[msg.sender] = 0;\r\n      rewardsToken.safeTransfer(msg.sender, reward);\r\n      emit RewardPaid(msg.sender, reward);\r\n    }\r\n  }\r\n\r\n  function exit(uint256[] memory tokenIds) external {\r\n    withdraw(tokenIds);\r\n    getReward();\r\n  }\r\n\r\n  function _stake(uint256 _amount) internal {\r\n    totalSupply += _amount;\r\n    balances[msg.sender] += _amount;\r\n  }\r\n\r\n  function _withdraw(uint256 _amount) internal {\r\n    totalSupply -= _amount;\r\n    balances[msg.sender] -= _amount;\r\n  }\r\n\r\n  /* ========== RESTRICTED FUNCTIONS ========== */\r\n\r\n  /// @notice Calculates and sets the reward rate\r\n  /// @param reward The amount of the reward which will be distributed during the entire period\r\n  function notifyRewardAmount(uint256 reward) external onlyOwner updateReward(address(0)) {\r\n    if (block.timestamp >= periodFinish) {\r\n      rewardRate = reward / rewardsDuration;\r\n    } else {\r\n      uint256 remaining = periodFinish - block.timestamp;\r\n      uint256 leftover = remaining * rewardRate;\r\n      rewardRate = (reward + leftover) / rewardsDuration;\r\n    }\r\n\r\n    // Ensure the provided reward amount is not more than the balance in the contract.\r\n    // This keeps the reward rate in the right range, preventing overflows due to\r\n    // very high values of rewardRate in the earned and rewardsPerToken functions;\r\n    // Reward + leftover must be less than 2^256 / 10^18 to avoid overflow.\r\n    uint balance = rewardsToken.balanceOf(address(this));\r\n    require(rewardRate <= balance / rewardsDuration, \"Staking: Provided reward too high\");\r\n\r\n    lastUpdateTime = block.timestamp;\r\n    periodFinish = block.timestamp + rewardsDuration;\r\n    emit RewardAdded(reward);\r\n  }\r\n\r\n  function setRewardsDuration(uint256 _rewardsDuration) external onlyOwner {\r\n    require(\r\n      block.timestamp > periodFinish,\r\n      \"Staking: Previous rewards period must be complete before changing the duration for the new period\"\r\n    );\r\n    rewardsDuration = _rewardsDuration;\r\n    emit RewardsDurationUpdated(rewardsDuration);\r\n  }\r\n\r\n  function pause() external onlyOwner {\r\n    _pause();\r\n  }\r\n\r\n  function unpause() external onlyOwner {\r\n    _unpause();\r\n  }\r\n\r\n  /* ========== MODIFIERS ========== */\r\n\r\n  //  \r\n  modifier updateReward(address account) {\r\n    rewardPerTokenStored = rewardPerToken();\r\n    lastUpdateTime = lastTimeRewardApplicable();\r\n    if (account != address(0)) {\r\n      rewards[account] = earned(account);\r\n      userRewardPerTokenPaid[account] = rewardPerTokenStored;\r\n    }\r\n    _;\r\n  }\r\n\r\n  /* ========== EVENTS ========== */\r\n\r\n  event RewardAdded(uint256 reward);\r\n  event Staked(address indexed user, uint256 amount, uint256[] tokenIds);\r\n  event Withdrawn(address indexed user, uint256 amount, uint256[] tokenIds);\r\n  event RewardPaid(address indexed user, uint256 reward);\r\n  event RewardsDurationUpdated(uint256 newDuration);\r\n}\r\n",
  "sourcePath": "C:\\Users\\coco\\Desktop\\\\coco\\TEAM_PROJECT\\NFT_GAME\\contracts\\test.sol",
  "compiler": {
    "name": "solc",
    "version": "0.8.7+commit.e28d00a7.Emscripten.clang"
  },
  "schemaVersion": "3.4.4",
  "updatedAt": "2022-04-21T06:12:54.332Z",
  "devdoc": {
    "kind": "dev",
    "methods": {
      "notifyRewardAmount(uint256)": {
        "params": {
          "reward": "The amount of the reward which will be distributed during the entire period"
        }
      },
      "onERC721Received(address,address,uint256,bytes)": {
        "details": "See {IERC721Receiver-onERC721Received}. Always returns `IERC721Receiver.onERC721Received.selector`."
      },
      "owner()": {
        "details": "Returns the address of the current owner."
      },
      "paused()": {
        "details": "Returns true if the contract is paused, and false otherwise."
      },
      "renounceOwnership()": {
        "details": "Leaves the contract without owner. It will not be possible to call `onlyOwner` functions anymore. Can only be called by the current owner. NOTE: Renouncing ownership will leave the contract without an owner, thereby removing any functionality that is only available to the owner."
      },
      "stake(uint256[])": {
        "params": {
          "tokenIds": "The tokenIds of the NFTs which will be staked"
        }
      },
      "transferOwnership(address)": {
        "details": "Transfers ownership of the contract to a new account (`newOwner`). Can only be called by the current owner."
      },
      "withdraw(uint256[])": {
        "params": {
          "tokenIds": "The tokenIds of the NFTs which will be withdrawn"
        }
      }
    },
    "version": 1
  },
  "userdoc": {
    "kind": "user",
    "methods": {
      "notifyRewardAmount(uint256)": {
        "notice": "Calculates and sets the reward rate"
      },
      "stake(uint256[])": {
        "notice": "Stakes user's NFTs"
      },
      "withdraw(uint256[])": {
        "notice": "Withdraws staked user's NFTs"
      }
    },
    "version": 1
  }
}