{
  "contractName": "GameToken",
  "abi": [
    {
      "inputs": [],
      "stateMutability": "nonpayable",
      "type": "constructor"
    },
    {
      "anonymous": false,
      "inputs": [
        {
          "indexed": true,
          "internalType": "address",
          "name": "owner",
          "type": "address"
        },
        {
          "indexed": true,
          "internalType": "address",
          "name": "spender",
          "type": "address"
        },
        {
          "indexed": false,
          "internalType": "uint256",
          "name": "value",
          "type": "uint256"
        }
      ],
      "name": "Approval",
      "type": "event"
    },
    {
      "anonymous": false,
      "inputs": [
        {
          "indexed": true,
          "internalType": "address",
          "name": "previousOwner",
          "type": "address"
        },
        {
          "indexed": true,
          "internalType": "address",
          "name": "newOwner",
          "type": "address"
        }
      ],
      "name": "OwnershipTransferred",
      "type": "event"
    },
    {
      "anonymous": false,
      "inputs": [
        {
          "indexed": true,
          "internalType": "address",
          "name": "from",
          "type": "address"
        },
        {
          "indexed": true,
          "internalType": "address",
          "name": "to",
          "type": "address"
        },
        {
          "indexed": false,
          "internalType": "uint256",
          "name": "value",
          "type": "uint256"
        }
      ],
      "name": "Transfer",
      "type": "event"
    },
    {
      "inputs": [],
      "name": "owner",
      "outputs": [
        {
          "internalType": "address",
          "name": "",
          "type": "address"
        }
      ],
      "stateMutability": "view",
      "type": "function",
      "constant": true
    },
    {
      "inputs": [],
      "name": "renounceOwnership",
      "outputs": [],
      "stateMutability": "nonpayable",
      "type": "function"
    },
    {
      "inputs": [
        {
          "internalType": "address",
          "name": "newOwner",
          "type": "address"
        }
      ],
      "name": "transferOwnership",
      "outputs": [],
      "stateMutability": "nonpayable",
      "type": "function"
    },
    {
      "inputs": [],
      "name": "getOwner",
      "outputs": [
        {
          "internalType": "address",
          "name": "",
          "type": "address"
        }
      ],
      "stateMutability": "view",
      "type": "function",
      "constant": true
    },
    {
      "inputs": [],
      "name": "decimals",
      "outputs": [
        {
          "internalType": "uint8",
          "name": "",
          "type": "uint8"
        }
      ],
      "stateMutability": "view",
      "type": "function",
      "constant": true
    },
    {
      "inputs": [],
      "name": "symbol",
      "outputs": [
        {
          "internalType": "string",
          "name": "",
          "type": "string"
        }
      ],
      "stateMutability": "view",
      "type": "function",
      "constant": true
    },
    {
      "inputs": [],
      "name": "name",
      "outputs": [
        {
          "internalType": "string",
          "name": "",
          "type": "string"
        }
      ],
      "stateMutability": "view",
      "type": "function",
      "constant": true
    },
    {
      "inputs": [],
      "name": "totalSupply",
      "outputs": [
        {
          "internalType": "uint256",
          "name": "",
          "type": "uint256"
        }
      ],
      "stateMutability": "view",
      "type": "function",
      "constant": true
    },
    {
      "inputs": [
        {
          "internalType": "address",
          "name": "account",
          "type": "address"
        }
      ],
      "name": "balanceOf",
      "outputs": [
        {
          "internalType": "uint256",
          "name": "",
          "type": "uint256"
        }
      ],
      "stateMutability": "view",
      "type": "function",
      "constant": true
    },
    {
      "inputs": [
        {
          "internalType": "address",
          "name": "recipient",
          "type": "address"
        },
        {
          "internalType": "uint256",
          "name": "amount",
          "type": "uint256"
        }
      ],
      "name": "transfer",
      "outputs": [
        {
          "internalType": "bool",
          "name": "",
          "type": "bool"
        }
      ],
      "stateMutability": "nonpayable",
      "type": "function"
    },
    {
      "inputs": [
        {
          "internalType": "address",
          "name": "owner",
          "type": "address"
        },
        {
          "internalType": "address",
          "name": "spender",
          "type": "address"
        }
      ],
      "name": "allowance",
      "outputs": [
        {
          "internalType": "uint256",
          "name": "",
          "type": "uint256"
        }
      ],
      "stateMutability": "view",
      "type": "function",
      "constant": true
    },
    {
      "inputs": [
        {
          "internalType": "address",
          "name": "spender",
          "type": "address"
        },
        {
          "internalType": "uint256",
          "name": "amount",
          "type": "uint256"
        }
      ],
      "name": "approve",
      "outputs": [
        {
          "internalType": "bool",
          "name": "",
          "type": "bool"
        }
      ],
      "stateMutability": "nonpayable",
      "type": "function"
    },
    {
      "inputs": [
        {
          "internalType": "address",
          "name": "account",
          "type": "address"
        }
      ],
      "name": "test_getBlance",
      "outputs": [
        {
          "internalType": "uint256",
          "name": "",
          "type": "uint256"
        }
      ],
      "stateMutability": "view",
      "type": "function",
      "constant": true
    },
    {
      "inputs": [],
      "name": "getMsgSender",
      "outputs": [
        {
          "internalType": "address",
          "name": "",
          "type": "address"
        }
      ],
      "stateMutability": "view",
      "type": "function",
      "constant": true
    },
    {
      "inputs": [
        {
          "internalType": "address",
          "name": "owner",
          "type": "address"
        },
        {
          "internalType": "address",
          "name": "spender",
          "type": "address"
        },
        {
          "internalType": "uint256",
          "name": "amount",
          "type": "uint256"
        }
      ],
      "name": "_approve",
      "outputs": [],
      "stateMutability": "nonpayable",
      "type": "function"
    },
    {
      "inputs": [
        {
          "internalType": "address",
          "name": "spender",
          "type": "address"
        },
        {
          "internalType": "uint256",
          "name": "amount",
          "type": "uint256"
        }
      ],
      "name": "test_approve",
      "outputs": [],
      "stateMutability": "nonpayable",
      "type": "function"
    },
    {
      "inputs": [
        {
          "internalType": "address",
          "name": "sender",
          "type": "address"
        },
        {
          "internalType": "address",
          "name": "recipient",
          "type": "address"
        },
        {
          "internalType": "uint256",
          "name": "amount",
          "type": "uint256"
        }
      ],
      "name": "transferFrom",
      "outputs": [
        {
          "internalType": "bool",
          "name": "",
          "type": "bool"
        }
      ],
      "stateMutability": "nonpayable",
      "type": "function"
    },
    {
      "inputs": [
        {
          "internalType": "address",
          "name": "spender",
          "type": "address"
        },
        {
          "internalType": "uint256",
          "name": "addedValue",
          "type": "uint256"
        }
      ],
      "name": "increaseAllowance",
      "outputs": [
        {
          "internalType": "bool",
          "name": "",
          "type": "bool"
        }
      ],
      "stateMutability": "nonpayable",
      "type": "function"
    },
    {
      "inputs": [
        {
          "internalType": "address",
          "name": "spender",
          "type": "address"
        },
        {
          "internalType": "uint256",
          "name": "subtractedValue",
          "type": "uint256"
        }
      ],
      "name": "decreaseAllowance",
      "outputs": [
        {
          "internalType": "bool",
          "name": "",
          "type": "bool"
        }
      ],
      "stateMutability": "nonpayable",
      "type": "function"
    },
    {
      "inputs": [
        {
          "internalType": "uint256",
          "name": "amount",
          "type": "uint256"
        }
      ],
      "name": "mint",
      "outputs": [
        {
          "internalType": "bool",
          "name": "",
          "type": "bool"
        }
      ],
      "stateMutability": "nonpayable",
      "type": "function"
    }
  ],
  "bytecode": "0x60806040523480156200001157600080fd5b5062000032620000266200022f60201b60201c565b6200023760201b60201c565b6040518060400160405280601081526020017f446f72656d6947616d6520546f6b656e00000000000000000000000000000000815250600690805190602001906200007f929190620002fb565b506040518060400160405280600381526020017f444d47000000000000000000000000000000000000000000000000000000000081525060059080519060200190620000cd929190620002fb565b506000600460006101000a81548160ff021916908360ff160217905550620f424060038190555033600760006101000a81548173ffffffffffffffffffffffffffffffffffffffff021916908373ffffffffffffffffffffffffffffffffffffffff16021790555060035460016000600760009054906101000a900473ffffffffffffffffffffffffffffffffffffffff1673ffffffffffffffffffffffffffffffffffffffff1673ffffffffffffffffffffffffffffffffffffffff16815260200190815260200160002081905550600760009054906101000a900473ffffffffffffffffffffffffffffffffffffffff1673ffffffffffffffffffffffffffffffffffffffff16600073ffffffffffffffffffffffffffffffffffffffff167fddf252ad1be2c89b69c2b068fc378daa952ba7f163c4a11628f55a4df523b3ef600354604051620002219190620003bc565b60405180910390a362000448565b600033905090565b60008060009054906101000a900473ffffffffffffffffffffffffffffffffffffffff169050816000806101000a81548173ffffffffffffffffffffffffffffffffffffffff021916908373ffffffffffffffffffffffffffffffffffffffff1602179055508173ffffffffffffffffffffffffffffffffffffffff168173ffffffffffffffffffffffffffffffffffffffff167f8be0079c531659141344cd1fd0a4f28419497f9722a3daafe3b4186f6b6457e060405160405180910390a35050565b8280546200030990620003e3565b90600052602060002090601f0160209004810192826200032d576000855562000379565b82601f106200034857805160ff191683800117855562000379565b8280016001018555821562000379579182015b82811115620003785782518255916020019190600101906200035b565b5b5090506200038891906200038c565b5090565b5b80821115620003a75760008160009055506001016200038d565b5090565b620003b681620003d9565b82525050565b6000602082019050620003d36000830184620003ab565b92915050565b6000819050919050565b60006002820490506001821680620003fc57607f821691505b6020821081141562000413576200041262000419565b5b50919050565b7f4e487b7100000000000000000000000000000000000000000000000000000000600052602260045260246000fd5b611adf80620004586000396000f3fe608060405234801561001057600080fd5b506004361061012c5760003560e01c8063715018a6116100ad578063a0712d6811610071578063a0712d6814610335578063a457c2d714610365578063a9059cbb14610395578063dd62ed3e146103c5578063f2fde38b146103f55761012c565b8063715018a6146102b35780637a6ce2e1146102bd578063893d20e8146102db5780638da5cb5b146102f957806395d89b41146103175761012c565b806323b872dd116100f457806323b872dd146101e95780632bf1f26414610219578063313ce56714610235578063395093511461025357806370a08231146102835761012c565b806306fdde0314610131578063095ea7b31461014f5780630d67d4991461017f578063104e81ff146101af57806318160ddd146101cb575b600080fd5b610139610411565b6040516101469190611509565b60405180910390f35b610169600480360381019061016491906112d9565b6104a3565b60405161017691906114ee565b60405180910390f35b61019960048036038101906101949190611219565b6104c1565b6040516101a6919061162b565b60405180910390f35b6101c960048036038101906101c49190611286565b6104d3565b005b6101d361069e565b6040516101e0919061162b565b60405180910390f35b61020360048036038101906101fe9190611286565b6106a8565b60405161021091906114ee565b60405180910390f35b610233600480360381019061022e91906112d9565b610773565b005b61023d610789565b60405161024a9190611646565b60405180910390f35b61026d600480360381019061026891906112d9565b6107a0565b60405161027a91906114ee565b60405180910390f35b61029d60048036038101906102989190611219565b61084a565b6040516102aa919061162b565b60405180910390f35b6102bb610893565b005b6102c561091b565b6040516102d291906114d3565b60405180910390f35b6102e361092a565b6040516102f091906114d3565b60405180910390f35b610301610939565b60405161030e91906114d3565b60405180910390f35b61031f610962565b60405161032c9190611509565b60405180910390f35b61034f600480360381019061034a9190611319565b6109f4565b60405161035c91906114ee565b60405180910390f35b61037f600480360381019061037a91906112d9565b610a8c565b60405161038c91906114ee565b60405180910390f35b6103af60048036038101906103aa91906112d9565b610b03565b6040516103bc91906114ee565b60405180910390f35b6103df60048036038101906103da9190611246565b610b21565b6040516103ec919061162b565b60405180910390f35b61040f600480360381019061040a9190611219565b610ba8565b005b6060600680546104209061175b565b80601f016020809104026020016040519081016040528092919081815260200182805461044c9061175b565b80156104995780601f1061046e57610100808354040283529160200191610499565b820191906000526020600020905b81548152906001019060200180831161047c57829003601f168201915b5050505050905090565b60006104b76104b0610ca0565b84846104d3565b6001905092915050565b60006104cc8261084a565b9050919050565b600073ffffffffffffffffffffffffffffffffffffffff168373ffffffffffffffffffffffffffffffffffffffff161415610543576040517f08c379a000000000000000000000000000000000000000000000000000000000815260040161053a9061154b565b60405180910390fd5b600073ffffffffffffffffffffffffffffffffffffffff168273ffffffffffffffffffffffffffffffffffffffff1614156105b3576040517f08c379a00000000000000000000000000000000000000000000000000000000081526004016105aa906115eb565b60405180910390fd5b80600260008573ffffffffffffffffffffffffffffffffffffffff1673ffffffffffffffffffffffffffffffffffffffff16815260200190815260200160002060008473ffffffffffffffffffffffffffffffffffffffff1673ffffffffffffffffffffffffffffffffffffffff168152602001908152602001600020819055508173ffffffffffffffffffffffffffffffffffffffff168373ffffffffffffffffffffffffffffffffffffffff167f8c5be1e5ebec7d5bd14f71427d1e84f3dd0314c0f7b2291e5b200ac8c7c3b92583604051610691919061162b565b60405180910390a3505050565b6000600354905090565b600061075d848461075885604051806060016040528060288152602001611a5c60289139600260008b73ffffffffffffffffffffffffffffffffffffffff1673ffffffffffffffffffffffffffffffffffffffff16815260200190815260200160002060008a73ffffffffffffffffffffffffffffffffffffffff1673ffffffffffffffffffffffffffffffffffffffff16815260200190815260200160002054610ca89092919063ffffffff16565b6104d3565b610768848484610cfd565b600190509392505050565b61078561077e610ca0565b83836104d3565b5050565b6000600460009054906101000a900460ff16905090565b6000806107ab610ca0565b905061083f818585600260008673ffffffffffffffffffffffffffffffffffffffff1673ffffffffffffffffffffffffffffffffffffffff16815260200190815260200160002060008973ffffffffffffffffffffffffffffffffffffffff1673ffffffffffffffffffffffffffffffffffffffff1681526020019081526020016000205461083a919061167d565b6104d3565b600191505092915050565b6000600160008373ffffffffffffffffffffffffffffffffffffffff1673ffffffffffffffffffffffffffffffffffffffff168152602001908152602001600020549050919050565b61089b610ca0565b73ffffffffffffffffffffffffffffffffffffffff166108b9610939565b73ffffffffffffffffffffffffffffffffffffffff161461090f576040517f08c379a0000000000000000000000000000000000000000000000000000000008152600401610906906115ab565b60405180910390fd5b6109196000610f8b565b565b6000610925610ca0565b905090565b6000610934610939565b905090565b60008060009054906101000a900473ffffffffffffffffffffffffffffffffffffffff16905090565b6060600580546109719061175b565b80601f016020809104026020016040519081016040528092919081815260200182805461099d9061175b565b80156109ea5780601f106109bf576101008083540402835291602001916109ea565b820191906000526020600020905b8154815290600101906020018083116109cd57829003601f168201915b5050505050905090565b60006109fe610ca0565b73ffffffffffffffffffffffffffffffffffffffff16610a1c610939565b73ffffffffffffffffffffffffffffffffffffffff1614610a72576040517f08c379a0000000000000000000000000000000000000000000000000000000008152600401610a69906115ab565b60405180910390fd5b610a83610a7d610ca0565b8361104f565b60019050919050565b600080610a97610ca0565b90506000610aa58286610b21565b905083811015610aea576040517f08c379a0000000000000000000000000000000000000000000000000000000008152600401610ae19061160b565b60405180910390fd5b610af782868684036104d3565b60019250505092915050565b6000610b17610b10610ca0565b8484610cfd565b6001905092915050565b6000600260008473ffffffffffffffffffffffffffffffffffffffff1673ffffffffffffffffffffffffffffffffffffffff16815260200190815260200160002060008373ffffffffffffffffffffffffffffffffffffffff1673ffffffffffffffffffffffffffffffffffffffff16815260200190815260200160002054905092915050565b610bb0610ca0565b73ffffffffffffffffffffffffffffffffffffffff16610bce610939565b73ffffffffffffffffffffffffffffffffffffffff1614610c24576040517f08c379a0000000000000000000000000000000000000000000000000000000008152600401610c1b906115ab565b60405180910390fd5b600073ffffffffffffffffffffffffffffffffffffffff168173ffffffffffffffffffffffffffffffffffffffff161415610c94576040517f08c379a0000000000000000000000000000000000000000000000000000000008152600401610c8b9061156b565b60405180910390fd5b610c9d81610f8b565b50565b600033905090565b6000838311158290610cf0576040517f08c379a0000000000000000000000000000000000000000000000000000000008152600401610ce79190611509565b60405180910390fd5b5082840390509392505050565b600073ffffffffffffffffffffffffffffffffffffffff168373ffffffffffffffffffffffffffffffffffffffff161415610d6d576040517f08c379a0000000000000000000000000000000000000000000000000000000008152600401610d649061152b565b60405180910390fd5b600073ffffffffffffffffffffffffffffffffffffffff168273ffffffffffffffffffffffffffffffffffffffff161415610ddd576040517f08c379a0000000000000000000000000000000000000000000000000000000008152600401610dd4906115cb565b60405180910390fd5b610e4981604051806060016040528060268152602001611a8460269139600160008773ffffffffffffffffffffffffffffffffffffffff1673ffffffffffffffffffffffffffffffffffffffff16815260200190815260200160002054610ca89092919063ffffffff16565b600160008573ffffffffffffffffffffffffffffffffffffffff1673ffffffffffffffffffffffffffffffffffffffff16815260200190815260200160002081905550610ede81600160008573ffffffffffffffffffffffffffffffffffffffff1673ffffffffffffffffffffffffffffffffffffffff168152602001908152602001600020546111d990919063ffffffff16565b600160008473ffffffffffffffffffffffffffffffffffffffff1673ffffffffffffffffffffffffffffffffffffffff168152602001908152602001600020819055508173ffffffffffffffffffffffffffffffffffffffff168373ffffffffffffffffffffffffffffffffffffffff167fddf252ad1be2c89b69c2b068fc378daa952ba7f163c4a11628f55a4df523b3ef83604051610f7e919061162b565b60405180910390a3505050565b60008060009054906101000a900473ffffffffffffffffffffffffffffffffffffffff169050816000806101000a81548173ffffffffffffffffffffffffffffffffffffffff021916908373ffffffffffffffffffffffffffffffffffffffff1602179055508173ffffffffffffffffffffffffffffffffffffffff168173ffffffffffffffffffffffffffffffffffffffff167f8be0079c531659141344cd1fd0a4f28419497f9722a3daafe3b4186f6b6457e060405160405180910390a35050565b600073ffffffffffffffffffffffffffffffffffffffff168273ffffffffffffffffffffffffffffffffffffffff1614156110bf576040517f08c379a00000000000000000000000000000000000000000000000000000000081526004016110b69061158b565b60405180910390fd5b6110d4816003546111d990919063ffffffff16565b60038190555061112c81600160008573ffffffffffffffffffffffffffffffffffffffff1673ffffffffffffffffffffffffffffffffffffffff168152602001908152602001600020546111d990919063ffffffff16565b600160008473ffffffffffffffffffffffffffffffffffffffff1673ffffffffffffffffffffffffffffffffffffffff168152602001908152602001600020819055508173ffffffffffffffffffffffffffffffffffffffff16600073ffffffffffffffffffffffffffffffffffffffff167fddf252ad1be2c89b69c2b068fc378daa952ba7f163c4a11628f55a4df523b3ef836040516111cd919061162b565b60405180910390a35050565b600081836111e7919061167d565b905092915050565b6000813590506111fe81611a2d565b92915050565b60008135905061121381611a44565b92915050565b60006020828403121561122f5761122e6117eb565b5b600061123d848285016111ef565b91505092915050565b6000806040838503121561125d5761125c6117eb565b5b600061126b858286016111ef565b925050602061127c858286016111ef565b9150509250929050565b60008060006060848603121561129f5761129e6117eb565b5b60006112ad868287016111ef565b93505060206112be868287016111ef565b92505060406112cf86828701611204565b9150509250925092565b600080604083850312156112f0576112ef6117eb565b5b60006112fe858286016111ef565b925050602061130f85828601611204565b9150509250929050565b60006020828403121561132f5761132e6117eb565b5b600061133d84828501611204565b91505092915050565b61134f816116d3565b82525050565b61135e816116e5565b82525050565b600061136f82611661565b611379818561166c565b9350611389818560208601611728565b611392816117f0565b840191505092915050565b60006113aa60258361166c565b91506113b582611801565b604082019050919050565b60006113cd60248361166c565b91506113d882611850565b604082019050919050565b60006113f060268361166c565b91506113fb8261189f565b604082019050919050565b6000611413601f8361166c565b915061141e826118ee565b602082019050919050565b600061143660208361166c565b915061144182611917565b602082019050919050565b600061145960238361166c565b915061146482611940565b604082019050919050565b600061147c60228361166c565b91506114878261198f565b604082019050919050565b600061149f60258361166c565b91506114aa826119de565b604082019050919050565b6114be81611711565b82525050565b6114cd8161171b565b82525050565b60006020820190506114e86000830184611346565b92915050565b60006020820190506115036000830184611355565b92915050565b600060208201905081810360008301526115238184611364565b905092915050565b600060208201905081810360008301526115448161139d565b9050919050565b60006020820190508181036000830152611564816113c0565b9050919050565b60006020820190508181036000830152611584816113e3565b9050919050565b600060208201905081810360008301526115a481611406565b9050919050565b600060208201905081810360008301526115c481611429565b9050919050565b600060208201905081810360008301526115e48161144c565b9050919050565b600060208201905081810360008301526116048161146f565b9050919050565b6000602082019050818103600083015261162481611492565b9050919050565b600060208201905061164060008301846114b5565b92915050565b600060208201905061165b60008301846114c4565b92915050565b600081519050919050565b600082825260208201905092915050565b600061168882611711565b915061169383611711565b9250827fffffffffffffffffffffffffffffffffffffffffffffffffffffffffffffffff038211156116c8576116c761178d565b5b828201905092915050565b60006116de826116f1565b9050919050565b60008115159050919050565b600073ffffffffffffffffffffffffffffffffffffffff82169050919050565b6000819050919050565b600060ff82169050919050565b60005b8381101561174657808201518184015260208101905061172b565b83811115611755576000848401525b50505050565b6000600282049050600182168061177357607f821691505b60208210811415611787576117866117bc565b5b50919050565b7f4e487b7100000000000000000000000000000000000000000000000000000000600052601160045260246000fd5b7f4e487b7100000000000000000000000000000000000000000000000000000000600052602260045260246000fd5b600080fd5b6000601f19601f8301169050919050565b7f42455032303a207472616e736665722066726f6d20746865207a65726f20616460008201527f6472657373000000000000000000000000000000000000000000000000000000602082015250565b7f42455032303a20617070726f76652066726f6d20746865207a65726f2061646460008201527f7265737300000000000000000000000000000000000000000000000000000000602082015250565b7f4f776e61626c653a206e6577206f776e657220697320746865207a65726f206160008201527f6464726573730000000000000000000000000000000000000000000000000000602082015250565b7f42455032303a206d696e7420746f20746865207a65726f206164647265737300600082015250565b7f4f776e61626c653a2063616c6c6572206973206e6f7420746865206f776e6572600082015250565b7f42455032303a207472616e7366657220746f20746865207a65726f206164647260008201527f6573730000000000000000000000000000000000000000000000000000000000602082015250565b7f42455032303a20617070726f766520746f20746865207a65726f20616464726560008201527f7373000000000000000000000000000000000000000000000000000000000000602082015250565b7f45524332303a2064656372656173656420616c6c6f77616e63652062656c6f7760008201527f207a65726f000000000000000000000000000000000000000000000000000000602082015250565b611a36816116d3565b8114611a4157600080fd5b50565b611a4d81611711565b8114611a5857600080fd5b5056fe42455032303a207472616e7366657220616d6f756e74206578636565647320616c6c6f77616e636542455032303a207472616e7366657220616d6f756e7420657863656564732062616c616e6365a2646970667358221220f346259cf4b8ce86100c55dd52629e84459638facc4ee290ecba087d0002ef8564736f6c63430008070033",
  "immutableReferences": {},
  "source": "// SPDX-License-Identifier: MIT\r\npragma solidity >=0.5.16 <9.0.0;\r\n\r\nimport \"../node_modules/@openzeppelin/contracts/token/ERC20/IERC20.sol\";\r\nimport \"../node_modules/@openzeppelin/contracts/utils/Context.sol\";\r\nimport \"../node_modules/@openzeppelin/contracts/access/Ownable.sol\";\r\nimport \"../node_modules/@openzeppelin/contracts/utils/Math/SafeMath.sol\";\r\n\r\ncontract GameToken is Context, IERC20, Ownable {\r\n  using SafeMath for uint;\r\n\r\n  mapping(address => uint256) private _balances;\r\n  mapping(address => mapping(address => uint256)) private _allowances;\r\n\r\n  uint256 private _totalSupply;\r\n  uint8 private _decimals;\r\n  string private _symbol;\r\n  string private _name;\r\n  address private _owner;\r\n\r\n  constructor() {\r\n    _name = \"DoremiGame Token\";\r\n    _symbol = \"DMG\";\r\n    _decimals = 0;\r\n    _totalSupply = 1000000;\r\n    _owner = msg.sender;\r\n    _balances[_owner] = _totalSupply;\r\n    // _balances[_owner] = _totalSupply;\r\n\r\n    emit Transfer(address(0), _owner, _totalSupply);\r\n  }\r\n\r\n  /* Getter function*/\r\n\r\n  function getOwner() external view virtual returns (address) {\r\n    return owner();\r\n  }\r\n\r\n  function decimals() external view virtual returns (uint8) {\r\n    return _decimals;\r\n  }\r\n\r\n  function symbol() external view virtual returns (string memory) {\r\n    return _symbol;\r\n  }\r\n\r\n  function name() external view virtual returns (string memory) {\r\n    return _name;\r\n  }\r\n\r\n  function totalSupply() external view virtual override returns (uint256) {\r\n    return _totalSupply;\r\n  }\r\n\r\n  function balanceOf(address account) public view virtual override returns (uint256) {\r\n    return _balances[account];\r\n  }\r\n\r\n  function transfer(address recipient, uint256 amount) external virtual override returns (bool) {\r\n    _transfer(_msgSender(), recipient, amount);\r\n    return true;\r\n  }\r\n\r\n  function allowance(address owner, address spender) public view virtual override returns (uint256) {\r\n    return _allowances[owner][spender];\r\n  }\r\n\r\n  function approve(address spender, uint256 amount) external virtual override returns (bool) {\r\n    _approve(_msgSender(), spender, amount);\r\n    return true;\r\n  }\r\n\r\n  function test_getBlance(address account) public view returns (uint) {\r\n    return balanceOf(account);\r\n  }\r\n\r\n  function getMsgSender() external view returns (address) {\r\n    return _msgSender();\r\n  }\r\n\r\n  /* General function  */\r\n\r\n  function _approve(\r\n    address owner,\r\n    address spender,\r\n    uint256 amount\r\n  ) public virtual {\r\n    require(owner != address(0), \"BEP20: approve from the zero address\");\r\n    require(spender != address(0), \"BEP20: approve to the zero address\");\r\n\r\n    _allowances[owner][spender] = amount;\r\n\r\n    emit Approval(owner, spender, amount);\r\n  }\r\n\r\n  function test_approve(address spender, uint256 amount) public virtual {\r\n    _approve(_msgSender(), spender, amount);\r\n  }\r\n\r\n  function transferFrom(\r\n    address sender,\r\n    address recipient,\r\n    uint256 amount\r\n  ) public virtual override returns (bool) {\r\n    _approve(sender, recipient, _allowances[sender][recipient].sub(amount, \"BEP20: transfer amount exceeds allowance\"));\r\n    _transfer(sender, recipient, amount);\r\n    return true;\r\n  }\r\n\r\n  function increaseAllowance(address spender, uint256 addedValue) public virtual returns (bool) {\r\n    address owner = _msgSender();\r\n    _approve(owner, spender, _allowances[owner][spender] + addedValue);\r\n    return true;\r\n  }\r\n\r\n  function decreaseAllowance(address spender, uint256 subtractedValue) public virtual returns (bool) {\r\n    address owner = _msgSender();\r\n    uint256 currentAllowance = allowance(owner, spender);\r\n    require(currentAllowance >= subtractedValue, \"ERC20: decreased allowance below zero\");\r\n    unchecked {\r\n      _approve(owner, spender, currentAllowance - subtractedValue);\r\n    }\r\n\r\n    return true;\r\n  }\r\n\r\n  function mint(uint256 amount) public virtual onlyOwner returns (bool) {\r\n    _mint(_msgSender(), amount);\r\n    return true;\r\n  }\r\n\r\n  /* Helper function */\r\n\r\n  function _transfer(\r\n    address sender,\r\n    address recipient,\r\n    uint256 amount\r\n  ) internal virtual {\r\n    require(sender != address(0), \"BEP20: transfer from the zero address\");\r\n    require(recipient != address(0), \"BEP20: transfer to the zero address\");\r\n\r\n    _balances[sender] = _balances[sender].sub(amount, \"BEP20: transfer amount exceeds balance\");\r\n    _balances[recipient] = _balances[recipient].add(amount);\r\n\r\n    emit Transfer(sender, recipient, amount);\r\n  }\r\n\r\n  function _mint(address account, uint256 amount) internal {\r\n    require(account != address(0), \"BEP20: mint to the zero address\");\r\n\r\n    _totalSupply = _totalSupply.add(amount);\r\n    _balances[account] = _balances[account].add(amount);\r\n\r\n    emit Transfer(address(0), account, amount);\r\n  }\r\n\r\n  function _burn(address account, uint256 amount) internal virtual {\r\n    require(account != address(0), \"BEP20: burn from the zero address\");\r\n\r\n    _balances[account] = _balances[account].sub(amount, \"BEP20: burn amount exceeds balance\");\r\n    _totalSupply = _totalSupply.sub(amount);\r\n\r\n    emit Transfer(account, address(0), amount);\r\n  }\r\n\r\n  function _burnFrom(address account, uint256 amount) internal virtual {\r\n    _burn(account, amount);\r\n    _approve(\r\n      account,\r\n      _msgSender(),\r\n      _allowances[account][_msgSender()].sub(amount, \"BEP20: burn amount exceeds allowance\")\r\n    );\r\n  }\r\n}\r\n",
  "sourcePath": "C:\\Users\\coco\\Desktop\\\\coco\\TEAM_PROJECT\\NFT_GAME\\contracts\\GameToken.sol",
  "compiler": {
    "name": "solc",
    "version": "0.8.7+commit.e28d00a7.Emscripten.clang"
  },
  "schemaVersion": "3.4.4",
  "updatedAt": "2022-04-21T06:13:05.192Z",
  "networkType": "ethereum",
  "devdoc": {
    "kind": "dev",
    "methods": {
      "allowance(address,address)": {
        "details": "Returns the remaining number of tokens that `spender` will be allowed to spend on behalf of `owner` through {transferFrom}. This is zero by default. This value changes when {approve} or {transferFrom} are called."
      },
      "approve(address,uint256)": {
        "details": "Sets `amount` as the allowance of `spender` over the caller's tokens. Returns a boolean value indicating whether the operation succeeded. IMPORTANT: Beware that changing an allowance with this method brings the risk that someone may use both the old and the new allowance by unfortunate transaction ordering. One possible solution to mitigate this race condition is to first reduce the spender's allowance to 0 and set the desired value afterwards: https://github.com/ethereum/EIPs/issues/20#issuecomment-263524729 Emits an {Approval} event."
      },
      "balanceOf(address)": {
        "details": "Returns the amount of tokens owned by `account`."
      },
      "owner()": {
        "details": "Returns the address of the current owner."
      },
      "renounceOwnership()": {
        "details": "Leaves the contract without owner. It will not be possible to call `onlyOwner` functions anymore. Can only be called by the current owner. NOTE: Renouncing ownership will leave the contract without an owner, thereby removing any functionality that is only available to the owner."
      },
      "totalSupply()": {
        "details": "Returns the amount of tokens in existence."
      },
      "transferOwnership(address)": {
        "details": "Transfers ownership of the contract to a new account (`newOwner`). Can only be called by the current owner."
      }
    },
    "version": 1
  },
  "userdoc": {
    "kind": "user",
    "methods": {},
    "version": 1
  }
}