{
  "contractName": "NftContract",
  "abi": [
    {
      "inputs": [],
      "stateMutability": "nonpayable",
      "type": "constructor"
    },
    {
      "anonymous": false,
      "inputs": [
        {
          "indexed": true,
          "internalType": "address",
          "name": "owner",
          "type": "address"
        },
        {
          "indexed": true,
          "internalType": "address",
          "name": "approved",
          "type": "address"
        },
        {
          "indexed": true,
          "internalType": "uint256",
          "name": "tokenId",
          "type": "uint256"
        }
      ],
      "name": "Approval",
      "type": "event"
    },
    {
      "anonymous": false,
      "inputs": [
        {
          "indexed": true,
          "internalType": "address",
          "name": "owner",
          "type": "address"
        },
        {
          "indexed": true,
          "internalType": "address",
          "name": "operator",
          "type": "address"
        },
        {
          "indexed": false,
          "internalType": "bool",
          "name": "approved",
          "type": "bool"
        }
      ],
      "name": "ApprovalForAll",
      "type": "event"
    },
    {
      "anonymous": false,
      "inputs": [
        {
          "indexed": true,
          "internalType": "uint256",
          "name": "tokenId",
          "type": "uint256"
        },
        {
          "indexed": false,
          "internalType": "address",
          "name": "from",
          "type": "address"
        },
        {
          "indexed": false,
          "internalType": "address",
          "name": "to",
          "type": "address"
        },
        {
          "indexed": false,
          "internalType": "uint256",
          "name": "time",
          "type": "uint256"
        },
        {
          "indexed": false,
          "internalType": "string",
          "name": "historyType",
          "type": "string"
        }
      ],
      "name": "NftHistory",
      "type": "event"
    },
    {
      "anonymous": false,
      "inputs": [
        {
          "indexed": true,
          "internalType": "address",
          "name": "from",
          "type": "address"
        },
        {
          "indexed": true,
          "internalType": "address",
          "name": "to",
          "type": "address"
        },
        {
          "indexed": true,
          "internalType": "uint256",
          "name": "tokenId",
          "type": "uint256"
        }
      ],
      "name": "Transfer",
      "type": "event"
    },
    {
      "inputs": [
        {
          "internalType": "address",
          "name": "to",
          "type": "address"
        },
        {
          "internalType": "uint256",
          "name": "tokenId",
          "type": "uint256"
        }
      ],
      "name": "approve",
      "outputs": [],
      "stateMutability": "nonpayable",
      "type": "function"
    },
    {
      "inputs": [
        {
          "internalType": "address",
          "name": "owner",
          "type": "address"
        }
      ],
      "name": "balanceOf",
      "outputs": [
        {
          "internalType": "uint256",
          "name": "",
          "type": "uint256"
        }
      ],
      "stateMutability": "view",
      "type": "function",
      "constant": true
    },
    {
      "inputs": [
        {
          "internalType": "uint256",
          "name": "tokenId",
          "type": "uint256"
        }
      ],
      "name": "getApproved",
      "outputs": [
        {
          "internalType": "address",
          "name": "",
          "type": "address"
        }
      ],
      "stateMutability": "view",
      "type": "function",
      "constant": true
    },
    {
      "inputs": [
        {
          "internalType": "address",
          "name": "owner",
          "type": "address"
        },
        {
          "internalType": "address",
          "name": "operator",
          "type": "address"
        }
      ],
      "name": "isApprovedForAll",
      "outputs": [
        {
          "internalType": "bool",
          "name": "",
          "type": "bool"
        }
      ],
      "stateMutability": "view",
      "type": "function",
      "constant": true
    },
    {
      "inputs": [
        {
          "internalType": "address",
          "name": "",
          "type": "address"
        },
        {
          "internalType": "uint256",
          "name": "",
          "type": "uint256"
        }
      ],
      "name": "myNfts",
      "outputs": [
        {
          "internalType": "uint16",
          "name": "id",
          "type": "uint16"
        },
        {
          "internalType": "string",
          "name": "uri",
          "type": "string"
        }
      ],
      "stateMutability": "view",
      "type": "function",
      "constant": true
    },
    {
      "inputs": [],
      "name": "name",
      "outputs": [
        {
          "internalType": "string",
          "name": "",
          "type": "string"
        }
      ],
      "stateMutability": "view",
      "type": "function",
      "constant": true
    },
    {
      "inputs": [
        {
          "internalType": "uint256",
          "name": "tokenId",
          "type": "uint256"
        }
      ],
      "name": "ownerOf",
      "outputs": [
        {
          "internalType": "address",
          "name": "",
          "type": "address"
        }
      ],
      "stateMutability": "view",
      "type": "function",
      "constant": true
    },
    {
      "inputs": [],
      "name": "remainedGreen",
      "outputs": [
        {
          "internalType": "uint16",
          "name": "",
          "type": "uint16"
        }
      ],
      "stateMutability": "view",
      "type": "function",
      "constant": true
    },
    {
      "inputs": [],
      "name": "remainedPurple",
      "outputs": [
        {
          "internalType": "uint16",
          "name": "",
          "type": "uint16"
        }
      ],
      "stateMutability": "view",
      "type": "function",
      "constant": true
    },
    {
      "inputs": [],
      "name": "remainedRed",
      "outputs": [
        {
          "internalType": "uint16",
          "name": "",
          "type": "uint16"
        }
      ],
      "stateMutability": "view",
      "type": "function",
      "constant": true
    },
    {
      "inputs": [
        {
          "internalType": "address",
          "name": "from",
          "type": "address"
        },
        {
          "internalType": "address",
          "name": "to",
          "type": "address"
        },
        {
          "internalType": "uint256",
          "name": "tokenId",
          "type": "uint256"
        }
      ],
      "name": "safeTransferFrom",
      "outputs": [],
      "stateMutability": "nonpayable",
      "type": "function"
    },
    {
      "inputs": [
        {
          "internalType": "address",
          "name": "from",
          "type": "address"
        },
        {
          "internalType": "address",
          "name": "to",
          "type": "address"
        },
        {
          "internalType": "uint256",
          "name": "tokenId",
          "type": "uint256"
        },
        {
          "internalType": "bytes",
          "name": "_data",
          "type": "bytes"
        }
      ],
      "name": "safeTransferFrom",
      "outputs": [],
      "stateMutability": "nonpayable",
      "type": "function"
    },
    {
      "inputs": [
        {
          "internalType": "address",
          "name": "operator",
          "type": "address"
        },
        {
          "internalType": "bool",
          "name": "approved",
          "type": "bool"
        }
      ],
      "name": "setApprovalForAll",
      "outputs": [],
      "stateMutability": "nonpayable",
      "type": "function"
    },
    {
      "inputs": [
        {
          "internalType": "bytes4",
          "name": "interfaceId",
          "type": "bytes4"
        }
      ],
      "name": "supportsInterface",
      "outputs": [
        {
          "internalType": "bool",
          "name": "",
          "type": "bool"
        }
      ],
      "stateMutability": "view",
      "type": "function",
      "constant": true
    },
    {
      "inputs": [],
      "name": "symbol",
      "outputs": [
        {
          "internalType": "string",
          "name": "",
          "type": "string"
        }
      ],
      "stateMutability": "view",
      "type": "function",
      "constant": true
    },
    {
      "inputs": [
        {
          "internalType": "uint256",
          "name": "index",
          "type": "uint256"
        }
      ],
      "name": "tokenByIndex",
      "outputs": [
        {
          "internalType": "uint256",
          "name": "",
          "type": "uint256"
        }
      ],
      "stateMutability": "view",
      "type": "function",
      "constant": true
    },
    {
      "inputs": [],
      "name": "tokenIds_green",
      "outputs": [
        {
          "internalType": "uint16",
          "name": "",
          "type": "uint16"
        }
      ],
      "stateMutability": "view",
      "type": "function",
      "constant": true
    },
    {
      "inputs": [],
      "name": "tokenIds_purple",
      "outputs": [
        {
          "internalType": "uint16",
          "name": "",
          "type": "uint16"
        }
      ],
      "stateMutability": "view",
      "type": "function",
      "constant": true
    },
    {
      "inputs": [],
      "name": "tokenIds_red",
      "outputs": [
        {
          "internalType": "uint16",
          "name": "",
          "type": "uint16"
        }
      ],
      "stateMutability": "view",
      "type": "function",
      "constant": true
    },
    {
      "inputs": [
        {
          "internalType": "address",
          "name": "owner",
          "type": "address"
        },
        {
          "internalType": "uint256",
          "name": "index",
          "type": "uint256"
        }
      ],
      "name": "tokenOfOwnerByIndex",
      "outputs": [
        {
          "internalType": "uint256",
          "name": "",
          "type": "uint256"
        }
      ],
      "stateMutability": "view",
      "type": "function",
      "constant": true
    },
    {
      "inputs": [],
      "name": "totalSupply",
      "outputs": [
        {
          "internalType": "uint256",
          "name": "",
          "type": "uint256"
        }
      ],
      "stateMutability": "view",
      "type": "function",
      "constant": true
    },
    {
      "inputs": [
        {
          "internalType": "address",
          "name": "from",
          "type": "address"
        },
        {
          "internalType": "address",
          "name": "to",
          "type": "address"
        },
        {
          "internalType": "uint256",
          "name": "tokenId",
          "type": "uint256"
        }
      ],
      "name": "transferFrom",
      "outputs": [],
      "stateMutability": "nonpayable",
      "type": "function"
    },
    {
      "inputs": [
        {
          "internalType": "uint256",
          "name": "tokenId",
          "type": "uint256"
        }
      ],
      "name": "tokenURI",
      "outputs": [
        {
          "internalType": "string",
          "name": "",
          "type": "string"
        }
      ],
      "stateMutability": "view",
      "type": "function",
      "constant": true
    },
    {
      "inputs": [
        {
          "internalType": "address",
          "name": "_from",
          "type": "address"
        },
        {
          "internalType": "address",
          "name": "_to",
          "type": "address"
        },
        {
          "internalType": "uint16",
          "name": "_tokenId",
          "type": "uint16"
        },
        {
          "internalType": "uint256",
          "name": "_idx",
          "type": "uint256"
        }
      ],
      "name": "handOver",
      "outputs": [],
      "stateMutability": "nonpayable",
      "type": "function"
    },
    {
      "inputs": [
        {
          "internalType": "address",
          "name": "_tokenOwner",
          "type": "address"
        }
      ],
      "name": "getMyToken",
      "outputs": [
        {
          "components": [
            {
              "internalType": "uint16",
              "name": "id",
              "type": "uint16"
            },
            {
              "internalType": "string",
              "name": "uri",
              "type": "string"
            }
          ],
          "internalType": "struct NftContract.RenderToken[]",
          "name": "",
          "type": "tuple[]"
        }
      ],
      "stateMutability": "view",
      "type": "function",
      "constant": true
    },
    {
      "inputs": [
        {
          "internalType": "address",
          "name": "_tokenOwner",
          "type": "address"
        }
      ],
      "name": "haveTokenBool",
      "outputs": [
        {
          "internalType": "bool",
          "name": "",
          "type": "bool"
        }
      ],
      "stateMutability": "view",
      "type": "function",
      "constant": true
    },
    {
      "inputs": [],
      "name": "remainNfts",
      "outputs": [
        {
          "internalType": "uint16",
          "name": "",
          "type": "uint16"
        },
        {
          "internalType": "uint16",
          "name": "",
          "type": "uint16"
        },
        {
          "internalType": "uint16",
          "name": "",
          "type": "uint16"
        }
      ],
      "stateMutability": "view",
      "type": "function",
      "constant": true
    },
    {
      "inputs": [
        {
          "internalType": "address",
          "name": "_to",
          "type": "address"
        },
        {
          "internalType": "string",
          "name": "_tokenURI",
          "type": "string"
        },
        {
          "internalType": "uint256",
          "name": "_grade",
          "type": "uint256"
        },
        {
          "internalType": "uint256",
          "name": "_amount",
          "type": "uint256"
        },
        {
          "internalType": "uint256",
          "name": "_timestamp",
          "type": "uint256"
        }
      ],
      "name": "create",
      "outputs": [
        {
          "components": [
            {
              "internalType": "uint16",
              "name": "id",
              "type": "uint16"
            },
            {
              "internalType": "string",
              "name": "uri",
              "type": "string"
            }
          ],
          "internalType": "struct NftContract.RenderToken[]",
          "name": "",
          "type": "tuple[]"
        }
      ],
      "stateMutability": "payable",
      "type": "function",
      "payable": true
    },
    {
      "inputs": [
        {
          "internalType": "uint256",
          "name": "tokenId",
          "type": "uint256"
        },
        {
          "internalType": "address",
          "name": "from",
          "type": "address"
        },
        {
          "internalType": "address",
          "name": "to",
          "type": "address"
        },
        {
          "internalType": "uint256",
          "name": "time",
          "type": "uint256"
        },
        {
          "internalType": "string",
          "name": "historyType",
          "type": "string"
        }
      ],
      "name": "nftEventTrigger",
      "outputs": [],
      "stateMutability": "nonpayable",
      "type": "function"
    },
    {
      "inputs": [
        {
          "internalType": "address",
          "name": "_account",
          "type": "address"
        }
      ],
      "name": "getMyLastNft",
      "outputs": [
        {
          "components": [
            {
              "internalType": "uint16",
              "name": "id",
              "type": "uint16"
            },
            {
              "internalType": "string",
              "name": "uri",
              "type": "string"
            }
          ],
          "internalType": "struct NftContract.RenderToken",
          "name": "",
          "type": "tuple"
        }
      ],
      "stateMutability": "view",
      "type": "function",
      "constant": true
    }
  ],
  "bytecode": "0x6080604052603c600a60026101000a81548161ffff021916908361ffff160217905550605a600a60046101000a81548161ffff021916908361ffff160217905550600a60009054906101000a900461ffff16603c6200005f919062000254565b600a60066101000a81548161ffff021916908361ffff160217905550600a60029054906101000a900461ffff16605a6200009a919062000254565b600a60086101000a81548161ffff021916908361ffff160217905550600a60049054906101000a900461ffff166064620000d5919062000254565b600a806101000a81548161ffff021916908361ffff160217905550348015620000fd57600080fd5b506040518060400160405280601581526020017f446f72656d6947616d6573204e667420546f6b656e00000000000000000000008152506040518060400160405280600481526020017f444d474e00000000000000000000000000000000000000000000000000000000815250816000908051906020019062000182929190620001a4565b5080600190805190602001906200019b929190620001a4565b50505062000331565b828054620001b2906200029d565b90600052602060002090601f016020900481019282620001d6576000855562000222565b82601f10620001f157805160ff191683800117855562000222565b8280016001018555821562000222579182015b828111156200022157825182559160200191906001019062000204565b5b50905062000231919062000235565b5090565b5b808211156200025057600081600090555060010162000236565b5090565b600062000261826200028f565b91506200026e836200028f565b925082821015620002845762000283620002d3565b5b828203905092915050565b600061ffff82169050919050565b60006002820490506001821680620002b657607f821691505b60208210811415620002cd57620002cc62000302565b5b50919050565b7f4e487b7100000000000000000000000000000000000000000000000000000000600052601160045260246000fd5b7f4e487b7100000000000000000000000000000000000000000000000000000000600052602260045260246000fd5b61460a80620003416000396000f3fe6080604052600436106101cd5760003560e01c80636352211e116100f7578063a9dfb15b11610095578063c87b56dd11610064578063c87b56dd146106c7578063ccc7811814610704578063cea0ce9f14610734578063e985e9c514610771576101cd565b8063a9dfb15b1461060b578063b69c3b1814610648578063b88d4fde14610673578063c6f9ca5c1461069c576101cd565b806393a39cae116100d157806393a39cae1461054f57806395d89b411461057a5780639a19ef6c146105a5578063a22cb465146105e2576101cd565b80636352211e146104a857806370a08231146104e55780637e10dcac14610522576101cd565b80632f745c591161016f5780634f6ccce71161013e5780634f6ccce7146103ec5780635654360e1461042957806357e190231461045257806361a0b47f1461047d576101cd565b80632f745c591461031f5780633b8c93251461035c57806342842e0e1461039a57806345c1524d146103c3576101cd565b8063095ea7b3116101ab578063095ea7b314610277578063099c6c5d146102a057806318160ddd146102cb57806323b872dd146102f6576101cd565b806301ffc9a7146101d257806306fdde031461020f578063081812fc1461023a575b600080fd5b3480156101de57600080fd5b506101f960048036038101906101f491906130b9565b6107ae565b60405161020691906137ce565b60405180910390f35b34801561021b57600080fd5b50610224610828565b60405161023191906137e9565b60405180910390f35b34801561024657600080fd5b50610261600480360381019061025c9190613113565b6108ba565b60405161026e91906136af565b60405180910390f35b34801561028357600080fd5b5061029e60048036038101906102999190613079565b61093f565b005b3480156102ac57600080fd5b506102b5610a57565b6040516102c29190613aad565b60405180910390f35b3480156102d757600080fd5b506102e0610a6b565b6040516102ed9190613b2f565b60405180910390f35b34801561030257600080fd5b5061031d60048036038101906103189190612ecc565b610a78565b005b34801561032b57600080fd5b5061034660048036038101906103419190613079565b610ad8565b6040516103539190613b2f565b60405180910390f35b34801561036857600080fd5b50610383600480360381019061037e9190613079565b610b7d565b604051610391929190613ac8565b60405180910390f35b3480156103a657600080fd5b506103c160048036038101906103bc9190612ecc565b610c54565b005b3480156103cf57600080fd5b506103ea60048036038101906103e59190612e65565b610c74565b005b3480156103f857600080fd5b50610413600480360381019061040e9190613113565b610de5565b6040516104209190613b2f565b60405180910390f35b34801561043557600080fd5b50610450600480360381019061044b9190613140565b610e56565b005b34801561045e57600080fd5b50610467610e9b565b6040516104749190613aad565b60405180910390f35b34801561048957600080fd5b50610492610eaf565b60405161049f9190613aad565b60405180910390f35b3480156104b457600080fd5b506104cf60048036038101906104ca9190613113565b610ec1565b6040516104dc91906136af565b60405180910390f35b3480156104f157600080fd5b5061050c60048036038101906105079190612df8565b610f73565b6040516105199190613b2f565b60405180910390f35b34801561052e57600080fd5b5061053761102b565b60405161054693929190613af8565b60405180910390f35b34801561055b57600080fd5b5061056461106c565b6040516105719190613aad565b60405180910390f35b34801561058657600080fd5b5061058f611080565b60405161059c91906137e9565b60405180910390f35b3480156105b157600080fd5b506105cc60048036038101906105c79190612df8565b611112565b6040516105d99190613a8b565b60405180910390f35b3480156105ee57600080fd5b5061060960048036038101906106049190612fa2565b611291565b005b34801561061757600080fd5b50610632600480360381019061062d9190612df8565b6112a7565b60405161063f91906137ce565b60405180910390f35b34801561065457600080fd5b5061065d611344565b60405161066a9190613aad565b60405180910390f35b34801561067f57600080fd5b5061069a60048036038101906106959190612f1f565b611358565b005b3480156106a857600080fd5b506106b16113ba565b6040516106be9190613aad565b60405180910390f35b3480156106d357600080fd5b506106ee60048036038101906106e99190613113565b6113ce565b6040516106fb91906137e9565b60405180910390f35b61071e60048036038101906107199190612fe2565b611473565b60405161072b91906137ac565b60405180910390f35b34801561074057600080fd5b5061075b60048036038101906107569190612df8565b611a42565b60405161076891906137ac565b60405180910390f35b34801561077d57600080fd5b5061079860048036038101906107939190612e25565b611b9a565b6040516107a591906137ce565b60405180910390f35b60007f780e9d63000000000000000000000000000000000000000000000000000000007bffffffffffffffffffffffffffffffffffffffffffffffffffffffff1916827bffffffffffffffffffffffffffffffffffffffffffffffffffffffff19161480610821575061082082611c2e565b5b9050919050565b60606000805461083790613e2f565b80601f016020809104026020016040519081016040528092919081815260200182805461086390613e2f565b80156108b05780601f10610885576101008083540402835291602001916108b0565b820191906000526020600020905b81548152906001019060200180831161089357829003601f168201915b5050505050905090565b60006108c582611d10565b610904576040517f08c379a00000000000000000000000000000000000000000000000000000000081526004016108fb906139cb565b60405180910390fd5b6004600083815260200190815260200160002060009054906101000a900473ffffffffffffffffffffffffffffffffffffffff169050919050565b600061094a82610ec1565b90508073ffffffffffffffffffffffffffffffffffffffff168373ffffffffffffffffffffffffffffffffffffffff1614156109bb576040517f08c379a00000000000000000000000000000000000000000000000000000000081526004016109b2906139eb565b60405180910390fd5b8073ffffffffffffffffffffffffffffffffffffffff166109da611d7c565b73ffffffffffffffffffffffffffffffffffffffff161480610a095750610a0881610a03611d7c565b611b9a565b5b610a48576040517f08c379a0000000000000000000000000000000000000000000000000000000008152600401610a3f9061394b565b60405180910390fd5b610a528383611d84565b505050565b600a60069054906101000a900461ffff1681565b6000600880549050905090565b610a89610a83611d7c565b82611e3d565b610ac8576040517f08c379a0000000000000000000000000000000000000000000000000000000008152600401610abf90613a0b565b60405180910390fd5b610ad3838383611f1b565b505050565b6000610ae383610f73565b8210610b24576040517f08c379a0000000000000000000000000000000000000000000000000000000008152600401610b1b9061382b565b60405180910390fd5b600660008473ffffffffffffffffffffffffffffffffffffffff1673ffffffffffffffffffffffffffffffffffffffff168152602001908152602001600020600083815260200190815260200160002054905092915050565b600c6020528160005260406000208181548110610b9957600080fd5b9060005260206000209060020201600091509150508060000160009054906101000a900461ffff1690806001018054610bd190613e2f565b80601f0160208091040260200160405190810160405280929190818152602001828054610bfd90613e2f565b8015610c4a5780601f10610c1f57610100808354040283529160200191610c4a565b820191906000526020600020905b815481529060010190602001808311610c2d57829003601f168201915b5050505050905082565b610c6f83838360405180602001604052806000815250611358565b505050565b610c8384848461ffff16610c54565b600c60008573ffffffffffffffffffffffffffffffffffffffff1673ffffffffffffffffffffffffffffffffffffffff1681526020019081526020016000208181548110610cd457610cd3613f93565b5b9060005260206000209060020201600080820160006101000a81549061ffff0219169055600182016000610d089190612b99565b50506000610d198361ffff166113ce565b9050600c60008573ffffffffffffffffffffffffffffffffffffffff1673ffffffffffffffffffffffffffffffffffffffff16815260200190815260200160002060405180604001604052808561ffff16815260200183815250908060018154018082558091505060019003906000526020600020906002020160009091909190915060008201518160000160006101000a81548161ffff021916908361ffff1602179055506020820151816001019080519060200190610ddb929190612bd9565b5050505050505050565b6000610def610a6b565b8210610e30576040517f08c379a0000000000000000000000000000000000000000000000000000000008152600401610e2790613a4b565b60405180910390fd5b60088281548110610e4457610e43613f93565b5b90600052602060002001549050919050565b847f64467ee376c09c76022182dfcac429375d9582de2610457069c09bdd59257c9b85858585604051610e8c9493929190613716565b60405180910390a25050505050565b600a60049054906101000a900461ffff1681565b600a8054906101000a900461ffff1681565b6000806002600084815260200190815260200160002060009054906101000a900473ffffffffffffffffffffffffffffffffffffffff169050600073ffffffffffffffffffffffffffffffffffffffff168173ffffffffffffffffffffffffffffffffffffffff161415610f6a576040517f08c379a0000000000000000000000000000000000000000000000000000000008152600401610f619061398b565b60405180910390fd5b80915050919050565b60008073ffffffffffffffffffffffffffffffffffffffff168273ffffffffffffffffffffffffffffffffffffffff161415610fe4576040517f08c379a0000000000000000000000000000000000000000000000000000000008152600401610fdb9061396b565b60405180910390fd5b600360008373ffffffffffffffffffffffffffffffffffffffff1673ffffffffffffffffffffffffffffffffffffffff168152602001908152602001600020549050919050565b6000806000600a60069054906101000a900461ffff16600a60089054906101000a900461ffff16600a8054906101000a900461ffff16925092509250909192565b600a60089054906101000a900461ffff1681565b60606001805461108f90613e2f565b80601f01602080910402602001604051908101604052809291908181526020018280546110bb90613e2f565b80156111085780601f106110dd57610100808354040283529160200191611108565b820191906000526020600020905b8154815290600101906020018083116110eb57829003601f168201915b5050505050905090565b61111a612c5f565b6000600c60008473ffffffffffffffffffffffffffffffffffffffff1673ffffffffffffffffffffffffffffffffffffffff168152602001908152602001600020805490509050600c60008473ffffffffffffffffffffffffffffffffffffffff1673ffffffffffffffffffffffffffffffffffffffff1681526020019081526020016000206001826111ad9190613d37565b815481106111be576111bd613f93565b5b90600052602060002090600202016040518060400160405290816000820160009054906101000a900461ffff1661ffff1661ffff16815260200160018201805461120790613e2f565b80601f016020809104026020016040519081016040528092919081815260200182805461123390613e2f565b80156112805780601f1061125557610100808354040283529160200191611280565b820191906000526020600020905b81548152906001019060200180831161126357829003601f168201915b505050505081525050915050919050565b6112a361129c611d7c565b8383612182565b5050565b6000813373ffffffffffffffffffffffffffffffffffffffff168173ffffffffffffffffffffffffffffffffffffffff1614611318576040517f08c379a000000000000000000000000000000000000000000000000000000000815260040161130f906138ab565b60405180910390fd5b600061132384610f73565b9050600081111561133857600192505061133e565b60009250505b50919050565b600a60029054906101000a900461ffff1681565b611369611363611d7c565b83611e3d565b6113a8576040517f08c379a000000000000000000000000000000000000000000000000000000000815260040161139f90613a0b565b60405180910390fd5b6113b4848484846122ef565b50505050565b600a60009054906101000a900461ffff1681565b6060600b600083815260200190815260200160002080546113ee90613e2f565b80601f016020809104026020016040519081016040528092919081815260200182805461141a90613e2f565b80156114675780601f1061143c57610100808354040283529160200191611467565b820191906000526020600020905b81548152906001019060200180831161144a57829003601f168201915b50505050509050919050565b60606000600a60069054906101000a900461ffff1661ffff1611806114ac57506000600a60089054906101000a900461ffff1661ffff16115b806114c957506000600a8054906101000a900461ffff1661ffff16115b611508576040517f08c379a00000000000000000000000000000000000000000000000000000000081526004016114ff90613a2b565b60405180910390fd5b600361151387610f73565b1115611554576040517f08c379a000000000000000000000000000000000000000000000000000000000815260040161154b9061380b565b60405180910390fd5b60008367ffffffffffffffff8111156115705761156f613fc2565b5b6040519080825280602002602001820160405280156115a957816020015b611596612c5f565b81526020019060019003908161158e5790505b50905060005b84811015611a345760018614806115c65750600286145b806115d15750600386145b611610576040517f08c379a0000000000000000000000000000000000000000000000000000000008152600401611607906138cb565b60405180910390fd5b600060018714156116fb5785660110d9316ec00061162e9190613ca9565b341461166f576040517f08c379a000000000000000000000000000000000000000000000000000000000815260040161166690613a6b565b60405180910390fd5b600a600081819054906101000a900461ffff168092919061168f90613e92565b91906101000a81548161ffff021916908361ffff16021790555050600a60009054906101000a900461ffff169050600a60009054906101000a900461ffff16603c6116da9190613d03565b600a60066101000a81548161ffff021916908361ffff1602179055506118ca565b60028714156117e457856601c6bf526340006117179190613ca9565b3414611758576040517f08c379a000000000000000000000000000000000000000000000000000000000815260040161174f90613a6b565b60405180910390fd5b600a600281819054906101000a900461ffff168092919061177890613e92565b91906101000a81548161ffff021916908361ffff16021790555050600a60029054906101000a900461ffff169050600a60029054906101000a900461ffff16605a6117c39190613d03565b600a60086101000a81548161ffff021916908361ffff1602179055506118c9565b60038714156118c8578566038d7ea4c680006118009190613ca9565b3414611841576040517f08c379a000000000000000000000000000000000000000000000000000000000815260040161183890613a6b565b60405180910390fd5b600a600481819054906101000a900461ffff168092919061186190613e92565b91906101000a81548161ffff021916908361ffff16021790555050600a60049054906101000a900461ffff169050600a60049054906101000a900461ffff1660646118ac9190613d03565b600a806101000a81548161ffff021916908361ffff1602179055505b5b5b600c60003373ffffffffffffffffffffffffffffffffffffffff1673ffffffffffffffffffffffffffffffffffffffff16815260200190815260200160002060405180604001604052808361ffff1681526020018a815250908060018154018082558091505060019003906000526020600020906002020160009091909190915060008201518160000160006101000a81548161ffff021916908361ffff160217905550602082015181600101908051906020019061198a929190612bd9565b50505060405180604001604052808261ffff168152602001898152508383815181106119b9576119b8613f93565b5b60200260200101819052506119d2898261ffff1661234b565b6119e08161ffff1689612525565b8061ffff167f64467ee376c09c76022182dfcac429375d9582de2610457069c09bdd59257c9b308b88604051611a1893929190613762565b60405180910390a2508080611a2c90613ebd565b9150506115af565b508091505095945050505050565b6060813373ffffffffffffffffffffffffffffffffffffffff168173ffffffffffffffffffffffffffffffffffffffff1614611ab3576040517f08c379a0000000000000000000000000000000000000000000000000000000008152600401611aaa906138ab565b60405180910390fd5b6000611abe84610f73565b905060008167ffffffffffffffff811115611adc57611adb613fc2565b5b604051908082528060200260200182016040528015611b1557816020015b611b02612c5f565b815260200190600190039081611afa5790505b50905060005b82811015611b8e576000611b2f8783610ad8565b90506000611b408261ffff166113ce565b905060405180604001604052808361ffff16815260200182815250848481518110611b6e57611b6d613f93565b5b602002602001018190525050508080611b8690613ebd565b915050611b1b565b50809350505050919050565b6000600560008473ffffffffffffffffffffffffffffffffffffffff1673ffffffffffffffffffffffffffffffffffffffff16815260200190815260200160002060008373ffffffffffffffffffffffffffffffffffffffff1673ffffffffffffffffffffffffffffffffffffffff16815260200190815260200160002060009054906101000a900460ff16905092915050565b60007f80ac58cd000000000000000000000000000000000000000000000000000000007bffffffffffffffffffffffffffffffffffffffffffffffffffffffff1916827bffffffffffffffffffffffffffffffffffffffffffffffffffffffff19161480611cf957507f5b5e139f000000000000000000000000000000000000000000000000000000007bffffffffffffffffffffffffffffffffffffffffffffffffffffffff1916827bffffffffffffffffffffffffffffffffffffffffffffffffffffffff1916145b80611d095750611d0882612551565b5b9050919050565b60008073ffffffffffffffffffffffffffffffffffffffff166002600084815260200190815260200160002060009054906101000a900473ffffffffffffffffffffffffffffffffffffffff1673ffffffffffffffffffffffffffffffffffffffff1614159050919050565b600033905090565b816004600083815260200190815260200160002060006101000a81548173ffffffffffffffffffffffffffffffffffffffff021916908373ffffffffffffffffffffffffffffffffffffffff160217905550808273ffffffffffffffffffffffffffffffffffffffff16611df783610ec1565b73ffffffffffffffffffffffffffffffffffffffff167f8c5be1e5ebec7d5bd14f71427d1e84f3dd0314c0f7b2291e5b200ac8c7c3b92560405160405180910390a45050565b6000611e4882611d10565b611e87576040517f08c379a0000000000000000000000000000000000000000000000000000000008152600401611e7e9061392b565b60405180910390fd5b6000611e9283610ec1565b90508073ffffffffffffffffffffffffffffffffffffffff168473ffffffffffffffffffffffffffffffffffffffff161480611f0157508373ffffffffffffffffffffffffffffffffffffffff16611ee9846108ba565b73ffffffffffffffffffffffffffffffffffffffff16145b80611f125750611f118185611b9a565b5b91505092915050565b8273ffffffffffffffffffffffffffffffffffffffff16611f3b82610ec1565b73ffffffffffffffffffffffffffffffffffffffff1614611f91576040517f08c379a0000000000000000000000000000000000000000000000000000000008152600401611f889061386b565b60405180910390fd5b600073ffffffffffffffffffffffffffffffffffffffff168273ffffffffffffffffffffffffffffffffffffffff161415612001576040517f08c379a0000000000000000000000000000000000000000000000000000000008152600401611ff8906138eb565b60405180910390fd5b61200c8383836125bb565b612017600082611d84565b6001600360008573ffffffffffffffffffffffffffffffffffffffff1673ffffffffffffffffffffffffffffffffffffffff16815260200190815260200160002060008282546120679190613d37565b925050819055506001600360008473ffffffffffffffffffffffffffffffffffffffff1673ffffffffffffffffffffffffffffffffffffffff16815260200190815260200160002060008282546120be9190613c53565b92505081905550816002600083815260200190815260200160002060006101000a81548173ffffffffffffffffffffffffffffffffffffffff021916908373ffffffffffffffffffffffffffffffffffffffff160217905550808273ffffffffffffffffffffffffffffffffffffffff168473ffffffffffffffffffffffffffffffffffffffff167fddf252ad1be2c89b69c2b068fc378daa952ba7f163c4a11628f55a4df523b3ef60405160405180910390a461217d8383836126cf565b505050565b8173ffffffffffffffffffffffffffffffffffffffff168373ffffffffffffffffffffffffffffffffffffffff1614156121f1576040517f08c379a00000000000000000000000000000000000000000000000000000000081526004016121e89061390b565b60405180910390fd5b80600560008573ffffffffffffffffffffffffffffffffffffffff1673ffffffffffffffffffffffffffffffffffffffff16815260200190815260200160002060008473ffffffffffffffffffffffffffffffffffffffff1673ffffffffffffffffffffffffffffffffffffffff16815260200190815260200160002060006101000a81548160ff0219169083151502179055508173ffffffffffffffffffffffffffffffffffffffff168373ffffffffffffffffffffffffffffffffffffffff167f17307eab39ab6107e8899845ad3d59bd9653f200f220920489ca2b5937696c31836040516122e291906137ce565b60405180910390a3505050565b6122fa848484611f1b565b612306848484846126d4565b612345576040517f08c379a000000000000000000000000000000000000000000000000000000000815260040161233c9061384b565b60405180910390fd5b50505050565b600073ffffffffffffffffffffffffffffffffffffffff168273ffffffffffffffffffffffffffffffffffffffff1614156123bb576040517f08c379a00000000000000000000000000000000000000000000000000000000081526004016123b2906139ab565b60405180910390fd5b6123c481611d10565b15612404576040517f08c379a00000000000000000000000000000000000000000000000000000000081526004016123fb9061388b565b60405180910390fd5b612410600083836125bb565b6001600360008473ffffffffffffffffffffffffffffffffffffffff1673ffffffffffffffffffffffffffffffffffffffff16815260200190815260200160002060008282546124609190613c53565b92505081905550816002600083815260200190815260200160002060006101000a81548173ffffffffffffffffffffffffffffffffffffffff021916908373ffffffffffffffffffffffffffffffffffffffff160217905550808273ffffffffffffffffffffffffffffffffffffffff16600073ffffffffffffffffffffffffffffffffffffffff167fddf252ad1be2c89b69c2b068fc378daa952ba7f163c4a11628f55a4df523b3ef60405160405180910390a4612521600083836126cf565b5050565b80600b6000848152602001908152602001600020908051906020019061254c929190612bd9565b505050565b60007f01ffc9a7000000000000000000000000000000000000000000000000000000007bffffffffffffffffffffffffffffffffffffffffffffffffffffffff1916827bffffffffffffffffffffffffffffffffffffffffffffffffffffffff1916149050919050565b6125c683838361286b565b600073ffffffffffffffffffffffffffffffffffffffff168373ffffffffffffffffffffffffffffffffffffffff1614156126095761260481612870565b612648565b8173ffffffffffffffffffffffffffffffffffffffff168373ffffffffffffffffffffffffffffffffffffffff16146126475761264683826128b9565b5b5b600073ffffffffffffffffffffffffffffffffffffffff168273ffffffffffffffffffffffffffffffffffffffff16141561268b5761268681612a26565b6126ca565b8273ffffffffffffffffffffffffffffffffffffffff168273ffffffffffffffffffffffffffffffffffffffff16146126c9576126c88282612af7565b5b5b505050565b505050565b60006126f58473ffffffffffffffffffffffffffffffffffffffff16612b76565b1561285e578373ffffffffffffffffffffffffffffffffffffffff1663150b7a0261271e611d7c565b8786866040518563ffffffff1660e01b815260040161274094939291906136ca565b602060405180830381600087803b15801561275a57600080fd5b505af192505050801561278b57506040513d601f19601f8201168201806040525081019061278891906130e6565b60015b61280e573d80600081146127bb576040519150601f19603f3d011682016040523d82523d6000602084013e6127c0565b606091505b50600081511415612806576040517f08c379a00000000000000000000000000000000000000000000000000000000081526004016127fd9061384b565b60405180910390fd5b805181602001fd5b63150b7a0260e01b7bffffffffffffffffffffffffffffffffffffffffffffffffffffffff1916817bffffffffffffffffffffffffffffffffffffffffffffffffffffffff191614915050612863565b600190505b949350505050565b505050565b6008805490506009600083815260200190815260200160002081905550600881908060018154018082558091505060019003906000526020600020016000909190919091505550565b600060016128c684610f73565b6128d09190613d37565b90506000600760008481526020019081526020016000205490508181146129b5576000600660008673ffffffffffffffffffffffffffffffffffffffff1673ffffffffffffffffffffffffffffffffffffffff168152602001908152602001600020600084815260200190815260200160002054905080600660008773ffffffffffffffffffffffffffffffffffffffff1673ffffffffffffffffffffffffffffffffffffffff168152602001908152602001600020600084815260200190815260200160002081905550816007600083815260200190815260200160002081905550505b6007600084815260200190815260200160002060009055600660008573ffffffffffffffffffffffffffffffffffffffff1673ffffffffffffffffffffffffffffffffffffffff16815260200190815260200160002060008381526020019081526020016000206000905550505050565b60006001600880549050612a3a9190613d37565b9050600060096000848152602001908152602001600020549050600060088381548110612a6a57612a69613f93565b5b906000526020600020015490508060088381548110612a8c57612a8b613f93565b5b906000526020600020018190555081600960008381526020019081526020016000208190555060096000858152602001908152602001600020600090556008805480612adb57612ada613f64565b5b6001900381819060005260206000200160009055905550505050565b6000612b0283610f73565b905081600660008573ffffffffffffffffffffffffffffffffffffffff1673ffffffffffffffffffffffffffffffffffffffff168152602001908152602001600020600083815260200190815260200160002081905550806007600084815260200190815260200160002081905550505050565b6000808273ffffffffffffffffffffffffffffffffffffffff163b119050919050565b508054612ba590613e2f565b6000825580601f10612bb75750612bd6565b601f016020900490600052602060002090810190612bd59190612c7d565b5b50565b828054612be590613e2f565b90600052602060002090601f016020900481019282612c075760008555612c4e565b82601f10612c2057805160ff1916838001178555612c4e565b82800160010185558215612c4e579182015b82811115612c4d578251825591602001919060010190612c32565b5b509050612c5b9190612c7d565b5090565b6040518060400160405280600061ffff168152602001606081525090565b5b80821115612c96576000816000905550600101612c7e565b5090565b6000612cad612ca884613b6f565b613b4a565b905082815260208101848484011115612cc957612cc8613ff6565b5b612cd4848285613ded565b509392505050565b6000612cef612cea84613ba0565b613b4a565b905082815260208101848484011115612d0b57612d0a613ff6565b5b612d16848285613ded565b509392505050565b600081359050612d2d81614561565b92915050565b600081359050612d4281614578565b92915050565b600081359050612d578161458f565b92915050565b600081519050612d6c8161458f565b92915050565b600082601f830112612d8757612d86613ff1565b5b8135612d97848260208601612c9a565b91505092915050565b600082601f830112612db557612db4613ff1565b5b8135612dc5848260208601612cdc565b91505092915050565b600081359050612ddd816145a6565b92915050565b600081359050612df2816145bd565b92915050565b600060208284031215612e0e57612e0d614000565b5b6000612e1c84828501612d1e565b91505092915050565b60008060408385031215612e3c57612e3b614000565b5b6000612e4a85828601612d1e565b9250506020612e5b85828601612d1e565b9150509250929050565b60008060008060808587031215612e7f57612e7e614000565b5b6000612e8d87828801612d1e565b9450506020612e9e87828801612d1e565b9350506040612eaf87828801612dce565b9250506060612ec087828801612de3565b91505092959194509250565b600080600060608486031215612ee557612ee4614000565b5b6000612ef386828701612d1e565b9350506020612f0486828701612d1e565b9250506040612f1586828701612de3565b9150509250925092565b60008060008060808587031215612f3957612f38614000565b5b6000612f4787828801612d1e565b9450506020612f5887828801612d1e565b9350506040612f6987828801612de3565b925050606085013567ffffffffffffffff811115612f8a57612f89613ffb565b5b612f9687828801612d72565b91505092959194509250565b60008060408385031215612fb957612fb8614000565b5b6000612fc785828601612d1e565b9250506020612fd885828601612d33565b9150509250929050565b600080600080600060a08688031215612ffe57612ffd614000565b5b600061300c88828901612d1e565b955050602086013567ffffffffffffffff81111561302d5761302c613ffb565b5b61303988828901612da0565b945050604061304a88828901612de3565b935050606061305b88828901612de3565b925050608061306c88828901612de3565b9150509295509295909350565b600080604083850312156130905761308f614000565b5b600061309e85828601612d1e565b92505060206130af85828601612de3565b9150509250929050565b6000602082840312156130cf576130ce614000565b5b60006130dd84828501612d48565b91505092915050565b6000602082840312156130fc576130fb614000565b5b600061310a84828501612d5d565b91505092915050565b60006020828403121561312957613128614000565b5b600061313784828501612de3565b91505092915050565b600080600080600060a0868803121561315c5761315b614000565b5b600061316a88828901612de3565b955050602061317b88828901612d1e565b945050604061318c88828901612d1e565b935050606061319d88828901612de3565b925050608086013567ffffffffffffffff8111156131be576131bd613ffb565b5b6131ca88828901612da0565b9150509295509295909350565b60006131e38383613608565b905092915050565b6131f481613d6b565b82525050565b600061320582613be1565b61320f8185613c0f565b93508360208202850161322185613bd1565b8060005b8581101561325d578484038952815161323e85826131d7565b945061324983613c02565b925060208a01995050600181019050613225565b50829750879550505050505092915050565b61327881613d7d565b82525050565b600061328982613bec565b6132938185613c20565b93506132a3818560208601613dfc565b6132ac81614005565b840191505092915050565b60006132c282613bf7565b6132cc8185613c31565b93506132dc818560208601613dfc565b6132e581614005565b840191505092915050565b60006132fb82613bf7565b6133058185613c42565b9350613315818560208601613dfc565b61331e81614005565b840191505092915050565b6000613336601883613c42565b915061334182614016565b602082019050919050565b6000613359602b83613c42565b91506133648261403f565b604082019050919050565b600061337c603283613c42565b91506133878261408e565b604082019050919050565b600061339f600483613c42565b91506133aa826140dd565b602082019050919050565b60006133c2602583613c42565b91506133cd82614106565b604082019050919050565b60006133e5601c83613c42565b91506133f082614155565b602082019050919050565b6000613408601683613c42565b91506134138261417e565b602082019050919050565b600061342b601b83613c42565b9150613436826141a7565b602082019050919050565b600061344e602483613c42565b9150613459826141d0565b604082019050919050565b6000613471601983613c42565b915061347c8261421f565b602082019050919050565b6000613494602c83613c42565b915061349f82614248565b604082019050919050565b60006134b7603883613c42565b91506134c282614297565b604082019050919050565b60006134da602a83613c42565b91506134e5826142e6565b604082019050919050565b60006134fd602983613c42565b915061350882614335565b604082019050919050565b6000613520602083613c42565b915061352b82614384565b602082019050919050565b6000613543602c83613c42565b915061354e826143ad565b604082019050919050565b6000613566602183613c42565b9150613571826143fc565b604082019050919050565b6000613589603183613c42565b91506135948261444b565b604082019050919050565b60006135ac602383613c42565b91506135b78261449a565b604082019050919050565b60006135cf602c83613c42565b91506135da826144e9565b604082019050919050565b60006135f2600b83613c42565b91506135fd82614538565b602082019050919050565b60006040830160008301516136206000860182613682565b506020830151848203602086015261363882826132b7565b9150508091505092915050565b600060408301600083015161365d6000860182613682565b506020830151848203602086015261367582826132b7565b9150508091505092915050565b61368b81613db5565b82525050565b61369a81613db5565b82525050565b6136a981613de3565b82525050565b60006020820190506136c460008301846131eb565b92915050565b60006080820190506136df60008301876131eb565b6136ec60208301866131eb565b6136f960408301856136a0565b818103606083015261370b818461327e565b905095945050505050565b600060808201905061372b60008301876131eb565b61373860208301866131eb565b61374560408301856136a0565b818103606083015261375781846132f0565b905095945050505050565b600060808201905061377760008301866131eb565b61378460208301856131eb565b61379160408301846136a0565b81810360608301526137a281613392565b9050949350505050565b600060208201905081810360008301526137c681846131fa565b905092915050565b60006020820190506137e3600083018461326f565b92915050565b6000602082019050818103600083015261380381846132f0565b905092915050565b6000602082019050818103600083015261382481613329565b9050919050565b600060208201905081810360008301526138448161334c565b9050919050565b600060208201905081810360008301526138648161336f565b9050919050565b60006020820190508181036000830152613884816133b5565b9050919050565b600060208201905081810360008301526138a4816133d8565b9050919050565b600060208201905081810360008301526138c4816133fb565b9050919050565b600060208201905081810360008301526138e48161341e565b9050919050565b6000602082019050818103600083015261390481613441565b9050919050565b6000602082019050818103600083015261392481613464565b9050919050565b6000602082019050818103600083015261394481613487565b9050919050565b60006020820190508181036000830152613964816134aa565b9050919050565b60006020820190508181036000830152613984816134cd565b9050919050565b600060208201905081810360008301526139a4816134f0565b9050919050565b600060208201905081810360008301526139c481613513565b9050919050565b600060208201905081810360008301526139e481613536565b9050919050565b60006020820190508181036000830152613a0481613559565b9050919050565b60006020820190508181036000830152613a248161357c565b9050919050565b60006020820190508181036000830152613a448161359f565b9050919050565b60006020820190508181036000830152613a64816135c2565b9050919050565b60006020820190508181036000830152613a84816135e5565b9050919050565b60006020820190508181036000830152613aa58184613645565b905092915050565b6000602082019050613ac26000830184613691565b92915050565b6000604082019050613add6000830185613691565b8181036020830152613aef81846132f0565b90509392505050565b6000606082019050613b0d6000830186613691565b613b1a6020830185613691565b613b276040830184613691565b949350505050565b6000602082019050613b4460008301846136a0565b92915050565b6000613b54613b65565b9050613b608282613e61565b919050565b6000604051905090565b600067ffffffffffffffff821115613b8a57613b89613fc2565b5b613b9382614005565b9050602081019050919050565b600067ffffffffffffffff821115613bbb57613bba613fc2565b5b613bc482614005565b9050602081019050919050565b6000819050602082019050919050565b600081519050919050565b600081519050919050565b600081519050919050565b6000602082019050919050565b600082825260208201905092915050565b600082825260208201905092915050565b600082825260208201905092915050565b600082825260208201905092915050565b6000613c5e82613de3565b9150613c6983613de3565b9250827fffffffffffffffffffffffffffffffffffffffffffffffffffffffffffffffff03821115613c9e57613c9d613f06565b5b828201905092915050565b6000613cb482613de3565b9150613cbf83613de3565b9250817fffffffffffffffffffffffffffffffffffffffffffffffffffffffffffffffff0483118215151615613cf857613cf7613f06565b5b828202905092915050565b6000613d0e82613db5565b9150613d1983613db5565b925082821015613d2c57613d2b613f06565b5b828203905092915050565b6000613d4282613de3565b9150613d4d83613de3565b925082821015613d6057613d5f613f06565b5b828203905092915050565b6000613d7682613dc3565b9050919050565b60008115159050919050565b60007fffffffff0000000000000000000000000000000000000000000000000000000082169050919050565b600061ffff82169050919050565b600073ffffffffffffffffffffffffffffffffffffffff82169050919050565b6000819050919050565b82818337600083830152505050565b60005b83811015613e1a578082015181840152602081019050613dff565b83811115613e29576000848401525b50505050565b60006002820490506001821680613e4757607f821691505b60208210811415613e5b57613e5a613f35565b5b50919050565b613e6a82614005565b810181811067ffffffffffffffff82111715613e8957613e88613fc2565b5b80604052505050565b6000613e9d82613db5565b915061ffff821415613eb257613eb1613f06565b5b600182019050919050565b6000613ec882613de3565b91507fffffffffffffffffffffffffffffffffffffffffffffffffffffffffffffffff821415613efb57613efa613f06565b5b600182019050919050565b7f4e487b7100000000000000000000000000000000000000000000000000000000600052601160045260246000fd5b7f4e487b7100000000000000000000000000000000000000000000000000000000600052602260045260246000fd5b7f4e487b7100000000000000000000000000000000000000000000000000000000600052603160045260246000fd5b7f4e487b7100000000000000000000000000000000000000000000000000000000600052603260045260246000fd5b7f4e487b7100000000000000000000000000000000000000000000000000000000600052604160045260246000fd5b600080fd5b600080fd5b600080fd5b600080fd5b6000601f19601f8301169050919050565b7f596f752063616e20707572636861736520757020746f20330000000000000000600082015250565b7f455243373231456e756d657261626c653a206f776e657220696e646578206f7560008201527f74206f6620626f756e6473000000000000000000000000000000000000000000602082015250565b7f4552433732313a207472616e7366657220746f206e6f6e20455243373231526560008201527f63656976657220696d706c656d656e7465720000000000000000000000000000602082015250565b7f4d696e7400000000000000000000000000000000000000000000000000000000600082015250565b7f4552433732313a207472616e736665722066726f6d20696e636f72726563742060008201527f6f776e6572000000000000000000000000000000000000000000000000000000602082015250565b7f4552433732313a20746f6b656e20616c7265616479206d696e74656400000000600082015250565b7f796f7520617265206e6f7420746f6b656e4f776e657200000000000000000000600082015250565b7f54686973206973207468652077726f6e6720617070726f6163682e0000000000600082015250565b7f4552433732313a207472616e7366657220746f20746865207a65726f2061646460008201527f7265737300000000000000000000000000000000000000000000000000000000602082015250565b7f4552433732313a20617070726f766520746f2063616c6c657200000000000000600082015250565b7f4552433732313a206f70657261746f7220717565727920666f72206e6f6e657860008201527f697374656e7420746f6b656e0000000000000000000000000000000000000000602082015250565b7f4552433732313a20617070726f76652063616c6c6572206973206e6f74206f7760008201527f6e6572206e6f7220617070726f76656420666f7220616c6c0000000000000000602082015250565b7f4552433732313a2062616c616e636520717565727920666f7220746865207a6560008201527f726f206164647265737300000000000000000000000000000000000000000000602082015250565b7f4552433732313a206f776e657220717565727920666f72206e6f6e657869737460008201527f656e7420746f6b656e0000000000000000000000000000000000000000000000602082015250565b7f4552433732313a206d696e7420746f20746865207a65726f2061646472657373600082015250565b7f4552433732313a20617070726f76656420717565727920666f72206e6f6e657860008201527f697374656e7420746f6b656e0000000000000000000000000000000000000000602082015250565b7f4552433732313a20617070726f76616c20746f2063757272656e74206f776e6560008201527f7200000000000000000000000000000000000000000000000000000000000000602082015250565b7f4552433732313a207472616e736665722063616c6c6572206973206e6f74206f60008201527f776e6572206e6f7220617070726f766564000000000000000000000000000000602082015250565b7f416c6c207175616e7469746965732068617665206265656e206578686175737460008201527f65642e0000000000000000000000000000000000000000000000000000000000602082015250565b7f455243373231456e756d657261626c653a20676c6f62616c20696e646578206f60008201527f7574206f6620626f756e64730000000000000000000000000000000000000000602082015250565b7f76616c7565206572726f72000000000000000000000000000000000000000000600082015250565b61456a81613d6b565b811461457557600080fd5b50565b61458181613d7d565b811461458c57600080fd5b50565b61459881613d89565b81146145a357600080fd5b50565b6145af81613db5565b81146145ba57600080fd5b50565b6145c681613de3565b81146145d157600080fd5b5056fea2646970667358221220b98cda4f9ee024875fb3d8e3293d966c9d2e807a31aebb6f1a5314518efbe64264736f6c63430008070033",
  "immutableReferences": {},
  "source": "// SPDX-License-Identifier: MIT\r\n\r\npragma solidity ^0.8.0;\r\n\r\nimport \"../node_modules/@openzeppelin/contracts/token/ERC721/extensions/ERC721Enumerable.sol\";\r\nimport \"../node_modules/@openzeppelin/contracts/utils/Counters.sol\";\r\nimport \"../node_modules/@openzeppelin/contracts/utils/Math/SafeMath.sol\";\r\n\r\ncontract NftContract is ERC721Enumerable {\r\n  using Counters for Counters.Counter;\r\n  using SafeMath for uint;\r\n  // Counters.Counter private tokenIds; // public \r\n  // Counters.Counter private tokenIds_red; // public \r\n  // Counters.Counter private tokenIds_green; // public \r\n  // Counters.Counter private tokenIds_purple; // public \r\n\r\n  event NftHistory(uint indexed tokenId, address from, address to, uint time, string historyType);\r\n\r\n  uint16 public tokenIds_red;\r\n  uint16 public tokenIds_green = 60;\r\n  uint16 public tokenIds_purple = 90;\r\n  uint16 public remainedRed = 60 - tokenIds_red;\r\n  uint16 public remainedGreen = 90 - tokenIds_green;\r\n  uint16 public remainedPurple = 100 - tokenIds_purple;\r\n\r\n  constructor() ERC721(\"DoremiGames Nft Token\", \"DMGN\") {}\r\n\r\n  // uint8 public constant totalSupply = 100;\r\n  mapping(uint => string) tokenURIs;\r\n\r\n  struct RenderToken {\r\n    uint16 id;\r\n    string uri;\r\n  }\r\n\r\n  mapping(address => RenderToken[]) public myNfts;\r\n\r\n  modifier isOwner(address _tokenOwner) {\r\n    require(_tokenOwner == msg.sender, \"you are not tokenOwner\");\r\n    _;\r\n  }\r\n\r\n  // nft  \r\n  function _setTokenURI(uint _tokenId, string memory _tokenURI) private {\r\n    tokenURIs[_tokenId] = _tokenURI;\r\n  }\r\n\r\n  // nft   \r\n  function tokenURI(uint256 tokenId) public view virtual override returns (string memory) {\r\n    return tokenURIs[tokenId];\r\n  }\r\n\r\n  function handOver(\r\n    address _from,\r\n    address _to,\r\n    uint16 _tokenId,\r\n    uint _idx\r\n  ) public {\r\n    safeTransferFrom(_from, _to, _tokenId);\r\n    delete myNfts[_from][_idx];\r\n    string memory tokenUri = tokenURI(_tokenId);\r\n    myNfts[_to].push(RenderToken(_tokenId, tokenUri));\r\n  }\r\n\r\n  function getMyToken(address _tokenOwner) public view isOwner(_tokenOwner) returns (RenderToken[] memory) {\r\n    uint balanceLength = balanceOf(_tokenOwner);\r\n\r\n    RenderToken[] memory renderToken = new RenderToken[](balanceLength);\r\n\r\n    for (uint256 i = 0; i < balanceLength; i++) {\r\n      uint16 tokenId = uint16(tokenOfOwnerByIndex(_tokenOwner, i));\r\n      string memory tokenUri = tokenURI(tokenId);\r\n\r\n      renderToken[i] = RenderToken(tokenId, tokenUri);\r\n    }\r\n    return renderToken;\r\n  }\r\n\r\n  function haveTokenBool(address _tokenOwner) public view isOwner(_tokenOwner) returns (bool) {\r\n    uint balanceLength = balanceOf(_tokenOwner);\r\n    if (balanceLength > 0) {\r\n      return true;\r\n    } else {\r\n      return false;\r\n    }\r\n  }\r\n\r\n  function remainNfts()\r\n    public\r\n    view\r\n    returns (\r\n      uint16,\r\n      uint16,\r\n      uint16\r\n    )\r\n  {\r\n    return (remainedRed, remainedGreen, remainedPurple);\r\n  }\r\n\r\n  // \"0x4B20993Bc481177ec7E8f571ceCaE8A9e22C02db\", uri, purple, 3, 15500000\r\n  // nft \r\n  function create(\r\n    address _to,\r\n    string memory _tokenURI,\r\n    uint _grade,\r\n    uint _amount,\r\n    uint _timestamp\r\n  ) external payable returns (RenderToken[] memory) {\r\n    require(remainedRed > 0 || remainedGreen > 0 || remainedPurple > 0, \"All quantities have been exhausted.\");\r\n    require(balanceOf(_to) <= 3, \"You can purchase up to 3\");\r\n\r\n    RenderToken[] memory renderToken = new RenderToken[](_amount);\r\n    for (uint i = 0; i < _amount; i++) {\r\n      require(_grade == 1 || _grade == 2 || _grade == 3, \"This is the wrong approach.\");\r\n\r\n      uint16 tokenId;\r\n\r\n      if (_grade == 1) {\r\n        require(msg.value == 0.0003 ether * _amount, \"value error\");\r\n        tokenIds_red++;\r\n        tokenId = tokenIds_red;\r\n        remainedRed = 60 - tokenIds_red;\r\n      } else if (_grade == 2) {\r\n        require(msg.value == 0.0005 ether * _amount, \"value error\");\r\n        tokenIds_green++;\r\n        tokenId = tokenIds_green;\r\n        remainedGreen = 90 - tokenIds_green;\r\n      } else if (_grade == 3) {\r\n        require(msg.value == 0.001 ether * _amount, \"value error\");\r\n        tokenIds_purple++;\r\n        tokenId = tokenIds_purple;\r\n        remainedPurple = 100 - tokenIds_purple;\r\n      }\r\n      myNfts[msg.sender].push(RenderToken(tokenId, _tokenURI));\r\n      renderToken[i] = RenderToken(tokenId, _tokenURI);\r\n\r\n      _mint(_to, tokenId);\r\n      _setTokenURI(tokenId, _tokenURI);\r\n\r\n      emit NftHistory(tokenId, address(this), _to, _timestamp, \"Mint\");\r\n    }\r\n\r\n    return renderToken;\r\n  }\r\n\r\n  function nftEventTrigger(\r\n    uint tokenId,\r\n    address from,\r\n    address to,\r\n    uint time,\r\n    string memory historyType\r\n  ) public {\r\n    emit NftHistory(tokenId, from, to, time, historyType);\r\n  }\r\n\r\n  function getMyLastNft(address _account) public view returns (RenderToken memory) {\r\n    uint myNftLength = myNfts[_account].length;\r\n    return myNfts[_account][myNftLength - 1];\r\n  }\r\n}\r\n\r\n//remixd -s . --remix-ide https://remix.ethereum.org\r\n//ipfs://QmegNmnxoh6gQWvk1xkbq45dGWt8dzpiTzHSxrp5WAwChS (pinata)\r\n//ipfs://QmaGTbhBGBfdH6gXLoC4V5GScY1mtxac4Ye6ynA1Djw6mZ (localhost)\r\n",
  "sourcePath": "C:\\Users\\coco\\Desktop\\\\coco\\TEAM_PROJECT\\NFT_GAME\\contracts\\NftContract.sol",
  "compiler": {
    "name": "solc",
    "version": "0.8.7+commit.e28d00a7.Emscripten.clang"
  },
  "schemaVersion": "3.4.4",
  "updatedAt": "2022-04-21T06:13:05.127Z",
  "networkType": "ethereum",
  "devdoc": {
    "kind": "dev",
    "methods": {
      "approve(address,uint256)": {
        "details": "See {IERC721-approve}."
      },
      "balanceOf(address)": {
        "details": "See {IERC721-balanceOf}."
      },
      "getApproved(uint256)": {
        "details": "See {IERC721-getApproved}."
      },
      "isApprovedForAll(address,address)": {
        "details": "See {IERC721-isApprovedForAll}."
      },
      "name()": {
        "details": "See {IERC721Metadata-name}."
      },
      "ownerOf(uint256)": {
        "details": "See {IERC721-ownerOf}."
      },
      "safeTransferFrom(address,address,uint256)": {
        "details": "See {IERC721-safeTransferFrom}."
      },
      "safeTransferFrom(address,address,uint256,bytes)": {
        "details": "See {IERC721-safeTransferFrom}."
      },
      "setApprovalForAll(address,bool)": {
        "details": "See {IERC721-setApprovalForAll}."
      },
      "supportsInterface(bytes4)": {
        "details": "See {IERC165-supportsInterface}."
      },
      "symbol()": {
        "details": "See {IERC721Metadata-symbol}."
      },
      "tokenByIndex(uint256)": {
        "details": "See {IERC721Enumerable-tokenByIndex}."
      },
      "tokenOfOwnerByIndex(address,uint256)": {
        "details": "See {IERC721Enumerable-tokenOfOwnerByIndex}."
      },
      "tokenURI(uint256)": {
        "details": "See {IERC721Metadata-tokenURI}."
      },
      "totalSupply()": {
        "details": "See {IERC721Enumerable-totalSupply}."
      },
      "transferFrom(address,address,uint256)": {
        "details": "See {IERC721-transferFrom}."
      }
    },
    "version": 1
  },
  "userdoc": {
    "kind": "user",
    "methods": {},
    "version": 1
  }
}