{
  "contractName": "NftDealContract",
  "abi": [
    {
      "inputs": [
        {
          "internalType": "address",
          "name": "_nftContractAddress",
          "type": "address"
        }
      ],
      "stateMutability": "nonpayable",
      "type": "constructor"
    },
    {
      "anonymous": false,
      "inputs": [
        {
          "indexed": true,
          "internalType": "uint256",
          "name": "tokenId",
          "type": "uint256"
        },
        {
          "indexed": false,
          "internalType": "address",
          "name": "from",
          "type": "address"
        },
        {
          "indexed": false,
          "internalType": "address",
          "name": "to",
          "type": "address"
        },
        {
          "indexed": false,
          "internalType": "uint256",
          "name": "time",
          "type": "uint256"
        },
        {
          "indexed": false,
          "internalType": "string",
          "name": "historyType",
          "type": "string"
        }
      ],
      "name": "NftHistory",
      "type": "event"
    },
    {
      "anonymous": false,
      "inputs": [
        {
          "indexed": false,
          "internalType": "uint256",
          "name": "tokenId",
          "type": "uint256"
        },
        {
          "indexed": false,
          "internalType": "uint256",
          "name": "price",
          "type": "uint256"
        },
        {
          "indexed": false,
          "internalType": "address",
          "name": "tokenOwner",
          "type": "address"
        },
        {
          "indexed": false,
          "internalType": "string",
          "name": "tokenUri",
          "type": "string"
        }
      ],
      "name": "submitSell",
      "type": "event"
    },
    {
      "inputs": [],
      "name": "nftContractAddress",
      "outputs": [
        {
          "internalType": "contract NftContract",
          "name": "",
          "type": "address"
        }
      ],
      "stateMutability": "view",
      "type": "function",
      "constant": true
    },
    {
      "inputs": [
        {
          "internalType": "uint256",
          "name": "",
          "type": "uint256"
        }
      ],
      "name": "nftPrices",
      "outputs": [
        {
          "internalType": "uint256",
          "name": "",
          "type": "uint256"
        }
      ],
      "stateMutability": "view",
      "type": "function",
      "constant": true
    },
    {
      "inputs": [
        {
          "internalType": "uint256",
          "name": "",
          "type": "uint256"
        }
      ],
      "name": "onSaleNftArray",
      "outputs": [
        {
          "internalType": "uint256",
          "name": "",
          "type": "uint256"
        }
      ],
      "stateMutability": "view",
      "type": "function",
      "constant": true
    },
    {
      "inputs": [
        {
          "internalType": "uint256",
          "name": "_tokenId",
          "type": "uint256"
        },
        {
          "internalType": "uint256",
          "name": "_price",
          "type": "uint256"
        }
      ],
      "name": "sellNft",
      "outputs": [],
      "stateMutability": "nonpayable",
      "type": "function"
    },
    {
      "inputs": [
        {
          "internalType": "uint256",
          "name": "_tokenId",
          "type": "uint256"
        }
      ],
      "name": "cancelSell",
      "outputs": [],
      "stateMutability": "nonpayable",
      "type": "function"
    },
    {
      "inputs": [
        {
          "internalType": "uint256",
          "name": "_tokenId",
          "type": "uint256"
        },
        {
          "internalType": "uint256",
          "name": "_timestamp",
          "type": "uint256"
        }
      ],
      "name": "buyNft",
      "outputs": [],
      "stateMutability": "payable",
      "type": "function",
      "payable": true
    },
    {
      "inputs": [],
      "name": "getOnSaleNftArrayLength",
      "outputs": [
        {
          "internalType": "uint256",
          "name": "",
          "type": "uint256"
        }
      ],
      "stateMutability": "view",
      "type": "function",
      "constant": true
    },
    {
      "inputs": [
        {
          "internalType": "uint256",
          "name": "_tokenId",
          "type": "uint256"
        }
      ],
      "name": "onSale",
      "outputs": [
        {
          "internalType": "bool",
          "name": "",
          "type": "bool"
        }
      ],
      "stateMutability": "view",
      "type": "function",
      "constant": true
    },
    {
      "inputs": [],
      "name": "getOnSaleNftArray",
      "outputs": [
        {
          "internalType": "uint256[]",
          "name": "",
          "type": "uint256[]"
        }
      ],
      "stateMutability": "view",
      "type": "function",
      "constant": true
    },
    {
      "inputs": [
        {
          "internalType": "uint256",
          "name": "_tokenId",
          "type": "uint256"
        }
      ],
      "name": "getNftTokenPrice",
      "outputs": [
        {
          "internalType": "uint256",
          "name": "",
          "type": "uint256"
        }
      ],
      "stateMutability": "view",
      "type": "function",
      "constant": true
    }
  ],
  "bytecode": "0x60806040523480156200001157600080fd5b50604051620018f1380380620018f1833981810160405281019062000037919062000095565b806000806101000a81548173ffffffffffffffffffffffffffffffffffffffff021916908373ffffffffffffffffffffffffffffffffffffffff160217905550506200011a565b6000815190506200008f8162000100565b92915050565b600060208284031215620000ae57620000ad620000fb565b5b6000620000be848285016200007e565b91505092915050565b6000620000d482620000db565b9050919050565b600073ffffffffffffffffffffffffffffffffffffffff82169050919050565b600080fd5b6200010b81620000c7565b81146200011757600080fd5b50565b6117c7806200012a6000396000f3fe6080604052600436106100915760003560e01c8063aae282e111610059578063aae282e11461016c578063b43a76f114610197578063c781ea45146101d4578063d5493e0f14610211578063d9f10a2b1461023c57610091565b806307c9cd45146100965780635208eb09146100bf578063550ca1ff146100e8578063556f808414610113578063912c45cf1461012f575b600080fd5b3480156100a257600080fd5b506100bd60048036038101906100b89190610e3b565b610279565b005b3480156100cb57600080fd5b506100e660048036038101906100e19190610e68565b610474565b005b3480156100f457600080fd5b506100fd610843565b60405161010a91906110d4565b60405180910390f35b61012d60048036038101906101289190610e68565b61089b565b005b34801561013b57600080fd5b5061015660048036038101906101519190610e3b565b610c2f565b60405161016391906111cc565b60405180910390f35b34801561017857600080fd5b50610181610c4c565b60405161018e9190611111565b60405180910390f35b3480156101a357600080fd5b506101be60048036038101906101b99190610e3b565b610c70565b6040516101cb91906110f6565b60405180910390f35b3480156101e057600080fd5b506101fb60048036038101906101f69190610e3b565b610ca0565b60405161020891906111cc565b60405180910390f35b34801561021d57600080fd5b50610226610cc4565b60405161023391906111cc565b60405180910390f35b34801561024857600080fd5b50610263600480360381019061025e9190610e3b565b610cd1565b60405161027091906111cc565b60405180910390f35b60008054906101000a900473ffffffffffffffffffffffffffffffffffffffff1673ffffffffffffffffffffffffffffffffffffffff16636352211e826040518263ffffffff1660e01b81526004016102d291906111cc565b60206040518083038186803b1580156102ea57600080fd5b505afa1580156102fe573d6000803e3d6000fd5b505050506040513d601f19601f820116820180604052508101906103229190610d98565b73ffffffffffffffffffffffffffffffffffffffff163373ffffffffffffffffffffffffffffffffffffffff161461038f576040517f08c379a00000000000000000000000000000000000000000000000000000000081526004016103869061118c565b60405180910390fd5b6000600160008381526020019081526020016000208190555060005b6002805490508110156104705781600282815481106103cd576103cc6115ad565b5b9060005260206000200154141561045d57600260016002805490506103f291906113c1565b81548110610403576104026115ad565b5b906000526020600020015460028281548110610422576104216115ad565b5b906000526020600020018190555060028054806104425761044161157e565b5b60019003818190600052602060002001600090559055610470565b8080610468906114d7565b9150506103ab565b5050565b60008060009054906101000a900473ffffffffffffffffffffffffffffffffffffffff1673ffffffffffffffffffffffffffffffffffffffff16636352211e846040518263ffffffff1660e01b81526004016104d091906111cc565b60206040518083038186803b1580156104e857600080fd5b505afa1580156104fc573d6000803e3d6000fd5b505050506040513d601f19601f820116820180604052508101906105209190610d98565b90503373ffffffffffffffffffffffffffffffffffffffff168173ffffffffffffffffffffffffffffffffffffffff1614610590576040517f08c379a00000000000000000000000000000000000000000000000000000000081526004016105879061114c565b60405180910390fd5b600082116105d3576040517f08c379a00000000000000000000000000000000000000000000000000000000081526004016105ca906111ac565b60405180910390fd5b6000600160008581526020019081526020016000205414610629576040517f08c379a00000000000000000000000000000000000000000000000000000000081526004016106209061112c565b60405180910390fd5b60008054906101000a900473ffffffffffffffffffffffffffffffffffffffff1673ffffffffffffffffffffffffffffffffffffffff1663e985e9c582306040518363ffffffff1660e01b8152600401610684929190611074565b60206040518083038186803b15801561069c57600080fd5b505afa1580156106b0573d6000803e3d6000fd5b505050506040513d601f19601f820116820180604052508101906106d49190610dc5565b610713576040517f08c379a000000000000000000000000000000000000000000000000000000000815260040161070a9061116c565b60405180910390fd5b81600160008581526020019081526020016000208190555060028390806001815401808255809150506001900390600052602060002001600090919091909150557f48d5c9f828258491531411a9f29ec1f8500b80f389d14851a792e2d34bb3133d83838360008054906101000a900473ffffffffffffffffffffffffffffffffffffffff1673ffffffffffffffffffffffffffffffffffffffff1663c87b56dd886040518263ffffffff1660e01b81526004016107d191906111cc565b60006040518083038186803b1580156107e957600080fd5b505afa1580156107fd573d6000803e3d6000fd5b505050506040513d6000823e3d601f19601f820116820180604052508101906108269190610df2565b604051610836949392919061123f565b60405180910390a1505050565b6060600280548060200260200160405190810160405280929190818152602001828054801561089157602002820191906000526020600020905b81548152602001906001019080831161087d575b5050505050905090565b60008060009054906101000a900473ffffffffffffffffffffffffffffffffffffffff1673ffffffffffffffffffffffffffffffffffffffff16636352211e846040518263ffffffff1660e01b81526004016108f791906111cc565b60206040518083038186803b15801561090f57600080fd5b505afa158015610923573d6000803e3d6000fd5b505050506040513d601f19601f820116820180604052508101906109479190610d98565b90506000600560643461095a9190611336565b6109649190611367565b905073be005997cc214577c575cab11d0430777145a7dd73ffffffffffffffffffffffffffffffffffffffff166108fc829081150290604051600060405180830381858888f193505050501580156109c0573d6000803e3d6000fd5b508173ffffffffffffffffffffffffffffffffffffffff166108fc82346109e791906113c1565b9081150290604051600060405180830381858888f19350505050158015610a12573d6000803e3d6000fd5b5060008054906101000a900473ffffffffffffffffffffffffffffffffffffffff1673ffffffffffffffffffffffffffffffffffffffff166342842e0e8333876040518463ffffffff1660e01b8152600401610a709392919061109d565b600060405180830381600087803b158015610a8a57600080fd5b505af1158015610a9e573d6000803e3d6000fd5b505050506000600160008681526020019081526020016000208190555060005b600280549050811015610b975760006001600060028481548110610ae557610ae46115ad565b5b90600052602060002001548152602001908152602001600020541415610b845760026001600280549050610b1991906113c1565b81548110610b2a57610b296115ad565b5b906000526020600020015460028281548110610b4957610b486115ad565b5b90600052602060002001819055506002805480610b6957610b6861157e565b5b60019003818190600052602060002001600090559055610b97565b8080610b8f906114d7565b915050610abe565b5060008054906101000a900473ffffffffffffffffffffffffffffffffffffffff1673ffffffffffffffffffffffffffffffffffffffff16635654360e858433876040518563ffffffff1660e01b8152600401610bf794939291906111e7565b600060405180830381600087803b158015610c1157600080fd5b505af1158015610c25573d6000803e3d6000fd5b5050505050505050565b600060016000838152602001908152602001600020549050919050565b60008054906101000a900473ffffffffffffffffffffffffffffffffffffffff1681565b60008060016000848152602001908152602001600020541415610c965760009050610c9b565b600190505b919050565b60028181548110610cb057600080fd5b906000526020600020016000915090505481565b6000600280549050905090565b60016020528060005260406000206000915090505481565b6000610cfc610cf7846112b0565b61128b565b905082815260208101848484011115610d1857610d17611610565b5b610d23848285611473565b509392505050565b600081519050610d3a8161174c565b92915050565b600081519050610d4f81611763565b92915050565b600082601f830112610d6a57610d6961160b565b5b8151610d7a848260208601610ce9565b91505092915050565b600081359050610d928161177a565b92915050565b600060208284031215610dae57610dad61161a565b5b6000610dbc84828501610d2b565b91505092915050565b600060208284031215610ddb57610dda61161a565b5b6000610de984828501610d40565b91505092915050565b600060208284031215610e0857610e0761161a565b5b600082015167ffffffffffffffff811115610e2657610e25611615565b5b610e3284828501610d55565b91505092915050565b600060208284031215610e5157610e5061161a565b5b6000610e5f84828501610d83565b91505092915050565b60008060408385031215610e7f57610e7e61161a565b5b6000610e8d85828601610d83565b9250506020610e9e85828601610d83565b9150509250929050565b6000610eb48383611056565b60208301905092915050565b610ec9816113f5565b82525050565b6000610eda826112f1565b610ee48185611314565b9350610eef836112e1565b8060005b83811015610f20578151610f078882610ea8565b9750610f1283611307565b925050600181019050610ef3565b5085935050505092915050565b610f3681611407565b82525050565b610f458161143d565b82525050565b6000610f56826112fc565b610f608185611325565b9350610f70818560208601611473565b610f798161161f565b840191505092915050565b6000610f91601d83611325565b9150610f9c82611630565b602082019050919050565b6000610fb4601883611325565b9150610fbf82611659565b602082019050919050565b6000610fd7602983611325565b9150610fe282611682565b604082019050919050565b6000610ffa601783611325565b9150611005826116d1565b602082019050919050565b600061101d601683611325565b9150611028826116fa565b602082019050919050565b6000611040600483611325565b915061104b82611723565b602082019050919050565b61105f81611433565b82525050565b61106e81611433565b82525050565b60006040820190506110896000830185610ec0565b6110966020830184610ec0565b9392505050565b60006060820190506110b26000830186610ec0565b6110bf6020830185610ec0565b6110cc6040830184611065565b949350505050565b600060208201905081810360008301526110ee8184610ecf565b905092915050565b600060208201905061110b6000830184610f2d565b92915050565b60006020820190506111266000830184610f3c565b92915050565b6000602082019050818103600083015261114581610f84565b9050919050565b6000602082019050818103600083015261116581610fa7565b9050919050565b6000602082019050818103600083015261118581610fca565b9050919050565b600060208201905081810360008301526111a581610fed565b9050919050565b600060208201905081810360008301526111c581611010565b9050919050565b60006020820190506111e16000830184611065565b92915050565b600060a0820190506111fc6000830187611065565b6112096020830186610ec0565b6112166040830185610ec0565b6112236060830184611065565b818103608083015261123481611033565b905095945050505050565b60006080820190506112546000830187611065565b6112616020830186611065565b61126e6040830185610ec0565b81810360608301526112808184610f4b565b905095945050505050565b60006112956112a6565b90506112a182826114a6565b919050565b6000604051905090565b600067ffffffffffffffff8211156112cb576112ca6115dc565b5b6112d48261161f565b9050602081019050919050565b6000819050602082019050919050565b600081519050919050565b600081519050919050565b6000602082019050919050565b600082825260208201905092915050565b600082825260208201905092915050565b600061134182611433565b915061134c83611433565b92508261135c5761135b61154f565b5b828204905092915050565b600061137282611433565b915061137d83611433565b9250817fffffffffffffffffffffffffffffffffffffffffffffffffffffffffffffffff04831182151516156113b6576113b5611520565b5b828202905092915050565b60006113cc82611433565b91506113d783611433565b9250828210156113ea576113e9611520565b5b828203905092915050565b600061140082611413565b9050919050565b60008115159050919050565b600073ffffffffffffffffffffffffffffffffffffffff82169050919050565b6000819050919050565b60006114488261144f565b9050919050565b600061145a82611461565b9050919050565b600061146c82611413565b9050919050565b60005b83811015611491578082015181840152602081019050611476565b838111156114a0576000848401525b50505050565b6114af8261161f565b810181811067ffffffffffffffff821117156114ce576114cd6115dc565b5b80604052505050565b60006114e282611433565b91507fffffffffffffffffffffffffffffffffffffffffffffffffffffffffffffffff82141561151557611514611520565b5b600182019050919050565b7f4e487b7100000000000000000000000000000000000000000000000000000000600052601160045260246000fd5b7f4e487b7100000000000000000000000000000000000000000000000000000000600052601260045260246000fd5b7f4e487b7100000000000000000000000000000000000000000000000000000000600052603160045260246000fd5b7f4e487b7100000000000000000000000000000000000000000000000000000000600052603260045260246000fd5b7f4e487b7100000000000000000000000000000000000000000000000000000000600052604160045260246000fd5b600080fd5b600080fd5b600080fd5b600080fd5b6000601f19601f8301169050919050565b7f74686973206e667420697320616c7265616479206f6e20612073616c65000000600082015250565b7f796f7520617265206e6f7420746f6b656e206f776e65722e0000000000000000600082015250565b7f416e696d616c20746f6b656e206f776e657220646964206e6f7420617070726f60008201527f766520746f6b656e2e0000000000000000000000000000000000000000000000602082015250565b7f796f7520617265206e6f7420746f6b656e206f776e6572000000000000000000600082015250565b7f7072696365206973207a65726f206f72206c6f77657200000000000000000000600082015250565b7f53686f7000000000000000000000000000000000000000000000000000000000600082015250565b611755816113f5565b811461176057600080fd5b50565b61176c81611407565b811461177757600080fd5b50565b61178381611433565b811461178e57600080fd5b5056fea2646970667358221220997c43ae91a7ae419d703cebcc9b6df2ad61209bb8e498ee81918d003ca3eb3a64736f6c63430008070033",
  "immutableReferences": {},
  "source": "// SPDX-License-Identifier: MIT\r\n\r\npragma solidity ^0.8.1;\r\n\r\nimport \"./NftContract.sol\";\r\n\r\ncontract NftDealContract {\r\n  NftContract public nftContractAddress;\r\n\r\n  event NftHistory(uint indexed tokenId, address from, address to, uint time, string historyType);\r\n\r\n  constructor(address _nftContractAddress) {\r\n    nftContractAddress = NftContract(_nftContractAddress);\r\n  }\r\n\r\n  event submitSell(uint tokenId, uint price, address tokenOwner, string tokenUri);\r\n\r\n  // \r\n  mapping(uint256 => uint256) public nftPrices;\r\n\r\n  // nft\r\n  uint256[] public onSaleNftArray;\r\n\r\n  // @  \r\n  function sellNft(uint256 _tokenId, uint256 _price) public {\r\n    //  \r\n    address nftTokenOwner = nftContractAddress.ownerOf(_tokenId);\r\n\r\n    // \r\n    require(nftTokenOwner == msg.sender, \"you are not token owner.\");\r\n    require(_price > 0, \"price is zero or lower\");\r\n    require(nftPrices[_tokenId] == 0, \"this nft is already on a sale\");\r\n    //      \r\n    require(\r\n      nftContractAddress.isApprovedForAll(nftTokenOwner, address(this)),\r\n      \"Animal token owner did not approve token.\"\r\n    );\r\n\r\n    nftPrices[_tokenId] = _price;\r\n\r\n    //    \r\n    onSaleNftArray.push(_tokenId);\r\n\r\n    emit submitSell(_tokenId, _price, nftTokenOwner, nftContractAddress.tokenURI(_tokenId));\r\n  }\r\n\r\n  function cancelSell(uint _tokenId) external {\r\n    require(msg.sender == nftContractAddress.ownerOf(_tokenId), \"you are not token owner\");\r\n\r\n    nftPrices[_tokenId] = 0;\r\n\r\n    for (uint256 i = 0; i < onSaleNftArray.length; i++) {\r\n      if (onSaleNftArray[i] == _tokenId) {\r\n        onSaleNftArray[i] = onSaleNftArray[onSaleNftArray.length - 1];\r\n        onSaleNftArray.pop();\r\n        break;\r\n      }\r\n    }\r\n  }\r\n\r\n  function buyNft(uint256 _tokenId, uint _timestamp) public payable {\r\n    // uint256 price = nftPrices[_tokenId];\r\n    address seller = nftContractAddress.ownerOf(_tokenId);\r\n    // require(nftPrices[_tokenId]; > 0, \" token not sale.\");\r\n    // require(nftPrices[_tokenId]; <= msg.value, \"not enought price\");\r\n    // require(seller != msg.sender, \"you are not token owner.\");\r\n    uint fee = (msg.value / 100) * 5;\r\n    payable(0xBE005997Cc214577c575cAb11d0430777145a7dd).transfer(fee);\r\n    payable(seller).transfer(msg.value - fee);\r\n\r\n    nftContractAddress.safeTransferFrom(seller, msg.sender, _tokenId); //  \r\n\r\n    nftPrices[_tokenId] = 0;\r\n\r\n    for (uint256 i = 0; i < onSaleNftArray.length; i++) {\r\n      if (nftPrices[onSaleNftArray[i]] == 0) {\r\n        onSaleNftArray[i] = onSaleNftArray[onSaleNftArray.length - 1];\r\n        onSaleNftArray.pop();\r\n        break;\r\n      }\r\n    }\r\n\r\n    // nft history  \r\n    nftContractAddress.nftEventTrigger(_tokenId, seller, msg.sender, _timestamp, \"Shop\");\r\n  }\r\n\r\n  //   for      \r\n  function getOnSaleNftArrayLength() public view returns (uint256) {\r\n    return onSaleNftArray.length;\r\n  }\r\n\r\n  function onSale(uint _tokenId) public view returns (bool) {\r\n    if (nftPrices[_tokenId] == 0) {\r\n      return false;\r\n    } else {\r\n      return true;\r\n    }\r\n  }\r\n\r\n  function getOnSaleNftArray() public view returns (uint256[] memory) {\r\n    return onSaleNftArray;\r\n  }\r\n\r\n  function getNftTokenPrice(uint256 _tokenId) public view returns (uint256) {\r\n    return nftPrices[_tokenId];\r\n  }\r\n}\r\n/*\r\n   \r\n\r\n  1)   \r\n  2) 1) address     \r\n---------------------\r\n  3) 2) address  setApprovalForAll( 2) , true) \r\n  =>    function setApprovalForAll(address operator, bool approved) public virtual override {\r\n        _setApprovalForAll(_msgSender(), operator, approved);\r\n        }\r\n  ( msgsender     2)     )\r\n  4) 2)      . ()\r\n\r\n*/\r\n\r\n// emit nftContractAddres.NftHistory(_tokenId,owner,recipient,_timestamp,\"AuctionShop\");\r\n",
  "sourcePath": "C:\\Users\\coco\\Desktop\\\\coco\\TEAM_PROJECT\\NFT_GAME\\contracts\\NftDealContract.sol",
  "compiler": {
    "name": "solc",
    "version": "0.8.7+commit.e28d00a7.Emscripten.clang"
  },
  "schemaVersion": "3.4.4",
  "updatedAt": "2022-04-21T06:13:05.158Z",
  "networkType": "ethereum",
  "devdoc": {
    "kind": "dev",
    "methods": {},
    "version": 1
  },
  "userdoc": {
    "kind": "user",
    "methods": {},
    "version": 1
  }
}