{
  "contractName": "Staking",
  "abi": [
    {
      "inputs": [
        {
          "internalType": "contract GameToken",
          "name": "_gametoken",
          "type": "address"
        },
        {
          "internalType": "contract NftContract",
          "name": "_nfttoken",
          "type": "address"
        }
      ],
      "stateMutability": "nonpayable",
      "type": "constructor"
    },
    {
      "anonymous": false,
      "inputs": [
        {
          "indexed": true,
          "internalType": "address",
          "name": "account",
          "type": "address"
        },
        {
          "indexed": true,
          "internalType": "uint256",
          "name": "tokenId",
          "type": "uint256"
        },
        {
          "indexed": false,
          "internalType": "uint256",
          "name": "time",
          "type": "uint256"
        }
      ],
      "name": "nftStakeEvent",
      "type": "event"
    },
    {
      "anonymous": false,
      "inputs": [
        {
          "indexed": true,
          "internalType": "address",
          "name": "account",
          "type": "address"
        },
        {
          "indexed": false,
          "internalType": "uint256",
          "name": "time",
          "type": "uint256"
        }
      ],
      "name": "tokenStakeEvent",
      "type": "event"
    },
    {
      "inputs": [],
      "name": "gametoken",
      "outputs": [
        {
          "internalType": "contract GameToken",
          "name": "",
          "type": "address"
        }
      ],
      "stateMutability": "view",
      "type": "function",
      "constant": true
    },
    {
      "inputs": [],
      "name": "nfttoken",
      "outputs": [
        {
          "internalType": "contract NftContract",
          "name": "",
          "type": "address"
        }
      ],
      "stateMutability": "view",
      "type": "function",
      "constant": true
    },
    {
      "inputs": [
        {
          "internalType": "address",
          "name": "",
          "type": "address"
        },
        {
          "internalType": "address",
          "name": "",
          "type": "address"
        },
        {
          "internalType": "uint256",
          "name": "",
          "type": "uint256"
        },
        {
          "internalType": "bytes",
          "name": "",
          "type": "bytes"
        }
      ],
      "name": "onERC721Received",
      "outputs": [
        {
          "internalType": "bytes4",
          "name": "",
          "type": "bytes4"
        }
      ],
      "stateMutability": "nonpayable",
      "type": "function"
    },
    {
      "inputs": [
        {
          "internalType": "address",
          "name": "",
          "type": "address"
        }
      ],
      "name": "stakingData",
      "outputs": [
        {
          "internalType": "address",
          "name": "ownerAddress",
          "type": "address"
        },
        {
          "internalType": "uint256",
          "name": "tokenId",
          "type": "uint256"
        },
        {
          "internalType": "uint256",
          "name": "startTime",
          "type": "uint256"
        },
        {
          "internalType": "uint256",
          "name": "endTime",
          "type": "uint256"
        }
      ],
      "stateMutability": "view",
      "type": "function",
      "constant": true
    },
    {
      "inputs": [],
      "name": "setEndTime",
      "outputs": [
        {
          "internalType": "uint256",
          "name": "",
          "type": "uint256"
        }
      ],
      "stateMutability": "view",
      "type": "function",
      "constant": true
    },
    {
      "inputs": [
        {
          "internalType": "uint256",
          "name": "_tokenId",
          "type": "uint256"
        }
      ],
      "name": "nftStake",
      "outputs": [],
      "stateMutability": "nonpayable",
      "type": "function"
    },
    {
      "inputs": [
        {
          "internalType": "uint256",
          "name": "_tokenId",
          "type": "uint256"
        }
      ],
      "name": "exit",
      "outputs": [],
      "stateMutability": "nonpayable",
      "type": "function"
    },
    {
      "inputs": [
        {
          "internalType": "uint256",
          "name": "_tokenId",
          "type": "uint256"
        }
      ],
      "name": "calcReward",
      "outputs": [
        {
          "internalType": "uint256",
          "name": "",
          "type": "uint256"
        }
      ],
      "stateMutability": "view",
      "type": "function",
      "constant": true
    },
    {
      "inputs": [],
      "name": "getStakingData",
      "outputs": [
        {
          "components": [
            {
              "internalType": "address",
              "name": "ownerAddress",
              "type": "address"
            },
            {
              "internalType": "uint256",
              "name": "tokenId",
              "type": "uint256"
            },
            {
              "internalType": "uint256",
              "name": "startTime",
              "type": "uint256"
            },
            {
              "internalType": "uint256",
              "name": "endTime",
              "type": "uint256"
            }
          ],
          "internalType": "struct Staking.StakingData",
          "name": "",
          "type": "tuple"
        }
      ],
      "stateMutability": "view",
      "type": "function",
      "constant": true
    }
  ],
  "bytecode": "0x60806040523480156200001157600080fd5b506040516200155a3803806200155a8339818101604052810190620000379190620000ee565b816000806101000a81548173ffffffffffffffffffffffffffffffffffffffff021916908373ffffffffffffffffffffffffffffffffffffffff16021790555080600160006101000a81548173ffffffffffffffffffffffffffffffffffffffff021916908373ffffffffffffffffffffffffffffffffffffffff1602179055505050620001ca565b600081519050620000d18162000196565b92915050565b600081519050620000e881620001b0565b92915050565b6000806040838503121562000108576200010762000191565b5b60006200011885828601620000c0565b92505060206200012b85828601620000d7565b9150509250929050565b6000620001428262000171565b9050919050565b6000620001568262000135565b9050919050565b60006200016a8262000135565b9050919050565b600073ffffffffffffffffffffffffffffffffffffffff82169050919050565b600080fd5b620001a18162000149565b8114620001ad57600080fd5b50565b620001bb816200015d565b8114620001c757600080fd5b50565b61138080620001da6000396000f3fe608060405234801561001057600080fd5b50600436106100935760003560e01c80637f8661a1116100665780637f8661a1146101345780639e70cd3f14610150578063a1aee50e1461016e578063c374a4df1461018c578063eca51139146101a857610093565b8063150b7a0214610098578063544c465c146100c857806376be6af6146100f857806376e35d8914610116575b600080fd5b6100b260048036038101906100ad9190610c3c565b6101db565b6040516100bf9190610ec2565b60405180910390f35b6100e260048036038101906100dd9190610cec565b6101ef565b6040516100ef9190610f6e565b60405180910390f35b610100610357565b60405161010d9190610f6e565b60405180910390f35b61011e6103ab565b60405161012b9190610f53565b60405180910390f35b61014e60048036038101906101499190610cec565b610476565b005b610158610766565b6040516101659190610ef8565b60405180910390f35b61017661078c565b6040516101839190610edd565b60405180910390f35b6101a660048036038101906101a19190610cec565b6107b0565b005b6101c260048036038101906101bd9190610be2565b610a90565b6040516101d29493929190610e7d565b60405180910390f35b600063150b7a0260e01b9050949350505050565b60008082118015610201575060648211155b610240576040517f08c379a000000000000000000000000000000000000000000000000000000000815260040161023790610f13565b60405180910390fd5b6000600183101580156102545750603c8311155b1561026257600190506102a0565b603d83101580156102745750605a8311155b15610282576002905061029f565b605b8310158015610294575060648311155b1561029e57600390505b5b5b60008162015180600260003373ffffffffffffffffffffffffffffffffffffffff1673ffffffffffffffffffffffffffffffffffffffff16815260200190815260200160002060020154600260003373ffffffffffffffffffffffffffffffffffffffff1673ffffffffffffffffffffffffffffffffffffffff1681526020019081526020016000206003015461033791906110d1565b6103419190611046565b61034b9190611077565b90508092505050919050565b600080636250cc809050600062093a80824261037391906110d1565b61037d9190611046565b905062093a80808261038f9190611077565b8361039a9190610ff0565b6103a49190610ff0565b9250505090565b6103b3610ae0565b600260003373ffffffffffffffffffffffffffffffffffffffff1673ffffffffffffffffffffffffffffffffffffffff1681526020019081526020016000206040518060800160405290816000820160009054906101000a900473ffffffffffffffffffffffffffffffffffffffff1673ffffffffffffffffffffffffffffffffffffffff1673ffffffffffffffffffffffffffffffffffffffff1681526020016001820154815260200160028201548152602001600382015481525050905090565b3373ffffffffffffffffffffffffffffffffffffffff16600260003373ffffffffffffffffffffffffffffffffffffffff1673ffffffffffffffffffffffffffffffffffffffff16815260200190815260200160002060000160009054906101000a900473ffffffffffffffffffffffffffffffffffffffff1673ffffffffffffffffffffffffffffffffffffffff1614610546576040517f08c379a000000000000000000000000000000000000000000000000000000000815260040161053d90610f33565b60405180910390fd5b600160009054906101000a900473ffffffffffffffffffffffffffffffffffffffff1673ffffffffffffffffffffffffffffffffffffffff166342842e0e3033846040518463ffffffff1660e01b81526004016105a593929190610e1d565b600060405180830381600087803b1580156105bf57600080fd5b505af11580156105d3573d6000803e3d6000fd5b5050505060006105e2826101ef565b905060008054906101000a900473ffffffffffffffffffffffffffffffffffffffff1673ffffffffffffffffffffffffffffffffffffffff1663a9059cbb33836040518363ffffffff1660e01b815260040161063f929190610e54565b602060405180830381600087803b15801561065957600080fd5b505af115801561066d573d6000803e3d6000fd5b505050506040513d601f19601f820116820180604052508101906106919190610cbf565b50600260003373ffffffffffffffffffffffffffffffffffffffff1673ffffffffffffffffffffffffffffffffffffffff168152602001908152602001600020600080820160006101000a81549073ffffffffffffffffffffffffffffffffffffffff02191690556001820160009055600282016000905560038201600090555050813373ffffffffffffffffffffffffffffffffffffffff167f88b886cb1c98e58bfaeb09ef30336d73959f994acf61a2be26e6e0473bff80304260405161075a9190610f6e565b60405180910390a35050565b600160009054906101000a900473ffffffffffffffffffffffffffffffffffffffff1681565b60008054906101000a900473ffffffffffffffffffffffffffffffffffffffff1681565b3373ffffffffffffffffffffffffffffffffffffffff16600160009054906101000a900473ffffffffffffffffffffffffffffffffffffffff1673ffffffffffffffffffffffffffffffffffffffff16636352211e836040518263ffffffff1660e01b81526004016108229190610f6e565b60206040518083038186803b15801561083a57600080fd5b505afa15801561084e573d6000803e3d6000fd5b505050506040513d601f19601f820116820180604052508101906108729190610c0f565b73ffffffffffffffffffffffffffffffffffffffff16146108c8576040517f08c379a00000000000000000000000000000000000000000000000000000000081526004016108bf90610f33565b60405180910390fd5b600160009054906101000a900473ffffffffffffffffffffffffffffffffffffffff1673ffffffffffffffffffffffffffffffffffffffff166342842e0e3330846040518463ffffffff1660e01b815260040161092793929190610e1d565b600060405180830381600087803b15801561094157600080fd5b505af1158015610955573d6000803e3d6000fd5b5050505060405180608001604052803373ffffffffffffffffffffffffffffffffffffffff168152602001828152602001428152602001610994610357565b815250600260003373ffffffffffffffffffffffffffffffffffffffff1673ffffffffffffffffffffffffffffffffffffffff16815260200190815260200160002060008201518160000160006101000a81548173ffffffffffffffffffffffffffffffffffffffff021916908373ffffffffffffffffffffffffffffffffffffffff160217905550602082015181600101556040820151816002015560608201518160030155905050803373ffffffffffffffffffffffffffffffffffffffff167f88b886cb1c98e58bfaeb09ef30336d73959f994acf61a2be26e6e0473bff803042604051610a859190610f6e565b60405180910390a350565b60026020528060005260406000206000915090508060000160009054906101000a900473ffffffffffffffffffffffffffffffffffffffff16908060010154908060020154908060030154905084565b6040518060800160405280600073ffffffffffffffffffffffffffffffffffffffff1681526020016000815260200160008152602001600081525090565b6000610b31610b2c84610fae565b610f89565b905082815260208101848484011115610b4d57610b4c611293565b5b610b588482856111c1565b509392505050565b600081359050610b6f81611305565b92915050565b600081519050610b8481611305565b92915050565b600081519050610b998161131c565b92915050565b600082601f830112610bb457610bb361128e565b5b8135610bc4848260208601610b1e565b91505092915050565b600081359050610bdc81611333565b92915050565b600060208284031215610bf857610bf761129d565b5b6000610c0684828501610b60565b91505092915050565b600060208284031215610c2557610c2461129d565b5b6000610c3384828501610b75565b91505092915050565b60008060008060808587031215610c5657610c5561129d565b5b6000610c6487828801610b60565b9450506020610c7587828801610b60565b9350506040610c8687828801610bcd565b925050606085013567ffffffffffffffff811115610ca757610ca6611298565b5b610cb387828801610b9f565b91505092959194509250565b600060208284031215610cd557610cd461129d565b5b6000610ce384828501610b8a565b91505092915050565b600060208284031215610d0257610d0161129d565b5b6000610d1084828501610bcd565b91505092915050565b610d2281611105565b82525050565b610d3181611105565b82525050565b610d4081611123565b82525050565b610d4f81611179565b82525050565b610d5e8161118b565b82525050565b6000610d71600e83610fdf565b9150610d7c826112b3565b602082019050919050565b6000610d94601783610fdf565b9150610d9f826112dc565b602082019050919050565b608082016000820151610dc06000850182610d19565b506020820151610dd36020850182610dff565b506040820151610de66040850182610dff565b506060820151610df96060850182610dff565b50505050565b610e088161116f565b82525050565b610e178161116f565b82525050565b6000606082019050610e326000830186610d28565b610e3f6020830185610d28565b610e4c6040830184610e0e565b949350505050565b6000604082019050610e696000830185610d28565b610e766020830184610e0e565b9392505050565b6000608082019050610e926000830187610d28565b610e9f6020830186610e0e565b610eac6040830185610e0e565b610eb96060830184610e0e565b95945050505050565b6000602082019050610ed76000830184610d37565b92915050565b6000602082019050610ef26000830184610d46565b92915050565b6000602082019050610f0d6000830184610d55565b92915050565b60006020820190508181036000830152610f2c81610d64565b9050919050565b60006020820190508181036000830152610f4c81610d87565b9050919050565b6000608082019050610f686000830184610daa565b92915050565b6000602082019050610f836000830184610e0e565b92915050565b6000610f93610fa4565b9050610f9f82826111d0565b919050565b6000604051905090565b600067ffffffffffffffff821115610fc957610fc861125f565b5b610fd2826112a2565b9050602081019050919050565b600082825260208201905092915050565b6000610ffb8261116f565b91506110068361116f565b9250827fffffffffffffffffffffffffffffffffffffffffffffffffffffffffffffffff0382111561103b5761103a611201565b5b828201905092915050565b60006110518261116f565b915061105c8361116f565b92508261106c5761106b611230565b5b828204905092915050565b60006110828261116f565b915061108d8361116f565b9250817fffffffffffffffffffffffffffffffffffffffffffffffffffffffffffffffff04831182151516156110c6576110c5611201565b5b828202905092915050565b60006110dc8261116f565b91506110e78361116f565b9250828210156110fa576110f9611201565b5b828203905092915050565b60006111108261114f565b9050919050565b60008115159050919050565b60007fffffffff0000000000000000000000000000000000000000000000000000000082169050919050565b600073ffffffffffffffffffffffffffffffffffffffff82169050919050565b6000819050919050565b60006111848261119d565b9050919050565b60006111968261119d565b9050919050565b60006111a8826111af565b9050919050565b60006111ba8261114f565b9050919050565b82818337600083830152505050565b6111d9826112a2565b810181811067ffffffffffffffff821117156111f8576111f761125f565b5b80604052505050565b7f4e487b7100000000000000000000000000000000000000000000000000000000600052601160045260246000fd5b7f4e487b7100000000000000000000000000000000000000000000000000000000600052601260045260246000fd5b7f4e487b7100000000000000000000000000000000000000000000000000000000600052604160045260246000fd5b600080fd5b600080fd5b600080fd5b600080fd5b6000601f19601f8301169050919050565b7f746f6b656e20696420317e313030000000000000000000000000000000000000600082015250565b7f796f7520617265206e6f7420746f6b656e206f776e6572000000000000000000600082015250565b61130e81611105565b811461131957600080fd5b50565b61132581611117565b811461133057600080fd5b50565b61133c8161116f565b811461134757600080fd5b5056fea26469706673582212205cc7d239e830b2d65194df5087529405f9983ae4b8eda95f24bf010aa3d696e364736f6c63430008070033",
  "immutableReferences": {},
  "source": "// SPDX-License-Identifier: MIT\r\n\r\npragma solidity ^0.8.7;\r\n\r\nimport \"./NftContract.sol\";\r\nimport \"./GameToken.sol\";\r\nimport \"../node_modules/@openzeppelin/contracts/token/ERC721/utils/ERC721Holder.sol\";\r\n\r\ncontract Staking is ERC721Holder {\r\n  event nftStakeEvent(address indexed account, uint indexed tokenId, uint time);\r\n  event tokenStakeEvent(address indexed account, uint time);\r\n\r\n  GameToken public gametoken;\r\n  NftContract public nfttoken;\r\n\r\n  // mapping(uint => address) stakingAddress;\r\n  // mapping(address => uint) stakingTokenId;\r\n  // mapping(address => uint) startTime;\r\n  // mapping(address => uint) endTime;\r\n\r\n  constructor(GameToken _gametoken, NftContract _nfttoken) {\r\n    gametoken = _gametoken;\r\n    nfttoken = _nfttoken;\r\n  }\r\n\r\n  struct StakingData {\r\n    address ownerAddress;\r\n    uint tokenId;\r\n    uint startTime;\r\n    uint endTime;\r\n  }\r\n  mapping(address => StakingData) public stakingData;\r\n\r\n  // uint ReferenceTimestamp = 1649808000; //  2022.04.13. 09:00\r\n  // uint endTime = block.timestamp / ReferenceTimestamp;\r\n\r\n  //      1~3 (red, green, purple)\r\n  //    = (( - ) / (24hour)) \r\n  //    = getEndTime()\r\n\r\n  //    = ((getEndTime() - ) / (24hour)) \r\n  /*\r\n    modifier\r\n  */\r\n\r\n  //     ,\r\n  //      \r\n\r\n  //    \r\n  function setEndTime() public view returns (uint) {\r\n    uint ReferenceTimestamp = 1649462400; //  2022.04.07. 09:00\r\n    //    1  \r\n    uint temp = (block.timestamp - ReferenceTimestamp) / 1 weeks;\r\n    //        \r\n    return ReferenceTimestamp + temp * 1 weeks + 1 weeks;\r\n  }\r\n\r\n  // NFT  \r\n  function nftStake(uint _tokenId) external {\r\n    //   nft   \r\n    require(nfttoken.ownerOf(_tokenId) == msg.sender, \"you are not token owner\");\r\n\r\n    // nfttoken.setApprovalForAll(address(this), true);\r\n    //    nft   \r\n    nfttoken.safeTransferFrom(msg.sender, address(this), _tokenId);\r\n\r\n    //     \r\n    stakingData[msg.sender] = StakingData(msg.sender, _tokenId, block.timestamp, setEndTime());\r\n    // stakingAddress[_tokenId] = msg.sender;\r\n    // stakingTokenId[msg.sender] = _tokenId;\r\n    // //  ,   \r\n    // startTime[msg.sender] = block.timestamp;\r\n    // endTime[msg.sender] = setEndTime();\r\n\r\n    //   \r\n    emit nftStakeEvent(msg.sender, _tokenId, block.timestamp);\r\n  }\r\n\r\n  // NFT  \r\n  function exit(uint _tokenId) external {\r\n    //     \r\n    require(stakingData[msg.sender].ownerAddress == msg.sender, \"you are not token owner\");\r\n    //     \r\n    // require(stakingData[msg.sender].endTime < block.timestamp, \"Time\");\r\n\r\n    //  nft  \r\n    nfttoken.safeTransferFrom(address(this), msg.sender, _tokenId);\r\n\r\n    //   (    1  1)\r\n    uint reward = calcReward(_tokenId);\r\n    gametoken.transfer(msg.sender, reward);\r\n\r\n    //  \r\n    delete stakingData[msg.sender];\r\n    // delete stakingAddress[_tokenId];\r\n    // delete stakingTokenId[msg.sender];\r\n    // delete startTime[msg.sender];\r\n    // delete endTime[msg.sender];\r\n\r\n    emit nftStakeEvent(msg.sender, _tokenId, block.timestamp);\r\n  }\r\n\r\n  //     \r\n  function calcReward(uint _tokenId) public view returns (uint) {\r\n    require(_tokenId > 0 && _tokenId <= 100, \"token id 1~100\");\r\n    uint classReward; // NFT   reward \r\n    if (_tokenId >= 1 && _tokenId <= 60) {\r\n      classReward = 1;\r\n    } else if (_tokenId >= 61 && _tokenId <= 90) {\r\n      classReward = 2;\r\n    } else if (_tokenId >= 91 && _tokenId <= 100) {\r\n      classReward = 3;\r\n    }\r\n    //     1  DGT 1,\r\n    // NFT (red, green, purple)  1, 2, 3\r\n    // uint reward = ((endTime[msg.sender] - startTime[msg.sender]) / 1 days) * classReward;\r\n    uint reward = ((stakingData[msg.sender].endTime - stakingData[msg.sender].startTime) / 1 days) * classReward;\r\n    return reward;\r\n  }\r\n\r\n  function getStakingData() public view returns (StakingData memory) {\r\n    return stakingData[msg.sender];\r\n  }\r\n\r\n  // function getstakingAddress(uint _tokenId) public view returns (address) {\r\n  //   return stakingAddress[_tokenId];\r\n  // }\r\n\r\n  // //  \r\n  // function withdraw(\r\n  //   address _account,\r\n  //   uint _tokenId,\r\n  //   uint _timestamp\r\n  // ) external updateStake(_account, _timestamp) {\r\n  //   //  nft  \r\n  //   // nfttoken.safeTransferFrom(address(this), msg.sender, _tokenId);\r\n  // }\r\n\r\n  //   function tokenStake(\r\n  //     address _account,\r\n  //     uint _amount,\r\n  //     uint _timestamp\r\n  //   ) external {\r\n  //     require(_account == msg.sender, \"you are not token owner\");\r\n  //     require(_amount >= gametoken.balanceOf(_account));\r\n  //     emit tokenStakeEvent(_account, _timestamp);\r\n  //   }\r\n  //  \r\n  // modifier updateStake(address _account, uint _tokenId) {\r\n  //   //    address tokenId   \r\n  //   updateTimeByNft[_account][_tokenId] = block.timestamp < setEndTime() ? block.timestamp : setEndTime();\r\n  //   _;\r\n  // }\r\n\r\n  //   modifier calculateEarn(address _account, uint _tokenId, uint _timestamp){\r\n  //       daytime = 60 * 60 * 24;\r\n  //   }\r\n}\r\n",
  "sourcePath": "C:\\Users\\coco\\Desktop\\\\coco\\TEAM_PROJECT\\NFT_GAME\\contracts\\Staking.sol",
  "compiler": {
    "name": "solc",
    "version": "0.8.7+commit.e28d00a7.Emscripten.clang"
  },
  "schemaVersion": "3.4.4",
  "updatedAt": "2022-04-21T06:13:05.226Z",
  "networkType": "ethereum",
  "devdoc": {
    "kind": "dev",
    "methods": {
      "onERC721Received(address,address,uint256,bytes)": {
        "details": "See {IERC721Receiver-onERC721Received}. Always returns `IERC721Receiver.onERC721Received.selector`."
      }
    },
    "version": 1
  },
  "userdoc": {
    "kind": "user",
    "methods": {},
    "version": 1
  }
}